{
  "address": "0xCf7Ed3AccA5a467e9e704C703E8D87F634fB0Fc9",
  "abi": [
    {
      "inputs": [
        {
          "components": [
            {
              "internalType": "uint256",
              "name": "seed",
              "type": "uint256"
            },
            {
              "internalType": "address",
              "name": "breeder",
              "type": "address"
            },
            {
              "internalType": "address",
              "name": "hatcher",
              "type": "address"
            },
            {
              "internalType": "uint256",
              "name": "element",
              "type": "uint256"
            },
            {
              "internalType": "uint256",
              "name": "level",
              "type": "uint256"
            },
            {
              "internalType": "bool",
              "name": "isAliveForever",
              "type": "bool"
            }
          ],
          "internalType": "struct TamikoLibrary.CuteTamiko",
          "name": "_tamiko",
          "type": "tuple"
        },
        {
          "components": [
            {
              "internalType": "uint256",
              "name": "lastFed",
              "type": "uint256"
            },
            {
              "internalType": "uint256",
              "name": "hatchDate",
              "type": "uint256"
            }
          ],
          "internalType": "struct TamikoLibrary.Timings",
          "name": "_timings",
          "type": "tuple"
        },
        {
          "components": [
            {
              "internalType": "uint256",
              "name": "power",
              "type": "uint256"
            },
            {
              "internalType": "uint256",
              "name": "speed",
              "type": "uint256"
            },
            {
              "internalType": "uint256",
              "name": "defense",
              "type": "uint256"
            }
          ],
          "internalType": "struct TamikoLibrary.Skills",
          "name": "_skills",
          "type": "tuple"
        }
      ],
      "name": "useItem",
      "outputs": [
        {
          "components": [
            {
              "internalType": "uint256",
              "name": "seed",
              "type": "uint256"
            },
            {
              "internalType": "address",
              "name": "breeder",
              "type": "address"
            },
            {
              "internalType": "address",
              "name": "hatcher",
              "type": "address"
            },
            {
              "internalType": "uint256",
              "name": "element",
              "type": "uint256"
            },
            {
              "internalType": "uint256",
              "name": "level",
              "type": "uint256"
            },
            {
              "internalType": "bool",
              "name": "isAliveForever",
              "type": "bool"
            }
          ],
          "internalType": "struct TamikoLibrary.CuteTamiko",
          "name": "",
          "type": "tuple"
        },
        {
          "components": [
            {
              "internalType": "uint256",
              "name": "lastFed",
              "type": "uint256"
            },
            {
              "internalType": "uint256",
              "name": "hatchDate",
              "type": "uint256"
            }
          ],
          "internalType": "struct TamikoLibrary.Timings",
          "name": "",
          "type": "tuple"
        },
        {
          "components": [
            {
              "internalType": "uint256",
              "name": "power",
              "type": "uint256"
            },
            {
              "internalType": "uint256",
              "name": "speed",
              "type": "uint256"
            },
            {
              "internalType": "uint256",
              "name": "defense",
              "type": "uint256"
            }
          ],
          "internalType": "struct TamikoLibrary.Skills",
          "name": "",
          "type": "tuple"
        }
      ],
      "stateMutability": "view",
      "type": "function"
    }
  ],
  "transactionHash": "0xa21b052cc34c7e713aa4f6538672ad165ab847ac99d63bef23ef44c4bd248997",
  "args": [],
  "numDeployments": 1,
  "solcInputHash": "6f9d2d8a46c987656ccfb103c9914abf",
  "bytecode": "0x608060405234801561001057600080fd5b50610719806100206000396000f3fe608060405234801561001057600080fd5b506004361061002b5760003560e01c80638cbde2c714610030575b600080fd5b61004a6004803603810190610045919061046f565b610062565b604051610059939291906105dd565b60405180910390f35b61006a610110565b610072610174565b61007a61018e565b600086905060008690506000869050600183608001511480156100a1575060008860200151115b156100c1576001836080018181516100b99190610645565b915081815250505b8060000180518091906100d39061069b565b815250506002816020018181516100ea9190610645565b915081815250504282600001818152505082828295509550955050505093509350939050565b6040518060c0016040528060008152602001600073ffffffffffffffffffffffffffffffffffffffff168152602001600073ffffffffffffffffffffffffffffffffffffffff16815260200160008152602001600081526020016000151581525090565b604051806040016040528060008152602001600081525090565b60405180606001604052806000815260200160008152602001600081525090565b6000604051905090565b600080fd5b600080fd5b6000601f19601f8301169050919050565b7f4e487b7100000000000000000000000000000000000000000000000000000000600052604160045260246000fd5b61020c826101c3565b810181811067ffffffffffffffff8211171561022b5761022a6101d4565b5b80604052505050565b600061023e6101af565b905061024a8282610203565b919050565b6000819050919050565b6102628161024f565b811461026d57600080fd5b50565b60008135905061027f81610259565b92915050565b600073ffffffffffffffffffffffffffffffffffffffff82169050919050565b60006102b082610285565b9050919050565b6102c0816102a5565b81146102cb57600080fd5b50565b6000813590506102dd816102b7565b92915050565b60008115159050919050565b6102f8816102e3565b811461030357600080fd5b50565b600081359050610315816102ef565b92915050565b600060c08284031215610331576103306101be565b5b61033b60c0610234565b9050600061034b84828501610270565b600083015250602061035f848285016102ce565b6020830152506040610373848285016102ce565b604083015250606061038784828501610270565b606083015250608061039b84828501610270565b60808301525060a06103af84828501610306565b60a08301525092915050565b6000604082840312156103d1576103d06101be565b5b6103db6040610234565b905060006103eb84828501610270565b60008301525060206103ff84828501610270565b60208301525092915050565b600060608284031215610421576104206101be565b5b61042b6060610234565b9050600061043b84828501610270565b600083015250602061044f84828501610270565b602083015250604061046384828501610270565b60408301525092915050565b60008060006101608486031215610489576104886101b9565b5b60006104978682870161031b565b93505060c06104a8868287016103bb565b9250506101006104ba8682870161040b565b9150509250925092565b6104cd8161024f565b82525050565b6104dc816102a5565b82525050565b6104eb816102e3565b82525050565b60c08201600082015161050760008501826104c4565b50602082015161051a60208501826104d3565b50604082015161052d60408501826104d3565b50606082015161054060608501826104c4565b50608082015161055360808501826104c4565b5060a082015161056660a08501826104e2565b50505050565b60408201600082015161058260008501826104c4565b50602082015161059560208501826104c4565b50505050565b6060820160008201516105b160008501826104c4565b5060208201516105c460208501826104c4565b5060408201516105d760408501826104c4565b50505050565b6000610160820190506105f360008301866104f1565b61060060c083018561056c565b61060e61010083018461059b565b949350505050565b7f4e487b7100000000000000000000000000000000000000000000000000000000600052601160045260246000fd5b60006106508261024f565b915061065b8361024f565b9250827fffffffffffffffffffffffffffffffffffffffffffffffffffffffffffffffff038211156106905761068f610616565b5b828201905092915050565b60006106a68261024f565b91507fffffffffffffffffffffffffffffffffffffffffffffffffffffffffffffffff82036106d8576106d7610616565b5b60018201905091905056fea264697066735822122057cd74d20cfa9822a6b55366dab3240c422d3f995a54eb5bf086fa7293c73ae164736f6c634300080e0033",
  "devdoc": {
    "kind": "dev",
    "methods": {},
    "version": 1
  },
  "userdoc": {
    "kind": "user",
    "methods": {},
    "version": 1
  },
  "storageLayout": {
    "storage": [],
    "types": null
  }
}