{
  "address": "0xDc64a140Aa3E981100a9becA4E685f962f0cF6C9",
  "abi": [
    {
      "inputs": [
        {
          "components": [
            {
              "internalType": "uint256",
              "name": "seed",
              "type": "uint256"
            },
            {
              "internalType": "address",
              "name": "breeder",
              "type": "address"
            },
            {
              "internalType": "address",
              "name": "hatcher",
              "type": "address"
            },
            {
              "internalType": "uint256",
              "name": "element",
              "type": "uint256"
            },
            {
              "internalType": "uint256",
              "name": "level",
              "type": "uint256"
            },
            {
              "internalType": "bool",
              "name": "isAliveForever",
              "type": "bool"
            }
          ],
          "internalType": "struct TamikoLibrary.CuteTamiko",
          "name": "_tamiko",
          "type": "tuple"
        },
        {
          "components": [
            {
              "internalType": "uint256",
              "name": "lastFed",
              "type": "uint256"
            },
            {
              "internalType": "uint256",
              "name": "hatchDate",
              "type": "uint256"
            }
          ],
          "internalType": "struct TamikoLibrary.Timings",
          "name": "_timings",
          "type": "tuple"
        },
        {
          "components": [
            {
              "internalType": "uint256",
              "name": "power",
              "type": "uint256"
            },
            {
              "internalType": "uint256",
              "name": "speed",
              "type": "uint256"
            },
            {
              "internalType": "uint256",
              "name": "defense",
              "type": "uint256"
            }
          ],
          "internalType": "struct TamikoLibrary.Skills",
          "name": "_skills",
          "type": "tuple"
        }
      ],
      "name": "useItem",
      "outputs": [
        {
          "components": [
            {
              "internalType": "uint256",
              "name": "seed",
              "type": "uint256"
            },
            {
              "internalType": "address",
              "name": "breeder",
              "type": "address"
            },
            {
              "internalType": "address",
              "name": "hatcher",
              "type": "address"
            },
            {
              "internalType": "uint256",
              "name": "element",
              "type": "uint256"
            },
            {
              "internalType": "uint256",
              "name": "level",
              "type": "uint256"
            },
            {
              "internalType": "bool",
              "name": "isAliveForever",
              "type": "bool"
            }
          ],
          "internalType": "struct TamikoLibrary.CuteTamiko",
          "name": "",
          "type": "tuple"
        },
        {
          "components": [
            {
              "internalType": "uint256",
              "name": "lastFed",
              "type": "uint256"
            },
            {
              "internalType": "uint256",
              "name": "hatchDate",
              "type": "uint256"
            }
          ],
          "internalType": "struct TamikoLibrary.Timings",
          "name": "",
          "type": "tuple"
        },
        {
          "components": [
            {
              "internalType": "uint256",
              "name": "power",
              "type": "uint256"
            },
            {
              "internalType": "uint256",
              "name": "speed",
              "type": "uint256"
            },
            {
              "internalType": "uint256",
              "name": "defense",
              "type": "uint256"
            }
          ],
          "internalType": "struct TamikoLibrary.Skills",
          "name": "",
          "type": "tuple"
        }
      ],
      "stateMutability": "pure",
      "type": "function"
    }
  ],
  "transactionHash": "0xc071716932cd909474c716d964aeb0bfe2b09171fd570931ec52036425488355",
  "args": [],
  "numDeployments": 1,
  "solcInputHash": "6f9d2d8a46c987656ccfb103c9914abf",
  "bytecode": "0x608060405234801561001057600080fd5b5061074a806100206000396000f3fe608060405234801561001057600080fd5b506004361061002b5760003560e01c80638cbde2c714610030575b600080fd5b61004a6004803603810190610045919061046b565b610062565b604051610059939291906105d9565b60405180910390f35b61006a61010c565b610072610170565b61007a61018a565b60008690506000869050600086905060028360800151146100d0576040517f08c379a00000000000000000000000000000000000000000000000000000000081526004016100c79061066f565b60405180910390fd5b60028360800151036100f7576001836080018181516100ef91906106be565b915081815250505b82828295509550955050505093509350939050565b6040518060c0016040528060008152602001600073ffffffffffffffffffffffffffffffffffffffff168152602001600073ffffffffffffffffffffffffffffffffffffffff16815260200160008152602001600081526020016000151581525090565b604051806040016040528060008152602001600081525090565b60405180606001604052806000815260200160008152602001600081525090565b6000604051905090565b600080fd5b600080fd5b6000601f19601f8301169050919050565b7f4e487b7100000000000000000000000000000000000000000000000000000000600052604160045260246000fd5b610208826101bf565b810181811067ffffffffffffffff82111715610227576102266101d0565b5b80604052505050565b600061023a6101ab565b905061024682826101ff565b919050565b6000819050919050565b61025e8161024b565b811461026957600080fd5b50565b60008135905061027b81610255565b92915050565b600073ffffffffffffffffffffffffffffffffffffffff82169050919050565b60006102ac82610281565b9050919050565b6102bc816102a1565b81146102c757600080fd5b50565b6000813590506102d9816102b3565b92915050565b60008115159050919050565b6102f4816102df565b81146102ff57600080fd5b50565b600081359050610311816102eb565b92915050565b600060c0828403121561032d5761032c6101ba565b5b61033760c0610230565b905060006103478482850161026c565b600083015250602061035b848285016102ca565b602083015250604061036f848285016102ca565b60408301525060606103838482850161026c565b60608301525060806103978482850161026c565b60808301525060a06103ab84828501610302565b60a08301525092915050565b6000604082840312156103cd576103cc6101ba565b5b6103d76040610230565b905060006103e78482850161026c565b60008301525060206103fb8482850161026c565b60208301525092915050565b60006060828403121561041d5761041c6101ba565b5b6104276060610230565b905060006104378482850161026c565b600083015250602061044b8482850161026c565b602083015250604061045f8482850161026c565b60408301525092915050565b60008060006101608486031215610485576104846101b5565b5b600061049386828701610317565b93505060c06104a4868287016103b7565b9250506101006104b686828701610407565b9150509250925092565b6104c98161024b565b82525050565b6104d8816102a1565b82525050565b6104e7816102df565b82525050565b60c08201600082015161050360008501826104c0565b50602082015161051660208501826104cf565b50604082015161052960408501826104cf565b50606082015161053c60608501826104c0565b50608082015161054f60808501826104c0565b5060a082015161056260a08501826104de565b50505050565b60408201600082015161057e60008501826104c0565b50602082015161059160208501826104c0565b50505050565b6060820160008201516105ad60008501826104c0565b5060208201516105c060208501826104c0565b5060408201516105d360408501826104c0565b50505050565b6000610160820190506105ef60008301866104ed565b6105fc60c0830185610568565b61060a610100830184610597565b949350505050565b600082825260208201905092915050565b7f54616d696b6f206e6565647320746f206265206c6576656c2032000000000000600082015250565b6000610659601a83610612565b915061066482610623565b602082019050919050565b600060208201905081810360008301526106888161064c565b9050919050565b7f4e487b7100000000000000000000000000000000000000000000000000000000600052601160045260246000fd5b60006106c98261024b565b91506106d48361024b565b9250827fffffffffffffffffffffffffffffffffffffffffffffffffffffffffffffffff038211156107095761070861068f565b5b82820190509291505056fea264697066735822122044c4d82c1545995899d855fc950e4e076150146246e29a9cf2a83338f82fed4b64736f6c634300080e0033",
  "devdoc": {
    "kind": "dev",
    "methods": {},
    "version": 1
  },
  "userdoc": {
    "kind": "user",
    "methods": {},
    "version": 1
  },
  "storageLayout": {
    "storage": [],
    "types": null
  }
}