{
  "address": "0xa513E6E4b8f2a923D98304ec87F64353C4D5C853",
  "abi": [
    {
      "inputs": [
        {
          "internalType": "address",
          "name": "_tamikoRendererAddress",
          "type": "address"
        },
        {
          "internalType": "address",
          "name": "_tamikoStoreAddress",
          "type": "address"
        },
        {
          "internalType": "address",
          "name": "_tamikoLinkAddress",
          "type": "address"
        },
        {
          "internalType": "address",
          "name": "_foodContractAddress",
          "type": "address"
        },
        {
          "internalType": "address",
          "name": "_magicPotionContractAddress",
          "type": "address"
        },
        {
          "internalType": "address",
          "name": "_reviveAddress",
          "type": "address"
        }
      ],
      "stateMutability": "nonpayable",
      "type": "constructor"
    },
    {
      "inputs": [],
      "name": "ApprovalCallerNotOwnerNorApproved",
      "type": "error"
    },
    {
      "inputs": [],
      "name": "ApprovalQueryForNonexistentToken",
      "type": "error"
    },
    {
      "inputs": [],
      "name": "ApproveToCaller",
      "type": "error"
    },
    {
      "inputs": [],
      "name": "BalanceQueryForZeroAddress",
      "type": "error"
    },
    {
      "inputs": [],
      "name": "ExceedingSupply",
      "type": "error"
    },
    {
      "inputs": [],
      "name": "HasStartedHatching",
      "type": "error"
    },
    {
      "inputs": [],
      "name": "MintERC2309QuantityExceedsLimit",
      "type": "error"
    },
    {
      "inputs": [],
      "name": "MintToZeroAddress",
      "type": "error"
    },
    {
      "inputs": [],
      "name": "MintZeroQuantity",
      "type": "error"
    },
    {
      "inputs": [],
      "name": "NonExistentTamiko",
      "type": "error"
    },
    {
      "inputs": [],
      "name": "NotFromTamikoLinkContract",
      "type": "error"
    },
    {
      "inputs": [],
      "name": "NotFromTamikoStoreContract",
      "type": "error"
    },
    {
      "inputs": [],
      "name": "NotTamikoOwner",
      "type": "error"
    },
    {
      "inputs": [],
      "name": "OnlyOneMintAllowed",
      "type": "error"
    },
    {
      "inputs": [],
      "name": "OwnerQueryForNonexistentToken",
      "type": "error"
    },
    {
      "inputs": [],
      "name": "OwnershipNotInitializedForExtraData",
      "type": "error"
    },
    {
      "inputs": [],
      "name": "TransferCallerNotOwnerNorApproved",
      "type": "error"
    },
    {
      "inputs": [],
      "name": "TransferFromIncorrectOwner",
      "type": "error"
    },
    {
      "inputs": [],
      "name": "TransferToNonERC721ReceiverImplementer",
      "type": "error"
    },
    {
      "inputs": [],
      "name": "TransferToZeroAddress",
      "type": "error"
    },
    {
      "inputs": [],
      "name": "URIQueryForNonexistentToken",
      "type": "error"
    },
    {
      "anonymous": false,
      "inputs": [
        {
          "indexed": true,
          "internalType": "address",
          "name": "owner",
          "type": "address"
        },
        {
          "indexed": true,
          "internalType": "address",
          "name": "approved",
          "type": "address"
        },
        {
          "indexed": true,
          "internalType": "uint256",
          "name": "tokenId",
          "type": "uint256"
        }
      ],
      "name": "Approval",
      "type": "event"
    },
    {
      "anonymous": false,
      "inputs": [
        {
          "indexed": true,
          "internalType": "address",
          "name": "owner",
          "type": "address"
        },
        {
          "indexed": true,
          "internalType": "address",
          "name": "operator",
          "type": "address"
        },
        {
          "indexed": false,
          "internalType": "bool",
          "name": "approved",
          "type": "bool"
        }
      ],
      "name": "ApprovalForAll",
      "type": "event"
    },
    {
      "anonymous": false,
      "inputs": [
        {
          "indexed": true,
          "internalType": "uint256",
          "name": "fromTokenId",
          "type": "uint256"
        },
        {
          "indexed": false,
          "internalType": "uint256",
          "name": "toTokenId",
          "type": "uint256"
        },
        {
          "indexed": true,
          "internalType": "address",
          "name": "from",
          "type": "address"
        },
        {
          "indexed": true,
          "internalType": "address",
          "name": "to",
          "type": "address"
        }
      ],
      "name": "ConsecutiveTransfer",
      "type": "event"
    },
    {
      "anonymous": false,
      "inputs": [
        {
          "indexed": true,
          "internalType": "address",
          "name": "previousOwner",
          "type": "address"
        },
        {
          "indexed": true,
          "internalType": "address",
          "name": "newOwner",
          "type": "address"
        }
      ],
      "name": "OwnershipTransferred",
      "type": "event"
    },
    {
      "anonymous": false,
      "inputs": [
        {
          "indexed": true,
          "internalType": "address",
          "name": "from",
          "type": "address"
        },
        {
          "indexed": true,
          "internalType": "address",
          "name": "to",
          "type": "address"
        },
        {
          "indexed": true,
          "internalType": "uint256",
          "name": "tokenId",
          "type": "uint256"
        }
      ],
      "name": "Transfer",
      "type": "event"
    },
    {
      "inputs": [
        {
          "internalType": "uint256",
          "name": "",
          "type": "uint256"
        }
      ],
      "name": "ELEMENTS",
      "outputs": [
        {
          "internalType": "string",
          "name": "",
          "type": "string"
        }
      ],
      "stateMutability": "view",
      "type": "function"
    },
    {
      "inputs": [],
      "name": "MAX_MINTABLE",
      "outputs": [
        {
          "internalType": "uint8",
          "name": "",
          "type": "uint8"
        }
      ],
      "stateMutability": "view",
      "type": "function"
    },
    {
      "inputs": [],
      "name": "MAX_SUPPLY",
      "outputs": [
        {
          "internalType": "uint8",
          "name": "",
          "type": "uint8"
        }
      ],
      "stateMutability": "view",
      "type": "function"
    },
    {
      "inputs": [
        {
          "internalType": "address",
          "name": "_contractAddress",
          "type": "address"
        }
      ],
      "name": "addNewItemContract",
      "outputs": [],
      "stateMutability": "nonpayable",
      "type": "function"
    },
    {
      "inputs": [
        {
          "internalType": "address",
          "name": "_address",
          "type": "address"
        }
      ],
      "name": "airdrop",
      "outputs": [],
      "stateMutability": "nonpayable",
      "type": "function"
    },
    {
      "inputs": [
        {
          "internalType": "address",
          "name": "to",
          "type": "address"
        },
        {
          "internalType": "uint256",
          "name": "tokenId",
          "type": "uint256"
        }
      ],
      "name": "approve",
      "outputs": [],
      "stateMutability": "nonpayable",
      "type": "function"
    },
    {
      "inputs": [
        {
          "internalType": "address",
          "name": "owner",
          "type": "address"
        }
      ],
      "name": "balanceOf",
      "outputs": [
        {
          "internalType": "uint256",
          "name": "",
          "type": "uint256"
        }
      ],
      "stateMutability": "view",
      "type": "function"
    },
    {
      "inputs": [],
      "name": "description",
      "outputs": [
        {
          "internalType": "string",
          "name": "",
          "type": "string"
        }
      ],
      "stateMutability": "view",
      "type": "function"
    },
    {
      "inputs": [
        {
          "internalType": "uint256",
          "name": "tokenId",
          "type": "uint256"
        }
      ],
      "name": "getApproved",
      "outputs": [
        {
          "internalType": "address",
          "name": "",
          "type": "address"
        }
      ],
      "stateMutability": "view",
      "type": "function"
    },
    {
      "inputs": [
        {
          "internalType": "address",
          "name": "",
          "type": "address"
        }
      ],
      "name": "hasAddressMinted",
      "outputs": [
        {
          "internalType": "bool",
          "name": "",
          "type": "bool"
        }
      ],
      "stateMutability": "view",
      "type": "function"
    },
    {
      "inputs": [
        {
          "internalType": "address",
          "name": "owner",
          "type": "address"
        },
        {
          "internalType": "address",
          "name": "operator",
          "type": "address"
        }
      ],
      "name": "isApprovedForAll",
      "outputs": [
        {
          "internalType": "bool",
          "name": "",
          "type": "bool"
        }
      ],
      "stateMutability": "view",
      "type": "function"
    },
    {
      "inputs": [
        {
          "internalType": "uint256",
          "name": "_tokenId",
          "type": "uint256"
        }
      ],
      "name": "isTamikoDead",
      "outputs": [
        {
          "internalType": "bool",
          "name": "",
          "type": "bool"
        }
      ],
      "stateMutability": "view",
      "type": "function"
    },
    {
      "inputs": [
        {
          "internalType": "uint256",
          "name": "",
          "type": "uint256"
        }
      ],
      "name": "itemContracts",
      "outputs": [
        {
          "internalType": "contract ITamikoItem",
          "name": "",
          "type": "address"
        }
      ],
      "stateMutability": "view",
      "type": "function"
    },
    {
      "inputs": [],
      "name": "mint",
      "outputs": [],
      "stateMutability": "payable",
      "type": "function"
    },
    {
      "inputs": [],
      "name": "name",
      "outputs": [
        {
          "internalType": "string",
          "name": "",
          "type": "string"
        }
      ],
      "stateMutability": "view",
      "type": "function"
    },
    {
      "inputs": [],
      "name": "owner",
      "outputs": [
        {
          "internalType": "address",
          "name": "",
          "type": "address"
        }
      ],
      "stateMutability": "view",
      "type": "function"
    },
    {
      "inputs": [
        {
          "internalType": "uint256",
          "name": "tokenId",
          "type": "uint256"
        }
      ],
      "name": "ownerOf",
      "outputs": [
        {
          "internalType": "address",
          "name": "",
          "type": "address"
        }
      ],
      "stateMutability": "view",
      "type": "function"
    },
    {
      "inputs": [
        {
          "internalType": "address",
          "name": "",
          "type": "address"
        }
      ],
      "name": "players",
      "outputs": [
        {
          "internalType": "uint256",
          "name": "",
          "type": "uint256"
        }
      ],
      "stateMutability": "view",
      "type": "function"
    },
    {
      "inputs": [
        {
          "internalType": "uint256",
          "name": "_tokenId",
          "type": "uint256"
        },
        {
          "internalType": "uint256",
          "name": "_itemId",
          "type": "uint256"
        },
        {
          "internalType": "uint256",
          "name": "_quantity",
          "type": "uint256"
        },
        {
          "internalType": "address",
          "name": "_from",
          "type": "address"
        }
      ],
      "name": "receivedTamikoStoreItem",
      "outputs": [],
      "stateMutability": "nonpayable",
      "type": "function"
    },
    {
      "inputs": [],
      "name": "renounceOwnership",
      "outputs": [],
      "stateMutability": "nonpayable",
      "type": "function"
    },
    {
      "inputs": [
        {
          "internalType": "address",
          "name": "from",
          "type": "address"
        },
        {
          "internalType": "address",
          "name": "to",
          "type": "address"
        },
        {
          "internalType": "uint256",
          "name": "tokenId",
          "type": "uint256"
        }
      ],
      "name": "safeTransferFrom",
      "outputs": [],
      "stateMutability": "nonpayable",
      "type": "function"
    },
    {
      "inputs": [
        {
          "internalType": "address",
          "name": "from",
          "type": "address"
        },
        {
          "internalType": "address",
          "name": "to",
          "type": "address"
        },
        {
          "internalType": "uint256",
          "name": "tokenId",
          "type": "uint256"
        },
        {
          "internalType": "bytes",
          "name": "_data",
          "type": "bytes"
        }
      ],
      "name": "safeTransferFrom",
      "outputs": [],
      "stateMutability": "nonpayable",
      "type": "function"
    },
    {
      "inputs": [
        {
          "internalType": "address",
          "name": "operator",
          "type": "address"
        },
        {
          "internalType": "bool",
          "name": "approved",
          "type": "bool"
        }
      ],
      "name": "setApprovalForAll",
      "outputs": [],
      "stateMutability": "nonpayable",
      "type": "function"
    },
    {
      "inputs": [
        {
          "internalType": "address",
          "name": "_tamikoStoreAddress",
          "type": "address"
        }
      ],
      "name": "setTamikoStore",
      "outputs": [],
      "stateMutability": "nonpayable",
      "type": "function"
    },
    {
      "inputs": [
        {
          "internalType": "uint256",
          "name": "",
          "type": "uint256"
        }
      ],
      "name": "skills",
      "outputs": [
        {
          "internalType": "uint256",
          "name": "power",
          "type": "uint256"
        },
        {
          "internalType": "uint256",
          "name": "speed",
          "type": "uint256"
        },
        {
          "internalType": "uint256",
          "name": "defense",
          "type": "uint256"
        }
      ],
      "stateMutability": "view",
      "type": "function"
    },
    {
      "inputs": [
        {
          "internalType": "uint256",
          "name": "_tokenId",
          "type": "uint256"
        }
      ],
      "name": "startHatchingProcess",
      "outputs": [],
      "stateMutability": "nonpayable",
      "type": "function"
    },
    {
      "inputs": [
        {
          "internalType": "bytes4",
          "name": "interfaceId",
          "type": "bytes4"
        }
      ],
      "name": "supportsInterface",
      "outputs": [
        {
          "internalType": "bool",
          "name": "",
          "type": "bool"
        }
      ],
      "stateMutability": "view",
      "type": "function"
    },
    {
      "inputs": [],
      "name": "symbol",
      "outputs": [
        {
          "internalType": "string",
          "name": "",
          "type": "string"
        }
      ],
      "stateMutability": "view",
      "type": "function"
    },
    {
      "inputs": [],
      "name": "tamikoLinkAddress",
      "outputs": [
        {
          "internalType": "address",
          "name": "",
          "type": "address"
        }
      ],
      "stateMutability": "view",
      "type": "function"
    },
    {
      "inputs": [],
      "name": "tamikoStoreAddress",
      "outputs": [
        {
          "internalType": "address",
          "name": "",
          "type": "address"
        }
      ],
      "stateMutability": "view",
      "type": "function"
    },
    {
      "inputs": [
        {
          "internalType": "uint256",
          "name": "",
          "type": "uint256"
        }
      ],
      "name": "tamikos",
      "outputs": [
        {
          "internalType": "uint256",
          "name": "seed",
          "type": "uint256"
        },
        {
          "internalType": "address",
          "name": "breeder",
          "type": "address"
        },
        {
          "internalType": "address",
          "name": "hatcher",
          "type": "address"
        },
        {
          "internalType": "uint256",
          "name": "element",
          "type": "uint256"
        },
        {
          "internalType": "uint256",
          "name": "level",
          "type": "uint256"
        },
        {
          "internalType": "bool",
          "name": "isAliveForever",
          "type": "bool"
        }
      ],
      "stateMutability": "view",
      "type": "function"
    },
    {
      "inputs": [
        {
          "internalType": "uint256",
          "name": "",
          "type": "uint256"
        }
      ],
      "name": "timings",
      "outputs": [
        {
          "internalType": "uint256",
          "name": "lastFed",
          "type": "uint256"
        },
        {
          "internalType": "uint256",
          "name": "hatchDate",
          "type": "uint256"
        }
      ],
      "stateMutability": "view",
      "type": "function"
    },
    {
      "inputs": [
        {
          "internalType": "uint256",
          "name": "_tokenId",
          "type": "uint256"
        }
      ],
      "name": "tokenURI",
      "outputs": [
        {
          "internalType": "string",
          "name": "",
          "type": "string"
        }
      ],
      "stateMutability": "view",
      "type": "function"
    },
    {
      "inputs": [],
      "name": "totalSupply",
      "outputs": [
        {
          "internalType": "uint256",
          "name": "",
          "type": "uint256"
        }
      ],
      "stateMutability": "view",
      "type": "function"
    },
    {
      "inputs": [
        {
          "internalType": "address",
          "name": "from",
          "type": "address"
        },
        {
          "internalType": "address",
          "name": "to",
          "type": "address"
        },
        {
          "internalType": "uint256",
          "name": "tokenId",
          "type": "uint256"
        }
      ],
      "name": "transferFrom",
      "outputs": [],
      "stateMutability": "nonpayable",
      "type": "function"
    },
    {
      "inputs": [
        {
          "internalType": "address",
          "name": "newOwner",
          "type": "address"
        }
      ],
      "name": "transferOwnership",
      "outputs": [],
      "stateMutability": "nonpayable",
      "type": "function"
    }
  ],
  "transactionHash": "0x0269d63c8245ccdb12f83625b87d6513d2f7afcd6b67015744c5b7e73fc2c451",
  "args": [
    "0x9fE46736679d2D9a65F0992F2272dE9f3c7fa6e0",
    "0xe7f1725E7734CE288F8367e1Bb143E90bb3F0512",
    "0xCf7Ed3AccA5a467e9e704C703E8D87F634fB0Fc9",
    "0xDc64a140Aa3E981100a9becA4E685f962f0cF6C9",
    "0x5FC8d32690cc91D4c39d9d3abcBD16989F875707",
    "0x0165878A594ca255338adfa4d48449f69242Eb8F"
  ],
  "numDeployments": 1,
  "solcInputHash": "6f9d2d8a46c987656ccfb103c9914abf",
  "bytecode": "0x60806040526040518060400160405280601d81526020017f54616d696b6f206973206375746520616e64206c696b657320666f6f64000000815250600990805190602001906200005192919062000713565b506040518061014001604052806040518060400160405280600781526020017f6e65757472616c0000000000000000000000000000000000000000000000000081525081526020016040518060400160405280600481526020017f666972650000000000000000000000000000000000000000000000000000000081525081526020016040518060400160405280600381526020017f627567000000000000000000000000000000000000000000000000000000000081525081526020016040518060400160405280600581526020017f776174657200000000000000000000000000000000000000000000000000000081525081526020016040518060400160405280600881526020017f656c65637472696300000000000000000000000000000000000000000000000081525081526020016040518060400160405280600581526020017f67686f737400000000000000000000000000000000000000000000000000000081525081526020016040518060400160405280600481526020017f6461726b0000000000000000000000000000000000000000000000000000000081525081526020016040518060400160405280600381526020017f696365000000000000000000000000000000000000000000000000000000000081525081526020016040518060400160405280600581526020017f677261737300000000000000000000000000000000000000000000000000000081525081526020016040518060400160405280600581526020017f6d61676963000000000000000000000000000000000000000000000000000000815250815250600f90600a620002bc929190620007a4565b50348015620002ca57600080fd5b5060405162004623380380620046238339818101604052810190620002f09190620008f5565b6040518060400160405280600681526020017f54616d696b6f00000000000000000000000000000000000000000000000000008152506040518060400160405280600681526020017f54414d494b4f000000000000000000000000000000000000000000000000000081525081600290805190602001906200037492919062000713565b5080600390805190602001906200038d92919062000713565b506200039e6200064060201b60201c565b6000819055505050620003c6620003ba6200064560201b60201c565b6200064d60201b60201c565b84600a60006101000a81548173ffffffffffffffffffffffffffffffffffffffff021916908373ffffffffffffffffffffffffffffffffffffffff16021790555083600b60006101000a81548173ffffffffffffffffffffffffffffffffffffffff021916908373ffffffffffffffffffffffffffffffffffffffff16021790555084600c60006101000a81548173ffffffffffffffffffffffffffffffffffffffff021916908373ffffffffffffffffffffffffffffffffffffffff16021790555085600d60006101000a81548173ffffffffffffffffffffffffffffffffffffffff021916908373ffffffffffffffffffffffffffffffffffffffff16021790555083600e60006101000a81548173ffffffffffffffffffffffffffffffffffffffff021916908373ffffffffffffffffffffffffffffffffffffffff1602179055506019839080600181540180825580915050600190039060005260206000200160009091909190916101000a81548173ffffffffffffffffffffffffffffffffffffffff021916908373ffffffffffffffffffffffffffffffffffffffff1602179055506019829080600181540180825580915050600190039060005260206000200160009091909190916101000a81548173ffffffffffffffffffffffffffffffffffffffff021916908373ffffffffffffffffffffffffffffffffffffffff1602179055506019819080600181540180825580915050600190039060005260206000200160009091909190916101000a81548173ffffffffffffffffffffffffffffffffffffffff021916908373ffffffffffffffffffffffffffffffffffffffff160217905550505050505050620009f5565b600090565b600033905090565b6000600860009054906101000a900473ffffffffffffffffffffffffffffffffffffffff16905081600860006101000a81548173ffffffffffffffffffffffffffffffffffffffff021916908373ffffffffffffffffffffffffffffffffffffffff1602179055508173ffffffffffffffffffffffffffffffffffffffff168173ffffffffffffffffffffffffffffffffffffffff167f8be0079c531659141344cd1fd0a4f28419497f9722a3daafe3b4186f6b6457e060405160405180910390a35050565b8280546200072190620009c0565b90600052602060002090601f01602090048101928262000745576000855562000791565b82601f106200076057805160ff191683800117855562000791565b8280016001018555821562000791579182015b828111156200079057825182559160200191906001019062000773565b5b509050620007a09190620007fe565b5090565b82600a8101928215620007eb579160200282015b82811115620007ea578251829080519060200190620007d992919062000713565b5091602001919060010190620007b8565b5b509050620007fa91906200081d565b5090565b5b8082111562000819576000816000905550600101620007ff565b5090565b5b8082111562000841576000818162000837919062000845565b506001016200081e565b5090565b5080546200085390620009c0565b6000825580601f1062000867575062000888565b601f016020900490600052602060002090810190620008879190620007fe565b5b50565b600080fd5b600073ffffffffffffffffffffffffffffffffffffffff82169050919050565b6000620008bd8262000890565b9050919050565b620008cf81620008b0565b8114620008db57600080fd5b50565b600081519050620008ef81620008c4565b92915050565b60008060008060008060c087890312156200091557620009146200088b565b5b60006200092589828a01620008de565b96505060206200093889828a01620008de565b95505060406200094b89828a01620008de565b94505060606200095e89828a01620008de565b93505060806200097189828a01620008de565b92505060a06200098489828a01620008de565b9150509295509295509295565b7f4e487b7100000000000000000000000000000000000000000000000000000000600052602260045260246000fd5b60006002820490506001821680620009d957607f821691505b602082108103620009ef57620009ee62000991565b5b50919050565b613c1e8062000a056000396000f3fe60806040526004361061020f5760003560e01c806370a0823111610118578063b88d4fde116100a0578063e1981bbc1161006f578063e1981bbc146107e2578063e2eb41ff1461080d578063e985e9c51461084a578063efaad97e14610887578063f2fde38b146108b05761020f565b8063b88d4fde14610716578063c87b56dd1461073f578063c94ccfc71461077c578063d03c2b71146107b95761020f565b80638da5cb5b116100e75780638da5cb5b1461063057806395d89b411461065b5780639610f69114610686578063a22cb465146106c4578063abce22e2146106ed5761020f565b806370a0823114610574578063715018a6146105b15780637284e416146105c8578063863474f1146105f35761020f565b80632e3d14771161019b578063426fff781161016a578063426fff781461046757806342842e0e146104a457806350d15fbe146104cd5780636352211e1461050c5780636447077e146105495761020f565b80632e3d14771461039257806332cb6b0c146103cf5780633f879faf146103fa5780634086d5ba146104255761020f565b80631249c58b116101e25780631249c58b146102e2578063146801b0146102ec57806318160ddd1461031557806321860a051461034057806323b872dd146103695761020f565b806301ffc9a71461021457806306fdde0314610251578063081812fc1461027c578063095ea7b3146102b9575b600080fd5b34801561022057600080fd5b5061023b600480360381019061023691906129f6565b6108d9565b6040516102489190612a3e565b60405180910390f35b34801561025d57600080fd5b5061026661096b565b6040516102739190612af2565b60405180910390f35b34801561028857600080fd5b506102a3600480360381019061029e9190612b4a565b6109fd565b6040516102b09190612bb8565b60405180910390f35b3480156102c557600080fd5b506102e060048036038101906102db9190612bff565b610a7c565b005b6102ea610bc0565b005b3480156102f857600080fd5b50610313600480360381019061030e9190612c3f565b610e3d565b005b34801561032157600080fd5b5061032a610eab565b6040516103379190612c7b565b60405180910390f35b34801561034c57600080fd5b5061036760048036038101906103629190612c3f565b610ec2565b005b34801561037557600080fd5b50610390600480360381019061038b9190612c96565b611001565b005b34801561039e57600080fd5b506103b960048036038101906103b49190612b4a565b611323565b6040516103c69190612d48565b60405180910390f35b3480156103db57600080fd5b506103e4611362565b6040516103f19190612d7f565b60405180910390f35b34801561040657600080fd5b5061040f611367565b60405161041c9190612d7f565b60405180910390f35b34801561043157600080fd5b5061044c60048036038101906104479190612b4a565b61136c565b60405161045e96959493929190612d9a565b60405180910390f35b34801561047357600080fd5b5061048e60048036038101906104899190612b4a565b6113f5565b60405161049b9190612af2565b60405180910390f35b3480156104b057600080fd5b506104cb60048036038101906104c69190612c96565b611498565b005b3480156104d957600080fd5b506104f460048036038101906104ef9190612b4a565b6114b8565b60405161050393929190612dfb565b60405180910390f35b34801561051857600080fd5b50610533600480360381019061052e9190612b4a565b6114e2565b6040516105409190612bb8565b60405180910390f35b34801561055557600080fd5b5061055e6114f4565b60405161056b9190612bb8565b60405180910390f35b34801561058057600080fd5b5061059b60048036038101906105969190612c3f565b61151a565b6040516105a89190612c7b565b60405180910390f35b3480156105bd57600080fd5b506105c66115d2565b005b3480156105d457600080fd5b506105dd6115e6565b6040516105ea9190612af2565b60405180910390f35b3480156105ff57600080fd5b5061061a60048036038101906106159190612b4a565b611674565b6040516106279190612a3e565b60405180910390f35b34801561063c57600080fd5b506106456116ff565b6040516106529190612bb8565b60405180910390f35b34801561066757600080fd5b50610670611729565b60405161067d9190612af2565b60405180910390f35b34801561069257600080fd5b506106ad60048036038101906106a89190612b4a565b6117bb565b6040516106bb929190612e32565b60405180910390f35b3480156106d057600080fd5b506106eb60048036038101906106e69190612e87565b6117df565b005b3480156106f957600080fd5b50610714600480360381019061070f9190612b4a565b611956565b005b34801561072257600080fd5b5061073d60048036038101906107389190612ffc565b611b68565b005b34801561074b57600080fd5b5061076660048036038101906107619190612b4a565b611bdb565b6040516107739190612af2565b60405180910390f35b34801561078857600080fd5b506107a3600480360381019061079e9190612c3f565b611d01565b6040516107b09190612a3e565b60405180910390f35b3480156107c557600080fd5b506107e060048036038101906107db919061307f565b611d21565b005b3480156107ee57600080fd5b506107f7612059565b6040516108049190612bb8565b60405180910390f35b34801561081957600080fd5b50610834600480360381019061082f9190612c3f565b61207f565b6040516108419190612c7b565b60405180910390f35b34801561085657600080fd5b50610871600480360381019061086c91906130e6565b612097565b60405161087e9190612a3e565b60405180910390f35b34801561089357600080fd5b506108ae60048036038101906108a99190612c3f565b61212b565b005b3480156108bc57600080fd5b506108d760048036038101906108d29190612c3f565b6121b8565b005b60006301ffc9a760e01b827bffffffffffffffffffffffffffffffffffffffffffffffffffffffff1916148061093457506380ac58cd60e01b827bffffffffffffffffffffffffffffffffffffffffffffffffffffffff1916145b806109645750635b5e139f60e01b827bffffffffffffffffffffffffffffffffffffffffffffffffffffffff1916145b9050919050565b60606002805461097a90613155565b80601f01602080910402602001604051908101604052809291908181526020018280546109a690613155565b80156109f35780601f106109c8576101008083540402835291602001916109f3565b820191906000526020600020905b8154815290600101906020018083116109d657829003601f168201915b5050505050905090565b6000610a088261223b565b610a3e576040517fcf4700e400000000000000000000000000000000000000000000000000000000815260040160405180910390fd5b6006600083815260200190815260200160002060000160009054906101000a900473ffffffffffffffffffffffffffffffffffffffff169050919050565b6000610a87826114e2565b90508073ffffffffffffffffffffffffffffffffffffffff16610aa861229a565b73ffffffffffffffffffffffffffffffffffffffff1614610b0b57610ad481610acf61229a565b612097565b610b0a576040517fcfb3b94200000000000000000000000000000000000000000000000000000000815260040160405180910390fd5b5b826006600084815260200190815260200160002060000160006101000a81548173ffffffffffffffffffffffffffffffffffffffff021916908373ffffffffffffffffffffffffffffffffffffffff160217905550818373ffffffffffffffffffffffffffffffffffffffff168273ffffffffffffffffffffffffffffffffffffffff167f8c5be1e5ebec7d5bd14f71427d1e84f3dd0314c0f7b2291e5b200ac8c7c3b92560405160405180910390a4505050565b60011515601e60003373ffffffffffffffffffffffffffffffffffffffff1673ffffffffffffffffffffffffffffffffffffffff16815260200190815260200160002060009054906101000a900460ff16151503610c4a576040517f88a3951f00000000000000000000000000000000000000000000000000000000815260040160405180910390fd5b606460ff166001610c596122a2565b610c6391906131b5565b1115610c9b576040517f1cf40df000000000000000000000000000000000000000000000000000000000815260040160405180910390fd5b6000610ca56122b5565b9050610cb23360016122be565b6001601e60003373ffffffffffffffffffffffffffffffffffffffff1673ffffffffffffffffffffffffffffffffffffffff16815260200190815260200160002060006101000a81548160ff021916908315150217905550600c60009054906101000a900473ffffffffffffffffffffffffffffffffffffffff1673ffffffffffffffffffffffffffffffffffffffff16631e2e8c95600a6000336040518463ffffffff1660e01b8152600401610d6b93929190613281565b600060405180830381600087803b158015610d8557600080fd5b505af1158015610d99573d6000803e3d6000fd5b50505050803342604051602001610db293929190613321565b6040516020818303038152906040528051906020012060001c601a60008381526020019081526020016000206000018190555033601a600083815260200190815260200160002060010160006101000a81548173ffffffffffffffffffffffffffffffffffffffff021916908373ffffffffffffffffffffffffffffffffffffffff16021790555050565b610e45612479565b6019819080600181540180825580915050600190039060005260206000200160009091909190916101000a81548173ffffffffffffffffffffffffffffffffffffffff021916908373ffffffffffffffffffffffffffffffffffffffff16021790555050565b6000610eb56124f7565b6001546000540303905090565b600b60009054906101000a900473ffffffffffffffffffffffffffffffffffffffff1673ffffffffffffffffffffffffffffffffffffffff163373ffffffffffffffffffffffffffffffffffffffff1614610f49576040517fb661396d00000000000000000000000000000000000000000000000000000000815260040160405180910390fd5b6000610f536122b5565b9050610f608260016122be565b808242604051602001610f7593929190613321565b6040516020818303038152906040528051906020012060001c601a60008381526020019081526020016000206000018190555081601a600083815260200190815260200160002060010160006101000a81548173ffffffffffffffffffffffffffffffffffffffff021916908373ffffffffffffffffffffffffffffffffffffffff1602179055505050565b600061100c826124fc565b90508373ffffffffffffffffffffffffffffffffffffffff168173ffffffffffffffffffffffffffffffffffffffff1614611073576040517fa114810000000000000000000000000000000000000000000000000000000000815260040160405180910390fd5b60008061107f846125c8565b91509150611095818761109061229a565b6125ef565b6110e1576110aa866110a561229a565b612097565b6110e0576040517f59c896be00000000000000000000000000000000000000000000000000000000815260040160405180910390fd5b5b600073ffffffffffffffffffffffffffffffffffffffff168573ffffffffffffffffffffffffffffffffffffffff1603611147576040517fea553b3400000000000000000000000000000000000000000000000000000000815260040160405180910390fd5b6111548686866001612633565b801561115f57600082555b600560008773ffffffffffffffffffffffffffffffffffffffff1673ffffffffffffffffffffffffffffffffffffffff168152602001908152602001600020600081546001900391905081905550600560008673ffffffffffffffffffffffffffffffffffffffff1673ffffffffffffffffffffffffffffffffffffffff168152602001908152602001600020600081546001019190508190555061122d85611209888887612639565b7c020000000000000000000000000000000000000000000000000000000017612661565b600460008681526020019081526020016000208190555060007c02000000000000000000000000000000000000000000000000000000008416036112b357600060018501905060006004600083815260200190815260200160002054036112b15760005481146112b0578360046000838152602001908152602001600020819055505b5b505b838573ffffffffffffffffffffffffffffffffffffffff168773ffffffffffffffffffffffffffffffffffffffff167fddf252ad1be2c89b69c2b068fc378daa952ba7f163c4a11628f55a4df523b3ef60405160405180910390a461131b868686600161268c565b505050505050565b6019818154811061133357600080fd5b906000526020600020016000915054906101000a900473ffffffffffffffffffffffffffffffffffffffff1681565b60c881565b606481565b601a6020528060005260406000206000915090508060000154908060010160009054906101000a900473ffffffffffffffffffffffffffffffffffffffff16908060020160009054906101000a900473ffffffffffffffffffffffffffffffffffffffff16908060030154908060040154908060050160009054906101000a900460ff16905086565b600f81600a811061140557600080fd5b01600091509050805461141790613155565b80601f016020809104026020016040519081016040528092919081815260200182805461144390613155565b80156114905780601f1061146557610100808354040283529160200191611490565b820191906000526020600020905b81548152906001019060200180831161147357829003601f168201915b505050505081565b6114b383838360405180602001604052806000815250611b68565b505050565b601b6020528060005260406000206000915090508060000154908060010154908060020154905083565b60006114ed826124fc565b9050919050565b600a60009054906101000a900473ffffffffffffffffffffffffffffffffffffffff1681565b60008073ffffffffffffffffffffffffffffffffffffffff168273ffffffffffffffffffffffffffffffffffffffff1603611581576040517f8f4eb60400000000000000000000000000000000000000000000000000000000815260040160405180910390fd5b67ffffffffffffffff600560008473ffffffffffffffffffffffffffffffffffffffff1673ffffffffffffffffffffffffffffffffffffffff16815260200190815260200160002054169050919050565b6115da612479565b6115e46000612692565b565b600980546115f390613155565b80601f016020809104026020016040519081016040528092919081815260200182805461161f90613155565b801561166c5780601f106116415761010080835404028352916020019161166c565b820191906000526020600020905b81548152906001019060200180831161164f57829003601f168201915b505050505081565b60008161167f610eab565b81106116b7576040517fe57e033a00000000000000000000000000000000000000000000000000000000815260040160405180910390fd5b6000601c60008581526020019081526020016000206040518060400160405290816000820154815260200160018201548152505090506116f681612758565b92505050919050565b6000600860009054906101000a900473ffffffffffffffffffffffffffffffffffffffff16905090565b60606003805461173890613155565b80601f016020809104026020016040519081016040528092919081815260200182805461176490613155565b80156117b15780601f10611786576101008083540402835291602001916117b1565b820191906000526020600020905b81548152906001019060200180831161179457829003601f168201915b5050505050905090565b601c6020528060005260406000206000915090508060000154908060010154905082565b6117e761229a565b73ffffffffffffffffffffffffffffffffffffffff168273ffffffffffffffffffffffffffffffffffffffff160361184b576040517fb06307db00000000000000000000000000000000000000000000000000000000815260040160405180910390fd5b806007600061185861229a565b73ffffffffffffffffffffffffffffffffffffffff1673ffffffffffffffffffffffffffffffffffffffff16815260200190815260200160002060008473ffffffffffffffffffffffffffffffffffffffff1673ffffffffffffffffffffffffffffffffffffffff16815260200190815260200160002060006101000a81548160ff0219169083151502179055508173ffffffffffffffffffffffffffffffffffffffff1661190561229a565b73ffffffffffffffffffffffffffffffffffffffff167f17307eab39ab6107e8899845ad3d59bd9653f200f220920489ca2b5937696c318360405161194a9190612a3e565b60405180910390a35050565b8061195f610eab565b8110611997576040517fe57e033a00000000000000000000000000000000000000000000000000000000815260040160405180910390fd5b813373ffffffffffffffffffffffffffffffffffffffff166119b8826114e2565b73ffffffffffffffffffffffffffffffffffffffff1614611a05576040517fd497481100000000000000000000000000000000000000000000000000000000815260040160405180910390fd5b826000601c6000838152602001908152602001600020600101541115611a57576040517f2d91267f00000000000000000000000000000000000000000000000000000000815260040160405180910390fd5b611abc6040518060400160405280600781526020017f656c656d656e7400000000000000000000000000000000000000000000000000815250601a60008781526020019081526020016000206000015460006001600a611ab791906131b5565b612786565b601a60008681526020019081526020016000206003018190555033601a600086815260200190815260200160002060020160006101000a81548173ffffffffffffffffffffffffffffffffffffffff021916908373ffffffffffffffffffffffffffffffffffffffff1602179055506001601a60008681526020019081526020016000206004018190555042601c60008681526020019081526020016000206001018190555050505050565b611b73848484611001565b60008373ffffffffffffffffffffffffffffffffffffffff163b14611bd557611b9e848484846127ef565b611bd4576040517fd1a57ed600000000000000000000000000000000000000000000000000000000815260040160405180910390fd5b5b50505050565b606081611be6610eab565b8110611c1e576040517fe57e033a00000000000000000000000000000000000000000000000000000000815260040160405180910390fd5b600d60009054906101000a900473ffffffffffffffffffffffffffffffffffffffff1673ffffffffffffffffffffffffffffffffffffffff1663ad6e07d4601a6000868152602001908152602001600020601c6000878152602001908152602001600020601b60008881526020019081526020016000206040518463ffffffff1660e01b8152600401611cb393929190613588565b600060405180830381865afa158015611cd0573d6000803e3d6000fd5b505050506040513d6000823e3d601f19601f82011682018060405250810190611cf99190613662565b915050919050565b601e6020528060005260406000206000915054906101000a900460ff1681565b83611d2a610eab565b8110611d62576040517fe57e033a00000000000000000000000000000000000000000000000000000000815260040160405180910390fd5b600a60009054906101000a900473ffffffffffffffffffffffffffffffffffffffff1673ffffffffffffffffffffffffffffffffffffffff163373ffffffffffffffffffffffffffffffffffffffff1614611de9576040517ff0e53eac00000000000000000000000000000000000000000000000000000000815260040160405180910390fd5b600080600060198781548110611e0257611e016136ab565b5b9060005260206000200160009054906101000a900473ffffffffffffffffffffffffffffffffffffffff1673ffffffffffffffffffffffffffffffffffffffff16638cbde2c7601a60008b8152602001908152602001600020601c60008c8152602001908152602001600020601b60008d81526020019081526020016000206040518463ffffffff1660e01b8152600401611e9f93929190613588565b61016060405180830381865afa158015611ebd573d6000803e3d6000fd5b505050506040513d601f19601f82011682018060405250810190611ee19190613872565b9250925092508260200151601a60008a815260200190815260200160002060010160006101000a81548173ffffffffffffffffffffffffffffffffffffffff021916908373ffffffffffffffffffffffffffffffffffffffff1602179055508260800151601a60008a8152602001908152602001600020600401819055508260000151601a60008a8152602001908152602001600020600001819055508160000151601c60008a8152602001908152602001600020600001819055508060000151601b60008a8152602001908152602001600020600001819055508060200151601b60008a8152602001908152602001600020600101819055508060400151601b60008a815260200190815260200160002060020181905550601d60008673ffffffffffffffffffffffffffffffffffffffff1673ffffffffffffffffffffffffffffffffffffffff168152602001908152602001600020600081548092919061204a906138c7565b91905055505050505050505050565b600b60009054906101000a900473ffffffffffffffffffffffffffffffffffffffff1681565b601d6020528060005260406000206000915090505481565b6000600760008473ffffffffffffffffffffffffffffffffffffffff1673ffffffffffffffffffffffffffffffffffffffff16815260200190815260200160002060008373ffffffffffffffffffffffffffffffffffffffff1673ffffffffffffffffffffffffffffffffffffffff16815260200190815260200160002060009054906101000a900460ff16905092915050565b612133612479565b80600a60006101000a81548173ffffffffffffffffffffffffffffffffffffffff021916908373ffffffffffffffffffffffffffffffffffffffff16021790555080600c60006101000a81548173ffffffffffffffffffffffffffffffffffffffff021916908373ffffffffffffffffffffffffffffffffffffffff16021790555050565b6121c0612479565b600073ffffffffffffffffffffffffffffffffffffffff168173ffffffffffffffffffffffffffffffffffffffff160361222f576040517f08c379a000000000000000000000000000000000000000000000000000000000815260040161222690613981565b60405180910390fd5b61223881612692565b50565b6000816122466124f7565b11158015612255575060005482105b8015612293575060007c0100000000000000000000000000000000000000000000000000000000600460008581526020019081526020016000205416145b9050919050565b600033905090565b60006122ac6124f7565b60005403905090565b60008054905090565b600080549050600082036122fe576040517fb562e8dd00000000000000000000000000000000000000000000000000000000815260040160405180910390fd5b61230b6000848385612633565b600160406001901b178202600560008573ffffffffffffffffffffffffffffffffffffffff1673ffffffffffffffffffffffffffffffffffffffff16815260200190815260200160002060008282540192505081905550612382836123736000866000612639565b61237c8561293f565b17612661565b6004600083815260200190815260200160002081905550600080838301905073ffffffffffffffffffffffffffffffffffffffff85169150828260007fddf252ad1be2c89b69c2b068fc378daa952ba7f163c4a11628f55a4df523b3ef600080a4600183015b81811461242357808360007fddf252ad1be2c89b69c2b068fc378daa952ba7f163c4a11628f55a4df523b3ef600080a46001810190506123e8565b506000820361245e576040517f2e07630000000000000000000000000000000000000000000000000000000000815260040160405180910390fd5b806000819055505050612474600084838561268c565b505050565b61248161294f565b73ffffffffffffffffffffffffffffffffffffffff1661249f6116ff565b73ffffffffffffffffffffffffffffffffffffffff16146124f5576040517f08c379a00000000000000000000000000000000000000000000000000000000081526004016124ec906139ed565b60405180910390fd5b565b600090565b6000808290508061250b6124f7565b11612591576000548110156125905760006004600083815260200190815260200160002054905060007c010000000000000000000000000000000000000000000000000000000082160361258e575b6000810361258457600460008360019003935083815260200190815260200160002054905061255a565b80925050506125c3565b505b5b6040517fdf2d9b4200000000000000000000000000000000000000000000000000000000815260040160405180910390fd5b919050565b60008060006006600085815260200190815260200160002090508092508254915050915091565b600073ffffffffffffffffffffffffffffffffffffffff8316925073ffffffffffffffffffffffffffffffffffffffff821691508382148383141790509392505050565b50505050565b60008060e883901c905060e8612650868684612957565b62ffffff16901b9150509392505050565b600073ffffffffffffffffffffffffffffffffffffffff83169250814260a01b178317905092915050565b50505050565b6000600860009054906101000a900473ffffffffffffffffffffffffffffffffffffffff16905081600860006101000a81548173ffffffffffffffffffffffffffffffffffffffff021916908373ffffffffffffffffffffffffffffffffffffffff1602179055508173ffffffffffffffffffffffffffffffffffffffff168173ffffffffffffffffffffffffffffffffffffffff167f8be0079c531659141344cd1fd0a4f28419497f9722a3daafe3b4186f6b6457e060405160405180910390a35050565b60008082600001510361276e5760009050612781565b61277e8260000151610258612960565b90505b919050565b6000828211612797578290506127e7565b8283836127a49190613a0d565b86866040516020016127b7929190613a7d565b6040516020818303038152906040528051906020012060001c6127da9190613ad4565b6127e491906131b5565b90505b949350505050565b60008373ffffffffffffffffffffffffffffffffffffffff1663150b7a0261281561229a565b8786866040518563ffffffff1660e01b81526004016128379493929190613b5a565b6020604051808303816000875af192505050801561287357506040513d601f19601f820116820180604052508101906128709190613bbb565b60015b6128ec573d80600081146128a3576040519150601f19603f3d011682016040523d82523d6000602084013e6128a8565b606091505b5060008151036128e4576040517fd1a57ed600000000000000000000000000000000000000000000000000000000815260040160405180910390fd5b805181602001fd5b63150b7a0260e01b7bffffffffffffffffffffffffffffffffffffffffffffffffffffffff1916817bffffffffffffffffffffffffffffffffffffffffffffffffffffffff191614915050949350505050565b60006001821460e11b9050919050565b600033905090565b60009392505050565b60008083036129725760009050612984565b818361297e91906131b5565b42101590505b92915050565b6000604051905090565b600080fd5b600080fd5b60007fffffffff0000000000000000000000000000000000000000000000000000000082169050919050565b6129d38161299e565b81146129de57600080fd5b50565b6000813590506129f0816129ca565b92915050565b600060208284031215612a0c57612a0b612994565b5b6000612a1a848285016129e1565b91505092915050565b60008115159050919050565b612a3881612a23565b82525050565b6000602082019050612a536000830184612a2f565b92915050565b600081519050919050565b600082825260208201905092915050565b60005b83811015612a93578082015181840152602081019050612a78565b83811115612aa2576000848401525b50505050565b6000601f19601f8301169050919050565b6000612ac482612a59565b612ace8185612a64565b9350612ade818560208601612a75565b612ae781612aa8565b840191505092915050565b60006020820190508181036000830152612b0c8184612ab9565b905092915050565b6000819050919050565b612b2781612b14565b8114612b3257600080fd5b50565b600081359050612b4481612b1e565b92915050565b600060208284031215612b6057612b5f612994565b5b6000612b6e84828501612b35565b91505092915050565b600073ffffffffffffffffffffffffffffffffffffffff82169050919050565b6000612ba282612b77565b9050919050565b612bb281612b97565b82525050565b6000602082019050612bcd6000830184612ba9565b92915050565b612bdc81612b97565b8114612be757600080fd5b50565b600081359050612bf981612bd3565b92915050565b60008060408385031215612c1657612c15612994565b5b6000612c2485828601612bea565b9250506020612c3585828601612b35565b9150509250929050565b600060208284031215612c5557612c54612994565b5b6000612c6384828501612bea565b91505092915050565b612c7581612b14565b82525050565b6000602082019050612c906000830184612c6c565b92915050565b600080600060608486031215612caf57612cae612994565b5b6000612cbd86828701612bea565b9350506020612cce86828701612bea565b9250506040612cdf86828701612b35565b9150509250925092565b6000819050919050565b6000612d0e612d09612d0484612b77565b612ce9565b612b77565b9050919050565b6000612d2082612cf3565b9050919050565b6000612d3282612d15565b9050919050565b612d4281612d27565b82525050565b6000602082019050612d5d6000830184612d39565b92915050565b600060ff82169050919050565b612d7981612d63565b82525050565b6000602082019050612d946000830184612d70565b92915050565b600060c082019050612daf6000830189612c6c565b612dbc6020830188612ba9565b612dc96040830187612ba9565b612dd66060830186612c6c565b612de36080830185612c6c565b612df060a0830184612a2f565b979650505050505050565b6000606082019050612e106000830186612c6c565b612e1d6020830185612c6c565b612e2a6040830184612c6c565b949350505050565b6000604082019050612e476000830185612c6c565b612e546020830184612c6c565b9392505050565b612e6481612a23565b8114612e6f57600080fd5b50565b600081359050612e8181612e5b565b92915050565b60008060408385031215612e9e57612e9d612994565b5b6000612eac85828601612bea565b9250506020612ebd85828601612e72565b9150509250929050565b600080fd5b600080fd5b7f4e487b7100000000000000000000000000000000000000000000000000000000600052604160045260246000fd5b612f0982612aa8565b810181811067ffffffffffffffff82111715612f2857612f27612ed1565b5b80604052505050565b6000612f3b61298a565b9050612f478282612f00565b919050565b600067ffffffffffffffff821115612f6757612f66612ed1565b5b612f7082612aa8565b9050602081019050919050565b82818337600083830152505050565b6000612f9f612f9a84612f4c565b612f31565b905082815260208101848484011115612fbb57612fba612ecc565b5b612fc6848285612f7d565b509392505050565b600082601f830112612fe357612fe2612ec7565b5b8135612ff3848260208601612f8c565b91505092915050565b6000806000806080858703121561301657613015612994565b5b600061302487828801612bea565b945050602061303587828801612bea565b935050604061304687828801612b35565b925050606085013567ffffffffffffffff81111561306757613066612999565b5b61307387828801612fce565b91505092959194509250565b6000806000806080858703121561309957613098612994565b5b60006130a787828801612b35565b94505060206130b887828801612b35565b93505060406130c987828801612b35565b92505060606130da87828801612bea565b91505092959194509250565b600080604083850312156130fd576130fc612994565b5b600061310b85828601612bea565b925050602061311c85828601612bea565b9150509250929050565b7f4e487b7100000000000000000000000000000000000000000000000000000000600052602260045260246000fd5b6000600282049050600182168061316d57607f821691505b6020821081036131805761317f613126565b5b50919050565b7f4e487b7100000000000000000000000000000000000000000000000000000000600052601160045260246000fd5b60006131c082612b14565b91506131cb83612b14565b9250827fffffffffffffffffffffffffffffffffffffffffffffffffffffffffffffffff03821115613200576131ff613186565b5b828201905092915050565b6000819050919050565b600061323061322b6132268461320b565b612ce9565b612b14565b9050919050565b61324081613215565b82525050565b6000819050919050565b600061326b61326661326184613246565b612ce9565b612b14565b9050919050565b61327b81613250565b82525050565b60006060820190506132966000830186613237565b6132a36020830185613272565b6132b06040830184612ba9565b949350505050565b6000819050919050565b6132d36132ce82612b14565b6132b8565b82525050565b60008160601b9050919050565b60006132f1826132d9565b9050919050565b6000613303826132e6565b9050919050565b61331b61331682612b97565b6132f8565b82525050565b600061332d82866132c2565b60208201915061333d828561330a565b60148201915061334d82846132c2565b602082019150819050949350505050565b60008160001c9050919050565b6000819050919050565b60006133886133838361335e565b61336b565b9050919050565b61339881612b14565b82525050565b600073ffffffffffffffffffffffffffffffffffffffff82169050919050565b60006133d16133cc8361335e565b61339e565b9050919050565b6133e181612b97565b82525050565b600060ff82169050919050565b60006134076134028361335e565b6133e7565b9050919050565b61341781612a23565b82525050565b60c08201600080830154905061343281613375565b61343f600086018261338f565b5060018301549050613450816133be565b61345d60208601826133d8565b506002830154905061346e816133be565b61347b60408601826133d8565b506003830154905061348c81613375565b613499606086018261338f565b50600483015490506134aa81613375565b6134b7608086018261338f565b50600583015490506134c8816133f4565b6134d560a086018261340e565b5050505050565b6040820160008083015490506134f181613375565b6134fe600086018261338f565b506001830154905061350f81613375565b61351c602086018261338f565b5050505050565b60608201600080830154905061353881613375565b613545600086018261338f565b506001830154905061355681613375565b613563602086018261338f565b506002830154905061357481613375565b613581604086018261338f565b5050505050565b60006101608201905061359e600083018661341d565b6135ab60c08301856134dc565b6135b9610100830184613523565b949350505050565b600067ffffffffffffffff8211156135dc576135db612ed1565b5b6135e582612aa8565b9050602081019050919050565b6000613605613600846135c1565b612f31565b90508281526020810184848401111561362157613620612ecc565b5b61362c848285612a75565b509392505050565b600082601f83011261364957613648612ec7565b5b81516136598482602086016135f2565b91505092915050565b60006020828403121561367857613677612994565b5b600082015167ffffffffffffffff81111561369657613695612999565b5b6136a284828501613634565b91505092915050565b7f4e487b7100000000000000000000000000000000000000000000000000000000600052603260045260246000fd5b600080fd5b6000815190506136ee81612b1e565b92915050565b60008151905061370381612bd3565b92915050565b60008151905061371881612e5b565b92915050565b600060c08284031215613734576137336136da565b5b61373e60c0612f31565b9050600061374e848285016136df565b6000830152506020613762848285016136f4565b6020830152506040613776848285016136f4565b604083015250606061378a848285016136df565b606083015250608061379e848285016136df565b60808301525060a06137b284828501613709565b60a08301525092915050565b6000604082840312156137d4576137d36136da565b5b6137de6040612f31565b905060006137ee848285016136df565b6000830152506020613802848285016136df565b60208301525092915050565b600060608284031215613824576138236136da565b5b61382e6060612f31565b9050600061383e848285016136df565b6000830152506020613852848285016136df565b6020830152506040613866848285016136df565b60408301525092915050565b6000806000610160848603121561388c5761388b612994565b5b600061389a8682870161371e565b93505060c06138ab868287016137be565b9250506101006138bd8682870161380e565b9150509250925092565b60006138d282612b14565b91507fffffffffffffffffffffffffffffffffffffffffffffffffffffffffffffffff820361390457613903613186565b5b600182019050919050565b7f4f776e61626c653a206e6577206f776e657220697320746865207a65726f206160008201527f6464726573730000000000000000000000000000000000000000000000000000602082015250565b600061396b602683612a64565b91506139768261390f565b604082019050919050565b6000602082019050818103600083015261399a8161395e565b9050919050565b7f4f776e61626c653a2063616c6c6572206973206e6f7420746865206f776e6572600082015250565b60006139d7602083612a64565b91506139e2826139a1565b602082019050919050565b60006020820190508181036000830152613a06816139ca565b9050919050565b6000613a1882612b14565b9150613a2383612b14565b925082821015613a3657613a35613186565b5b828203905092915050565b600081905092915050565b6000613a5782612a59565b613a618185613a41565b9350613a71818560208601612a75565b80840191505092915050565b6000613a898285613a4c565b9150613a9582846132c2565b6020820191508190509392505050565b7f4e487b7100000000000000000000000000000000000000000000000000000000600052601260045260246000fd5b6000613adf82612b14565b9150613aea83612b14565b925082613afa57613af9613aa5565b5b828206905092915050565b600081519050919050565b600082825260208201905092915050565b6000613b2c82613b05565b613b368185613b10565b9350613b46818560208601612a75565b613b4f81612aa8565b840191505092915050565b6000608082019050613b6f6000830187612ba9565b613b7c6020830186612ba9565b613b896040830185612c6c565b8181036060830152613b9b8184613b21565b905095945050505050565b600081519050613bb5816129ca565b92915050565b600060208284031215613bd157613bd0612994565b5b6000613bdf84828501613ba6565b9150509291505056fea26469706673582212204d067c23dae9e543bff0e2052ed5c8472b03b07413afdaff7d39502ff1c9102864736f6c634300080e0033",
  "devdoc": {
    "kind": "dev",
    "methods": {
      "addNewItemContract(address)": {
        "details": "Pushes a new contract address into `itemContracts`",
        "params": {
          "_contractAddress": "Address of the new item contract."
        }
      },
      "airdrop(address)": {
        "details": "Airdrops a Tamiko to an address - This is used when breeding two Tamikos from TamikoLink",
        "params": {
          "_address": "Recipient's address"
        }
      },
      "approve(address,uint256)": {
        "details": "Gives permission to `to` to transfer `tokenId` token to another account. The approval is cleared when the token is transferred. Only a single account can be approved at a time, so approving the zero address clears previous approvals. Requirements: - The caller must own the token or be an approved operator. - `tokenId` must exist. Emits an {Approval} event."
      },
      "balanceOf(address)": {
        "details": "Returns the number of tokens in `owner`'s account."
      },
      "constructor": {
        "details": "Tamiko contructor - Sets contract addresses.",
        "params": {
          "_foodContractAddress": "Address of Food item contract.",
          "_magicPotionContractAddress": "Address of MagicPotion item contract.",
          "_reviveAddress": "Address of Revive item contract.",
          "_tamikoLinkAddress": "Address of TamikoLink contract.",
          "_tamikoRendererAddress": "Address of TamikoRenderer contract.",
          "_tamikoStoreAddress": "Address of TamikoStore contract."
        }
      },
      "getApproved(uint256)": {
        "details": "Returns the account approved for `tokenId` token. Requirements: - `tokenId` must exist."
      },
      "isApprovedForAll(address,address)": {
        "details": "Returns if the `operator` is allowed to manage all of the assets of `owner`. See {setApprovalForAll}."
      },
      "isTamikoDead(uint256)": {
        "details": "Checks if a specific tamiko is dead",
        "params": {
          "_tokenId": "Tamiko's token ID."
        },
        "returns": {
          "_0": "bool"
        }
      },
      "mint()": {
        "details": "Mints a Tamiko: It stores a seed and the breeder as well as airdrops 10 Food item to the sender"
      },
      "name()": {
        "details": "Returns the token collection name."
      },
      "owner()": {
        "details": "Returns the address of the current owner."
      },
      "ownerOf(uint256)": {
        "details": "Returns the owner of the `tokenId` token. Requirements: - `tokenId` must exist."
      },
      "receivedTamikoStoreItem(uint256,uint256,uint256,address)": {
        "details": "Checks if a specific tamiko is dead",
        "params": {
          "_from": "Address sending the item",
          "_itemId": "Item's index from `itemContracts` array",
          "_quantity": "Quantity of Item being used",
          "_tokenId": "Tamiko's token ID."
        }
      },
      "renounceOwnership()": {
        "details": "Leaves the contract without owner. It will not be possible to call `onlyOwner` functions anymore. Can only be called by the current owner. NOTE: Renouncing ownership will leave the contract without an owner, thereby removing any functionality that is only available to the owner."
      },
      "safeTransferFrom(address,address,uint256)": {
        "details": "Equivalent to `safeTransferFrom(from, to, tokenId, '')`."
      },
      "safeTransferFrom(address,address,uint256,bytes)": {
        "details": "Safely transfers `tokenId` token from `from` to `to`. Requirements: - `from` cannot be the zero address. - `to` cannot be the zero address. - `tokenId` token must exist and be owned by `from`. - If the caller is not `from`, it must be approved to move this token by either {approve} or {setApprovalForAll}. - If `to` refers to a smart contract, it must implement {IERC721Receiver-onERC721Received}, which is called upon a safe transfer. Emits a {Transfer} event."
      },
      "setApprovalForAll(address,bool)": {
        "details": "Approve or remove `operator` as an operator for the caller. Operators can call {transferFrom} or {safeTransferFrom} for any token owned by the caller. Requirements: - The `operator` cannot be the caller. Emits an {ApprovalForAll} event."
      },
      "setTamikoStore(address)": {
        "details": "Updates TamikoStore address.",
        "params": {
          "_tamikoStoreAddress": "Address of TamikoStore contract."
        }
      },
      "startHatchingProcess(uint256)": {
        "details": "Starts the hatching process of a specific Tamiko",
        "params": {
          "_tokenId": "Tamiko's token ID."
        }
      },
      "supportsInterface(bytes4)": {
        "details": "Returns true if this contract implements the interface defined by `interfaceId`. See the corresponding [EIP section](https://eips.ethereum.org/EIPS/eip-165#how-interfaces-are-identified) to learn more about how these ids are created. This function call must use less than 30000 gas."
      },
      "symbol()": {
        "details": "Returns the token collection symbol."
      },
      "tokenURI(uint256)": {
        "details": "Returns a specific Tamiko's metadata",
        "params": {
          "_tokenId": "Tamiko's token ID."
        },
        "returns": {
          "_0": "string JSON as base64"
        }
      },
      "totalSupply()": {
        "details": "Returns the total number of tokens in existence. Burned tokens will reduce the count. To get the total number of tokens minted, please see {_totalMinted}."
      },
      "transferFrom(address,address,uint256)": {
        "details": "Transfers `tokenId` from `from` to `to`. Requirements: - `from` cannot be the zero address. - `to` cannot be the zero address. - `tokenId` token must be owned by `from`. - If the caller is not `from`, it must be approved to move this token by either {approve} or {setApprovalForAll}. Emits a {Transfer} event."
      },
      "transferOwnership(address)": {
        "details": "Transfers ownership of the contract to a new account (`newOwner`). Can only be called by the current owner."
      }
    },
    "version": 1
  },
  "userdoc": {
    "errors": {
      "ApprovalCallerNotOwnerNorApproved()": [
        {
          "notice": "The caller must own the token or be an approved operator."
        }
      ],
      "ApprovalQueryForNonexistentToken()": [
        {
          "notice": "The token does not exist."
        }
      ],
      "ApproveToCaller()": [
        {
          "notice": "The caller cannot approve to their own address."
        }
      ],
      "BalanceQueryForZeroAddress()": [
        {
          "notice": "Cannot query the balance for the zero address."
        }
      ],
      "MintERC2309QuantityExceedsLimit()": [
        {
          "notice": "The `quantity` minted with ERC2309 exceeds the safety limit."
        }
      ],
      "MintToZeroAddress()": [
        {
          "notice": "Cannot mint to the zero address."
        }
      ],
      "MintZeroQuantity()": [
        {
          "notice": "The quantity of tokens minted must be more than zero."
        }
      ],
      "OwnerQueryForNonexistentToken()": [
        {
          "notice": "The token does not exist."
        }
      ],
      "OwnershipNotInitializedForExtraData()": [
        {
          "notice": "The `extraData` cannot be set on an unintialized ownership slot."
        }
      ],
      "TransferCallerNotOwnerNorApproved()": [
        {
          "notice": "The caller must own the token or be an approved operator."
        }
      ],
      "TransferFromIncorrectOwner()": [
        {
          "notice": "The token must be owned by `from`."
        }
      ],
      "TransferToNonERC721ReceiverImplementer()": [
        {
          "notice": "Cannot safely transfer to a contract that does not implement the ERC721Receiver interface."
        }
      ],
      "TransferToZeroAddress()": [
        {
          "notice": "Cannot transfer to the zero address."
        }
      ],
      "URIQueryForNonexistentToken()": [
        {
          "notice": "The token does not exist."
        }
      ]
    },
    "kind": "user",
    "methods": {},
    "version": 1
  },
  "storageLayout": {
    "storage": [
      {
        "astId": 4931,
        "contract": "contracts/Tamiko.sol:Tamiko",
        "label": "_currentIndex",
        "offset": 0,
        "slot": "0",
        "type": "t_uint256"
      },
      {
        "astId": 4933,
        "contract": "contracts/Tamiko.sol:Tamiko",
        "label": "_burnCounter",
        "offset": 0,
        "slot": "1",
        "type": "t_uint256"
      },
      {
        "astId": 4935,
        "contract": "contracts/Tamiko.sol:Tamiko",
        "label": "_name",
        "offset": 0,
        "slot": "2",
        "type": "t_string_storage"
      },
      {
        "astId": 4937,
        "contract": "contracts/Tamiko.sol:Tamiko",
        "label": "_symbol",
        "offset": 0,
        "slot": "3",
        "type": "t_string_storage"
      },
      {
        "astId": 4941,
        "contract": "contracts/Tamiko.sol:Tamiko",
        "label": "_packedOwnerships",
        "offset": 0,
        "slot": "4",
        "type": "t_mapping(t_uint256,t_uint256)"
      },
      {
        "astId": 4945,
        "contract": "contracts/Tamiko.sol:Tamiko",
        "label": "_packedAddressData",
        "offset": 0,
        "slot": "5",
        "type": "t_mapping(t_address,t_uint256)"
      },
      {
        "astId": 4950,
        "contract": "contracts/Tamiko.sol:Tamiko",
        "label": "_tokenApprovals",
        "offset": 0,
        "slot": "6",
        "type": "t_mapping(t_uint256,t_struct(TokenApprovalRef)4863_storage)"
      },
      {
        "astId": 4956,
        "contract": "contracts/Tamiko.sol:Tamiko",
        "label": "_operatorApprovals",
        "offset": 0,
        "slot": "7",
        "type": "t_mapping(t_address,t_mapping(t_address,t_bool))"
      },
      {
        "astId": 7,
        "contract": "contracts/Tamiko.sol:Tamiko",
        "label": "_owner",
        "offset": 0,
        "slot": "8",
        "type": "t_address"
      },
      {
        "astId": 2162,
        "contract": "contracts/Tamiko.sol:Tamiko",
        "label": "description",
        "offset": 0,
        "slot": "9",
        "type": "t_string_storage"
      },
      {
        "astId": 2170,
        "contract": "contracts/Tamiko.sol:Tamiko",
        "label": "tamikoStoreAddress",
        "offset": 0,
        "slot": "10",
        "type": "t_address"
      },
      {
        "astId": 2172,
        "contract": "contracts/Tamiko.sol:Tamiko",
        "label": "tamikoLinkAddress",
        "offset": 0,
        "slot": "11",
        "type": "t_address"
      },
      {
        "astId": 2175,
        "contract": "contracts/Tamiko.sol:Tamiko",
        "label": "tamikoStore",
        "offset": 0,
        "slot": "12",
        "type": "t_contract(TamikoStore)3865"
      },
      {
        "astId": 2178,
        "contract": "contracts/Tamiko.sol:Tamiko",
        "label": "tamikoRenderer",
        "offset": 0,
        "slot": "13",
        "type": "t_contract(TamikoRenderer)3474"
      },
      {
        "astId": 2181,
        "contract": "contracts/Tamiko.sol:Tamiko",
        "label": "tamikoLink",
        "offset": 0,
        "slot": "14",
        "type": "t_contract(TamikoLink)3270"
      },
      {
        "astId": 2196,
        "contract": "contracts/Tamiko.sol:Tamiko",
        "label": "ELEMENTS",
        "offset": 0,
        "slot": "15",
        "type": "t_array(t_string_storage)10_storage"
      },
      {
        "astId": 2200,
        "contract": "contracts/Tamiko.sol:Tamiko",
        "label": "itemContracts",
        "offset": 0,
        "slot": "25",
        "type": "t_array(t_contract(ITamikoItem)3890)dyn_storage"
      },
      {
        "astId": 2205,
        "contract": "contracts/Tamiko.sol:Tamiko",
        "label": "tamikos",
        "offset": 0,
        "slot": "26",
        "type": "t_mapping(t_uint256,t_struct(CuteTamiko)4193_storage)"
      },
      {
        "astId": 2210,
        "contract": "contracts/Tamiko.sol:Tamiko",
        "label": "skills",
        "offset": 0,
        "slot": "27",
        "type": "t_mapping(t_uint256,t_struct(Skills)4180_storage)"
      },
      {
        "astId": 2215,
        "contract": "contracts/Tamiko.sol:Tamiko",
        "label": "timings",
        "offset": 0,
        "slot": "28",
        "type": "t_mapping(t_uint256,t_struct(Timings)4173_storage)"
      },
      {
        "astId": 2219,
        "contract": "contracts/Tamiko.sol:Tamiko",
        "label": "players",
        "offset": 0,
        "slot": "29",
        "type": "t_mapping(t_address,t_uint256)"
      },
      {
        "astId": 2223,
        "contract": "contracts/Tamiko.sol:Tamiko",
        "label": "hasAddressMinted",
        "offset": 0,
        "slot": "30",
        "type": "t_mapping(t_address,t_bool)"
      }
    ],
    "types": {
      "t_address": {
        "encoding": "inplace",
        "label": "address",
        "numberOfBytes": "20"
      },
      "t_array(t_contract(ITamikoItem)3890)dyn_storage": {
        "base": "t_contract(ITamikoItem)3890",
        "encoding": "dynamic_array",
        "label": "contract ITamikoItem[]",
        "numberOfBytes": "32"
      },
      "t_array(t_string_storage)10_storage": {
        "base": "t_string_storage",
        "encoding": "inplace",
        "label": "string[10]",
        "numberOfBytes": "320"
      },
      "t_bool": {
        "encoding": "inplace",
        "label": "bool",
        "numberOfBytes": "1"
      },
      "t_contract(ITamikoItem)3890": {
        "encoding": "inplace",
        "label": "contract ITamikoItem",
        "numberOfBytes": "20"
      },
      "t_contract(TamikoLink)3270": {
        "encoding": "inplace",
        "label": "contract TamikoLink",
        "numberOfBytes": "20"
      },
      "t_contract(TamikoRenderer)3474": {
        "encoding": "inplace",
        "label": "contract TamikoRenderer",
        "numberOfBytes": "20"
      },
      "t_contract(TamikoStore)3865": {
        "encoding": "inplace",
        "label": "contract TamikoStore",
        "numberOfBytes": "20"
      },
      "t_mapping(t_address,t_bool)": {
        "encoding": "mapping",
        "key": "t_address",
        "label": "mapping(address => bool)",
        "numberOfBytes": "32",
        "value": "t_bool"
      },
      "t_mapping(t_address,t_mapping(t_address,t_bool))": {
        "encoding": "mapping",
        "key": "t_address",
        "label": "mapping(address => mapping(address => bool))",
        "numberOfBytes": "32",
        "value": "t_mapping(t_address,t_bool)"
      },
      "t_mapping(t_address,t_uint256)": {
        "encoding": "mapping",
        "key": "t_address",
        "label": "mapping(address => uint256)",
        "numberOfBytes": "32",
        "value": "t_uint256"
      },
      "t_mapping(t_uint256,t_struct(CuteTamiko)4193_storage)": {
        "encoding": "mapping",
        "key": "t_uint256",
        "label": "mapping(uint256 => struct TamikoLibrary.CuteTamiko)",
        "numberOfBytes": "32",
        "value": "t_struct(CuteTamiko)4193_storage"
      },
      "t_mapping(t_uint256,t_struct(Skills)4180_storage)": {
        "encoding": "mapping",
        "key": "t_uint256",
        "label": "mapping(uint256 => struct TamikoLibrary.Skills)",
        "numberOfBytes": "32",
        "value": "t_struct(Skills)4180_storage"
      },
      "t_mapping(t_uint256,t_struct(Timings)4173_storage)": {
        "encoding": "mapping",
        "key": "t_uint256",
        "label": "mapping(uint256 => struct TamikoLibrary.Timings)",
        "numberOfBytes": "32",
        "value": "t_struct(Timings)4173_storage"
      },
      "t_mapping(t_uint256,t_struct(TokenApprovalRef)4863_storage)": {
        "encoding": "mapping",
        "key": "t_uint256",
        "label": "mapping(uint256 => struct ERC721A.TokenApprovalRef)",
        "numberOfBytes": "32",
        "value": "t_struct(TokenApprovalRef)4863_storage"
      },
      "t_mapping(t_uint256,t_uint256)": {
        "encoding": "mapping",
        "key": "t_uint256",
        "label": "mapping(uint256 => uint256)",
        "numberOfBytes": "32",
        "value": "t_uint256"
      },
      "t_string_storage": {
        "encoding": "bytes",
        "label": "string",
        "numberOfBytes": "32"
      },
      "t_struct(CuteTamiko)4193_storage": {
        "encoding": "inplace",
        "label": "struct TamikoLibrary.CuteTamiko",
        "members": [
          {
            "astId": 4182,
            "contract": "contracts/Tamiko.sol:Tamiko",
            "label": "seed",
            "offset": 0,
            "slot": "0",
            "type": "t_uint256"
          },
          {
            "astId": 4184,
            "contract": "contracts/Tamiko.sol:Tamiko",
            "label": "breeder",
            "offset": 0,
            "slot": "1",
            "type": "t_address"
          },
          {
            "astId": 4186,
            "contract": "contracts/Tamiko.sol:Tamiko",
            "label": "hatcher",
            "offset": 0,
            "slot": "2",
            "type": "t_address"
          },
          {
            "astId": 4188,
            "contract": "contracts/Tamiko.sol:Tamiko",
            "label": "element",
            "offset": 0,
            "slot": "3",
            "type": "t_uint256"
          },
          {
            "astId": 4190,
            "contract": "contracts/Tamiko.sol:Tamiko",
            "label": "level",
            "offset": 0,
            "slot": "4",
            "type": "t_uint256"
          },
          {
            "astId": 4192,
            "contract": "contracts/Tamiko.sol:Tamiko",
            "label": "isAliveForever",
            "offset": 0,
            "slot": "5",
            "type": "t_bool"
          }
        ],
        "numberOfBytes": "192"
      },
      "t_struct(Skills)4180_storage": {
        "encoding": "inplace",
        "label": "struct TamikoLibrary.Skills",
        "members": [
          {
            "astId": 4175,
            "contract": "contracts/Tamiko.sol:Tamiko",
            "label": "power",
            "offset": 0,
            "slot": "0",
            "type": "t_uint256"
          },
          {
            "astId": 4177,
            "contract": "contracts/Tamiko.sol:Tamiko",
            "label": "speed",
            "offset": 0,
            "slot": "1",
            "type": "t_uint256"
          },
          {
            "astId": 4179,
            "contract": "contracts/Tamiko.sol:Tamiko",
            "label": "defense",
            "offset": 0,
            "slot": "2",
            "type": "t_uint256"
          }
        ],
        "numberOfBytes": "96"
      },
      "t_struct(Timings)4173_storage": {
        "encoding": "inplace",
        "label": "struct TamikoLibrary.Timings",
        "members": [
          {
            "astId": 4170,
            "contract": "contracts/Tamiko.sol:Tamiko",
            "label": "lastFed",
            "offset": 0,
            "slot": "0",
            "type": "t_uint256"
          },
          {
            "astId": 4172,
            "contract": "contracts/Tamiko.sol:Tamiko",
            "label": "hatchDate",
            "offset": 0,
            "slot": "1",
            "type": "t_uint256"
          }
        ],
        "numberOfBytes": "64"
      },
      "t_struct(TokenApprovalRef)4863_storage": {
        "encoding": "inplace",
        "label": "struct ERC721A.TokenApprovalRef",
        "members": [
          {
            "astId": 4862,
            "contract": "contracts/Tamiko.sol:Tamiko",
            "label": "value",
            "offset": 0,
            "slot": "0",
            "type": "t_address"
          }
        ],
        "numberOfBytes": "32"
      },
      "t_uint256": {
        "encoding": "inplace",
        "label": "uint256",
        "numberOfBytes": "32"
      }
    }
  }
}