{
  "address": "0x9fE46736679d2D9a65F0992F2272dE9f3c7fa6e0",
  "abi": [
    {
      "inputs": [],
      "name": "IsAlreadyBreeding",
      "type": "error"
    },
    {
      "inputs": [],
      "name": "NonExistentRequest",
      "type": "error"
    },
    {
      "inputs": [],
      "name": "NonExistentTamiko",
      "type": "error"
    },
    {
      "inputs": [],
      "name": "NotReadyYet",
      "type": "error"
    },
    {
      "inputs": [],
      "name": "NotReceiverAddress",
      "type": "error"
    },
    {
      "inputs": [],
      "name": "NotRequestOwner",
      "type": "error"
    },
    {
      "inputs": [],
      "name": "NotTamikoOwner",
      "type": "error"
    },
    {
      "inputs": [],
      "name": "ReceiverCantBeSender",
      "type": "error"
    },
    {
      "inputs": [],
      "name": "RequestHasBeenCancelled",
      "type": "error"
    },
    {
      "inputs": [],
      "name": "SameTamikoUsed",
      "type": "error"
    },
    {
      "anonymous": false,
      "inputs": [
        {
          "indexed": true,
          "internalType": "address",
          "name": "previousOwner",
          "type": "address"
        },
        {
          "indexed": true,
          "internalType": "address",
          "name": "newOwner",
          "type": "address"
        }
      ],
      "name": "OwnershipTransferred",
      "type": "event"
    },
    {
      "inputs": [
        {
          "internalType": "uint256",
          "name": "_requestId",
          "type": "uint256"
        }
      ],
      "name": "acceptBreedingRequest",
      "outputs": [],
      "stateMutability": "nonpayable",
      "type": "function"
    },
    {
      "inputs": [
        {
          "internalType": "uint256",
          "name": "",
          "type": "uint256"
        }
      ],
      "name": "breedingTamikos",
      "outputs": [
        {
          "internalType": "bool",
          "name": "isBreeding",
          "type": "bool"
        },
        {
          "internalType": "uint256",
          "name": "startedBreedingAt",
          "type": "uint256"
        }
      ],
      "stateMutability": "view",
      "type": "function"
    },
    {
      "inputs": [
        {
          "internalType": "uint256",
          "name": "_requestId",
          "type": "uint256"
        }
      ],
      "name": "cancelBreedingRequest",
      "outputs": [],
      "stateMutability": "nonpayable",
      "type": "function"
    },
    {
      "inputs": [
        {
          "internalType": "address",
          "name": "_receiver",
          "type": "address"
        },
        {
          "internalType": "uint256",
          "name": "_senderTamiko",
          "type": "uint256"
        },
        {
          "internalType": "uint256",
          "name": "_receiverTamiko",
          "type": "uint256"
        }
      ],
      "name": "createBreedingRequest",
      "outputs": [],
      "stateMutability": "nonpayable",
      "type": "function"
    },
    {
      "inputs": [
        {
          "internalType": "uint256",
          "name": "_tokenId",
          "type": "uint256"
        }
      ],
      "name": "isTamikoBreeding",
      "outputs": [
        {
          "internalType": "bool",
          "name": "",
          "type": "bool"
        }
      ],
      "stateMutability": "view",
      "type": "function"
    },
    {
      "inputs": [
        {
          "internalType": "uint256",
          "name": "_tokenId",
          "type": "uint256"
        },
        {
          "internalType": "address",
          "name": "_owner",
          "type": "address"
        }
      ],
      "name": "isTamikoOwner",
      "outputs": [
        {
          "internalType": "bool",
          "name": "",
          "type": "bool"
        }
      ],
      "stateMutability": "view",
      "type": "function"
    },
    {
      "inputs": [],
      "name": "owner",
      "outputs": [
        {
          "internalType": "address",
          "name": "",
          "type": "address"
        }
      ],
      "stateMutability": "view",
      "type": "function"
    },
    {
      "inputs": [
        {
          "internalType": "uint256",
          "name": "_requestId",
          "type": "uint256"
        }
      ],
      "name": "redeemBreededEgg",
      "outputs": [],
      "stateMutability": "nonpayable",
      "type": "function"
    },
    {
      "inputs": [],
      "name": "renounceOwnership",
      "outputs": [],
      "stateMutability": "nonpayable",
      "type": "function"
    },
    {
      "inputs": [
        {
          "internalType": "uint256",
          "name": "",
          "type": "uint256"
        }
      ],
      "name": "requests",
      "outputs": [
        {
          "internalType": "uint256",
          "name": "id",
          "type": "uint256"
        },
        {
          "internalType": "uint256",
          "name": "createdAt",
          "type": "uint256"
        },
        {
          "internalType": "uint256",
          "name": "acceptedAt",
          "type": "uint256"
        },
        {
          "internalType": "uint256",
          "name": "cancelledAt",
          "type": "uint256"
        },
        {
          "internalType": "address",
          "name": "sender",
          "type": "address"
        },
        {
          "internalType": "address",
          "name": "receiver",
          "type": "address"
        },
        {
          "internalType": "uint256",
          "name": "senderTamiko",
          "type": "uint256"
        },
        {
          "internalType": "uint256",
          "name": "receiverTamiko",
          "type": "uint256"
        }
      ],
      "stateMutability": "view",
      "type": "function"
    },
    {
      "inputs": [
        {
          "internalType": "address",
          "name": "_tamikoContract",
          "type": "address"
        }
      ],
      "name": "setTamikoContract",
      "outputs": [],
      "stateMutability": "nonpayable",
      "type": "function"
    },
    {
      "inputs": [
        {
          "internalType": "address",
          "name": "newOwner",
          "type": "address"
        }
      ],
      "name": "transferOwnership",
      "outputs": [],
      "stateMutability": "nonpayable",
      "type": "function"
    }
  ],
  "transactionHash": "0xfd3523b05a514ff8f7ac9afbd2bb1d424b42829ee80dfcfa9a5e21ac76452dba",
  "args": [],
  "numDeployments": 1,
  "solcInputHash": "9278e9a8a8e978981c3b2db46721a610",
  "bytecode": "0x608060405234801561001057600080fd5b5061002d61002261003260201b60201c565b61003a60201b60201c565b6100fe565b600033905090565b60008060009054906101000a900473ffffffffffffffffffffffffffffffffffffffff169050816000806101000a81548173ffffffffffffffffffffffffffffffffffffffff021916908373ffffffffffffffffffffffffffffffffffffffff1602179055508173ffffffffffffffffffffffffffffffffffffffff168173ffffffffffffffffffffffffffffffffffffffff167f8be0079c531659141344cd1fd0a4f28419497f9722a3daafe3b4186f6b6457e060405160405180910390a35050565b6117ad8061010d6000396000f3fe608060405234801561001057600080fd5b50600436106100b45760003560e01c8063715018a611610071578063715018a61461019e5780637e422d0b146101a857806381d12c58146101c45780638da5cb5b146101fb578063c98e3a8814610219578063f2fde38b14610235576100b4565b8063023d19e6146100b95780632b8bc0bf146100d55780632ffc2bb1146100f1578063410d62da1461010d5780635a0970801461013d5780635d5a5a131461016e575b600080fd5b6100d360048036038101906100ce91906112b4565b610251565b005b6100ef60048036038101906100ea91906112b4565b61036a565b005b61010b6004803603810190610106919061133f565b61070a565b005b6101276004803603810190610122919061136c565b610797565b60405161013491906113c7565b60405180910390f35b610157600480360381019061015291906112b4565b61087b565b6040516101659291906113f1565b60405180910390f35b610188600480360381019061018391906112b4565b6108ac565b60405161019591906113c7565b60405180910390f35b6101a66108d9565b005b6101c260048036038101906101bd91906112b4565b6108ed565b005b6101de60048036038101906101d991906112b4565b610bea565b6040516101f2989796959493929190611429565b60405180910390f35b610203610c82565b60405161021091906114a7565b60405180910390f35b610233600480360381019061022e91906114c2565b610cab565b005b61024f600480360381019061024a919061133f565b611082565b005b806003805490508110610290576040517f7b4ebe0c00000000000000000000000000000000000000000000000000000000815260040160405180910390fd5b813373ffffffffffffffffffffffffffffffffffffffff16600382815481106102bc576102bb611515565b5b906000526020600020906008020160040160009054906101000a900473ffffffffffffffffffffffffffffffffffffffff1673ffffffffffffffffffffffffffffffffffffffff161461033b576040517f517907dd00000000000000000000000000000000000000000000000000000000815260040160405180910390fd5b42600384815481106103505761034f611515565b5b906000526020600020906008020160030181905550505050565b8060038054905081106103a9576040517f7b4ebe0c00000000000000000000000000000000000000000000000000000000815260040160405180910390fd5b816000600382815481106103c0576103bf611515565b5b906000526020600020906008020160030154111561040a576040517fffc1bc0e00000000000000000000000000000000000000000000000000000000815260040160405180910390fd5b6003838154811061041e5761041d611515565b5b906000526020600020906008020160050160009054906101000a900473ffffffffffffffffffffffffffffffffffffffff1673ffffffffffffffffffffffffffffffffffffffff163373ffffffffffffffffffffffffffffffffffffffff16146104b4576040517f83d9c26b00000000000000000000000000000000000000000000000000000000815260040160405180910390fd5b6104e3600384815481106104cb576104ca611515565b5b90600052602060002090600802016007015433610797565b610519576040517fd497481100000000000000000000000000000000000000000000000000000000815260040160405180910390fd5b610547600384815481106105305761052f611515565b5b9060005260206000209060080201600701546108ac565b8061057c575061057b6003848154811061056457610563611515565b5b9060005260206000209060080201600601546108ac565b5b156105b3576040517f6278502800000000000000000000000000000000000000000000000000000000815260040160405180910390fd5b42600384815481106105c8576105c7611515565b5b906000526020600020906008020160020181905550600160046000600386815481106105f7576105f6611515565b5b906000526020600020906008020160060154815260200190815260200160002060000160006101000a81548160ff02191690831515021790555042600460006003868154811061064a57610649611515565b5b9060005260206000209060080201600601548152602001908152602001600020600101819055506001600460006003868154811061068b5761068a611515565b5b906000526020600020906008020160070154815260200190815260200160002060000160006101000a81548160ff0219169083151502179055504260046000600386815481106106de576106dd611515565b5b906000526020600020906008020160070154815260200190815260200160002060010181905550505050565b610712611105565b80600160006101000a81548173ffffffffffffffffffffffffffffffffffffffff021916908373ffffffffffffffffffffffffffffffffffffffff16021790555080600260006101000a81548173ffffffffffffffffffffffffffffffffffffffff021916908373ffffffffffffffffffffffffffffffffffffffff16021790555050565b60008173ffffffffffffffffffffffffffffffffffffffff16600160009054906101000a900473ffffffffffffffffffffffffffffffffffffffff1673ffffffffffffffffffffffffffffffffffffffff16636352211e856040518263ffffffff1660e01b815260040161080b9190611544565b602060405180830381865afa158015610828573d6000803e3d6000fd5b505050506040513d601f19601f8201168201806040525081019061084c9190611574565b73ffffffffffffffffffffffffffffffffffffffff16036108705760019050610875565b600090505b92915050565b60046020528060005260406000206000915090508060000160009054906101000a900460ff16908060010154905082565b60006004600083815260200190815260200160002060000160009054906101000a900460ff169050919050565b6108e1611105565b6108eb6000611183565b565b80600380549050811061092c576040517f7b4ebe0c00000000000000000000000000000000000000000000000000000000815260040160405180910390fd5b8161095d6003828154811061094457610943611515565b5b906000526020600020906008020160020154603c611247565b15610bb357600160009054906101000a900473ffffffffffffffffffffffffffffffffffffffff1673ffffffffffffffffffffffffffffffffffffffff166321860a05600385815481106109b4576109b3611515565b5b906000526020600020906008020160040160009054906101000a900473ffffffffffffffffffffffffffffffffffffffff166040518263ffffffff1660e01b8152600401610a0291906114a7565b600060405180830381600087803b158015610a1c57600080fd5b505af1158015610a30573d6000803e3d6000fd5b50505050600160009054906101000a900473ffffffffffffffffffffffffffffffffffffffff1673ffffffffffffffffffffffffffffffffffffffff166321860a0560038581548110610a8657610a85611515565b5b906000526020600020906008020160050160009054906101000a900473ffffffffffffffffffffffffffffffffffffffff166040518263ffffffff1660e01b8152600401610ad491906114a7565b600060405180830381600087803b158015610aee57600080fd5b505af1158015610b02573d6000803e3d6000fd5b5050505060006004600060038681548110610b2057610b1f611515565b5b906000526020600020906008020160060154815260200190815260200160002060000160006101000a81548160ff02191690831515021790555060006004600060038681548110610b7457610b73611515565b5b906000526020600020906008020160070154815260200190815260200160002060000160006101000a81548160ff021916908315150217905550610be5565b6040517ffd09c43f00000000000000000000000000000000000000000000000000000000815260040160405180910390fd5b505050565b60038181548110610bfa57600080fd5b90600052602060002090600802016000915090508060000154908060010154908060020154908060030154908060040160009054906101000a900473ffffffffffffffffffffffffffffffffffffffff16908060050160009054906101000a900473ffffffffffffffffffffffffffffffffffffffff16908060060154908060070154905088565b60008060009054906101000a900473ffffffffffffffffffffffffffffffffffffffff16905090565b828073ffffffffffffffffffffffffffffffffffffffff163373ffffffffffffffffffffffffffffffffffffffff1603610d11576040517f6c6c293100000000000000000000000000000000000000000000000000000000815260040160405180910390fd5b8282600160009054906101000a900473ffffffffffffffffffffffffffffffffffffffff1673ffffffffffffffffffffffffffffffffffffffff166318160ddd6040518163ffffffff1660e01b8152600401602060405180830381865afa158015610d80573d6000803e3d6000fd5b505050506040513d601f19601f82011682018060405250810190610da491906115b6565b82101580610e425750600160009054906101000a900473ffffffffffffffffffffffffffffffffffffffff1673ffffffffffffffffffffffffffffffffffffffff166318160ddd6040518163ffffffff1660e01b8152600401602060405180830381865afa158015610e1a573d6000803e3d6000fd5b505050506040513d601f19601f82011682018060405250810190610e3e91906115b6565b8110155b15610e79576040517fe57e033a00000000000000000000000000000000000000000000000000000000815260040160405180910390fd5b8484808203610eb4576040517f82d8c4e400000000000000000000000000000000000000000000000000000000815260040160405180910390fd5b8686338a610ec28483610797565b8015610ed45750610ed38382610797565b5b15611042576003604051806101000160405280600380549050815260200142815260200160008152602001600081526020013373ffffffffffffffffffffffffffffffffffffffff1681526020018e73ffffffffffffffffffffffffffffffffffffffff1681526020018d81526020018c81525090806001815401808255809150506001900390600052602060002090600802016000909190919091506000820151816000015560208201518160010155604082015181600201556060820151816003015560808201518160040160006101000a81548173ffffffffffffffffffffffffffffffffffffffff021916908373ffffffffffffffffffffffffffffffffffffffff16021790555060a08201518160050160006101000a81548173ffffffffffffffffffffffffffffffffffffffff021916908373ffffffffffffffffffffffffffffffffffffffff16021790555060c0820151816006015560e082015181600701555050611074565b6040517fd497481100000000000000000000000000000000000000000000000000000000815260040160405180910390fd5b505050505050505050505050565b61108a611105565b600073ffffffffffffffffffffffffffffffffffffffff168173ffffffffffffffffffffffffffffffffffffffff16036110f9576040517f08c379a00000000000000000000000000000000000000000000000000000000081526004016110f090611666565b60405180910390fd5b61110281611183565b50565b61110d611271565b73ffffffffffffffffffffffffffffffffffffffff1661112b610c82565b73ffffffffffffffffffffffffffffffffffffffff1614611181576040517f08c379a0000000000000000000000000000000000000000000000000000000008152600401611178906116d2565b60405180910390fd5b565b60008060009054906101000a900473ffffffffffffffffffffffffffffffffffffffff169050816000806101000a81548173ffffffffffffffffffffffffffffffffffffffff021916908373ffffffffffffffffffffffffffffffffffffffff1602179055508173ffffffffffffffffffffffffffffffffffffffff168173ffffffffffffffffffffffffffffffffffffffff167f8be0079c531659141344cd1fd0a4f28419497f9722a3daafe3b4186f6b6457e060405160405180910390a35050565b6000808303611259576000905061126b565b81836112659190611721565b42101590505b92915050565b600033905090565b600080fd5b6000819050919050565b6112918161127e565b811461129c57600080fd5b50565b6000813590506112ae81611288565b92915050565b6000602082840312156112ca576112c9611279565b5b60006112d88482850161129f565b91505092915050565b600073ffffffffffffffffffffffffffffffffffffffff82169050919050565b600061130c826112e1565b9050919050565b61131c81611301565b811461132757600080fd5b50565b60008135905061133981611313565b92915050565b60006020828403121561135557611354611279565b5b60006113638482850161132a565b91505092915050565b6000806040838503121561138357611382611279565b5b60006113918582860161129f565b92505060206113a28582860161132a565b9150509250929050565b60008115159050919050565b6113c1816113ac565b82525050565b60006020820190506113dc60008301846113b8565b92915050565b6113eb8161127e565b82525050565b600060408201905061140660008301856113b8565b61141360208301846113e2565b9392505050565b61142381611301565b82525050565b60006101008201905061143f600083018b6113e2565b61144c602083018a6113e2565b61145960408301896113e2565b61146660608301886113e2565b611473608083018761141a565b61148060a083018661141a565b61148d60c08301856113e2565b61149a60e08301846113e2565b9998505050505050505050565b60006020820190506114bc600083018461141a565b92915050565b6000806000606084860312156114db576114da611279565b5b60006114e98682870161132a565b93505060206114fa8682870161129f565b925050604061150b8682870161129f565b9150509250925092565b7f4e487b7100000000000000000000000000000000000000000000000000000000600052603260045260246000fd5b600060208201905061155960008301846113e2565b92915050565b60008151905061156e81611313565b92915050565b60006020828403121561158a57611589611279565b5b60006115988482850161155f565b91505092915050565b6000815190506115b081611288565b92915050565b6000602082840312156115cc576115cb611279565b5b60006115da848285016115a1565b91505092915050565b600082825260208201905092915050565b7f4f776e61626c653a206e6577206f776e657220697320746865207a65726f206160008201527f6464726573730000000000000000000000000000000000000000000000000000602082015250565b60006116506026836115e3565b915061165b826115f4565b604082019050919050565b6000602082019050818103600083015261167f81611643565b9050919050565b7f4f776e61626c653a2063616c6c6572206973206e6f7420746865206f776e6572600082015250565b60006116bc6020836115e3565b91506116c782611686565b602082019050919050565b600060208201905081810360008301526116eb816116af565b9050919050565b7f4e487b7100000000000000000000000000000000000000000000000000000000600052601160045260246000fd5b600061172c8261127e565b91506117378361127e565b9250827fffffffffffffffffffffffffffffffffffffffffffffffffffffffffffffffff0382111561176c5761176b6116f2565b5b82820190509291505056fea26469706673582212202f46d4a4ff8c407e1383d488a9a33408df98a3a66ea9a019bafb65fba92daad864736f6c634300080e0033",
  "devdoc": {
    "kind": "dev",
    "methods": {
      "acceptBreedingRequest(uint256)": {
        "details": "Accepts a breeding request - Only the request receiver can accept it",
        "params": {
          "_requestId": "Request to accept"
        }
      },
      "cancelBreedingRequest(uint256)": {
        "details": "Cancels a breeding request - Only the request creator can cancel it",
        "params": {
          "_requestId": "Request to cancel"
        }
      },
      "createBreedingRequest(address,uint256,uint256)": {
        "details": "Creates a request from a specific Tamiko to another",
        "params": {
          "_receiver": "Receiver's address",
          "_receiverTamiko": "Receiver's Tamiko",
          "_senderTamiko": "Sender's Tamiko"
        }
      },
      "isTamikoBreeding(uint256)": {
        "details": "Checks if a Tamiko is already breeding.",
        "params": {
          "_tokenId": "Tamiko's TokenID"
        },
        "returns": {
          "_0": "bool"
        }
      },
      "isTamikoOwner(uint256,address)": {
        "details": "Checks if an address owns a specific tokenID.",
        "params": {
          "_owner": "Owner's address",
          "_tokenId": "Tamiko's TokenID"
        },
        "returns": {
          "_0": "bool"
        }
      },
      "owner()": {
        "details": "Returns the address of the current owner."
      },
      "redeemBreededEgg(uint256)": {
        "details": "Redeem 1 egg each once a request has been accepted and TIME_TO_BREED has passed",
        "params": {
          "_requestId": "Request to redeem"
        }
      },
      "renounceOwnership()": {
        "details": "Leaves the contract without owner. It will not be possible to call `onlyOwner` functions anymore. Can only be called by the current owner. NOTE: Renouncing ownership will leave the contract without an owner, thereby removing any functionality that is only available to the owner."
      },
      "setTamikoContract(address)": {
        "details": "Update Tamiko's contract address.",
        "params": {
          "_tamikoContract": "Contract address."
        }
      },
      "transferOwnership(address)": {
        "details": "Transfers ownership of the contract to a new account (`newOwner`). Can only be called by the current owner."
      }
    },
    "version": 1
  },
  "userdoc": {
    "kind": "user",
    "methods": {},
    "version": 1
  },
  "storageLayout": {
    "storage": [
      {
        "astId": 7,
        "contract": "contracts/TamikoLink.sol:TamikoLink",
        "label": "_owner",
        "offset": 0,
        "slot": "0",
        "type": "t_address"
      },
      {
        "astId": 2783,
        "contract": "contracts/TamikoLink.sol:TamikoLink",
        "label": "tamiko",
        "offset": 0,
        "slot": "1",
        "type": "t_contract(Tamiko)2750"
      },
      {
        "astId": 2785,
        "contract": "contracts/TamikoLink.sol:TamikoLink",
        "label": "tamikoAddress",
        "offset": 0,
        "slot": "2",
        "type": "t_address"
      },
      {
        "astId": 2789,
        "contract": "contracts/TamikoLink.sol:TamikoLink",
        "label": "requests",
        "offset": 0,
        "slot": "3",
        "type": "t_array(t_struct(BreedRequest)2775_storage)dyn_storage"
      },
      {
        "astId": 2794,
        "contract": "contracts/TamikoLink.sol:TamikoLink",
        "label": "breedingTamikos",
        "offset": 0,
        "slot": "4",
        "type": "t_mapping(t_uint256,t_struct(BreedingTamiko)2780_storage)"
      }
    ],
    "types": {
      "t_address": {
        "encoding": "inplace",
        "label": "address",
        "numberOfBytes": "20"
      },
      "t_array(t_struct(BreedRequest)2775_storage)dyn_storage": {
        "base": "t_struct(BreedRequest)2775_storage",
        "encoding": "dynamic_array",
        "label": "struct TamikoLink.BreedRequest[]",
        "numberOfBytes": "32"
      },
      "t_bool": {
        "encoding": "inplace",
        "label": "bool",
        "numberOfBytes": "1"
      },
      "t_contract(Tamiko)2750": {
        "encoding": "inplace",
        "label": "contract Tamiko",
        "numberOfBytes": "20"
      },
      "t_mapping(t_uint256,t_struct(BreedingTamiko)2780_storage)": {
        "encoding": "mapping",
        "key": "t_uint256",
        "label": "mapping(uint256 => struct TamikoLink.BreedingTamiko)",
        "numberOfBytes": "32",
        "value": "t_struct(BreedingTamiko)2780_storage"
      },
      "t_struct(BreedRequest)2775_storage": {
        "encoding": "inplace",
        "label": "struct TamikoLink.BreedRequest",
        "members": [
          {
            "astId": 2760,
            "contract": "contracts/TamikoLink.sol:TamikoLink",
            "label": "id",
            "offset": 0,
            "slot": "0",
            "type": "t_uint256"
          },
          {
            "astId": 2762,
            "contract": "contracts/TamikoLink.sol:TamikoLink",
            "label": "createdAt",
            "offset": 0,
            "slot": "1",
            "type": "t_uint256"
          },
          {
            "astId": 2764,
            "contract": "contracts/TamikoLink.sol:TamikoLink",
            "label": "acceptedAt",
            "offset": 0,
            "slot": "2",
            "type": "t_uint256"
          },
          {
            "astId": 2766,
            "contract": "contracts/TamikoLink.sol:TamikoLink",
            "label": "cancelledAt",
            "offset": 0,
            "slot": "3",
            "type": "t_uint256"
          },
          {
            "astId": 2768,
            "contract": "contracts/TamikoLink.sol:TamikoLink",
            "label": "sender",
            "offset": 0,
            "slot": "4",
            "type": "t_address"
          },
          {
            "astId": 2770,
            "contract": "contracts/TamikoLink.sol:TamikoLink",
            "label": "receiver",
            "offset": 0,
            "slot": "5",
            "type": "t_address"
          },
          {
            "astId": 2772,
            "contract": "contracts/TamikoLink.sol:TamikoLink",
            "label": "senderTamiko",
            "offset": 0,
            "slot": "6",
            "type": "t_uint256"
          },
          {
            "astId": 2774,
            "contract": "contracts/TamikoLink.sol:TamikoLink",
            "label": "receiverTamiko",
            "offset": 0,
            "slot": "7",
            "type": "t_uint256"
          }
        ],
        "numberOfBytes": "256"
      },
      "t_struct(BreedingTamiko)2780_storage": {
        "encoding": "inplace",
        "label": "struct TamikoLink.BreedingTamiko",
        "members": [
          {
            "astId": 2777,
            "contract": "contracts/TamikoLink.sol:TamikoLink",
            "label": "isBreeding",
            "offset": 0,
            "slot": "0",
            "type": "t_bool"
          },
          {
            "astId": 2779,
            "contract": "contracts/TamikoLink.sol:TamikoLink",
            "label": "startedBreedingAt",
            "offset": 0,
            "slot": "1",
            "type": "t_uint256"
          }
        ],
        "numberOfBytes": "64"
      },
      "t_uint256": {
        "encoding": "inplace",
        "label": "uint256",
        "numberOfBytes": "32"
      }
    }
  }
}