{
  "address": "0x4ed7c70F96B99c776995fB64377f0d4aB3B0e1C1",
  "abi": [
    {
      "inputs": [
        {
          "internalType": "address",
          "name": "_tamikoRendererAddress",
          "type": "address"
        },
        {
          "internalType": "address",
          "name": "_tamikoStoreAddress",
          "type": "address"
        },
        {
          "internalType": "address",
          "name": "_tamikoLinkAddress",
          "type": "address"
        },
        {
          "internalType": "address",
          "name": "_foodContractAddress",
          "type": "address"
        },
        {
          "internalType": "address",
          "name": "_magicPotionContractAddress",
          "type": "address"
        },
        {
          "internalType": "address",
          "name": "_reviveAddress",
          "type": "address"
        }
      ],
      "stateMutability": "nonpayable",
      "type": "constructor"
    },
    {
      "inputs": [],
      "name": "ApprovalCallerNotOwnerNorApproved",
      "type": "error"
    },
    {
      "inputs": [],
      "name": "ApprovalQueryForNonexistentToken",
      "type": "error"
    },
    {
      "inputs": [],
      "name": "ApproveToCaller",
      "type": "error"
    },
    {
      "inputs": [],
      "name": "BalanceQueryForZeroAddress",
      "type": "error"
    },
    {
      "inputs": [],
      "name": "ExceedingSupply",
      "type": "error"
    },
    {
      "inputs": [],
      "name": "HasStartedHatching",
      "type": "error"
    },
    {
      "inputs": [],
      "name": "MintERC2309QuantityExceedsLimit",
      "type": "error"
    },
    {
      "inputs": [],
      "name": "MintToZeroAddress",
      "type": "error"
    },
    {
      "inputs": [],
      "name": "MintZeroQuantity",
      "type": "error"
    },
    {
      "inputs": [],
      "name": "NonExistentTamiko",
      "type": "error"
    },
    {
      "inputs": [],
      "name": "NotFromTamikoLinkContract",
      "type": "error"
    },
    {
      "inputs": [],
      "name": "NotFromTamikoStoreContract",
      "type": "error"
    },
    {
      "inputs": [],
      "name": "NotTamikoOwner",
      "type": "error"
    },
    {
      "inputs": [],
      "name": "OnlyOneMintAllowed",
      "type": "error"
    },
    {
      "inputs": [],
      "name": "OwnerQueryForNonexistentToken",
      "type": "error"
    },
    {
      "inputs": [],
      "name": "OwnershipNotInitializedForExtraData",
      "type": "error"
    },
    {
      "inputs": [],
      "name": "TransferCallerNotOwnerNorApproved",
      "type": "error"
    },
    {
      "inputs": [],
      "name": "TransferFromIncorrectOwner",
      "type": "error"
    },
    {
      "inputs": [],
      "name": "TransferToNonERC721ReceiverImplementer",
      "type": "error"
    },
    {
      "inputs": [],
      "name": "TransferToZeroAddress",
      "type": "error"
    },
    {
      "inputs": [],
      "name": "URIQueryForNonexistentToken",
      "type": "error"
    },
    {
      "anonymous": false,
      "inputs": [
        {
          "indexed": true,
          "internalType": "address",
          "name": "owner",
          "type": "address"
        },
        {
          "indexed": true,
          "internalType": "address",
          "name": "approved",
          "type": "address"
        },
        {
          "indexed": true,
          "internalType": "uint256",
          "name": "tokenId",
          "type": "uint256"
        }
      ],
      "name": "Approval",
      "type": "event"
    },
    {
      "anonymous": false,
      "inputs": [
        {
          "indexed": true,
          "internalType": "address",
          "name": "owner",
          "type": "address"
        },
        {
          "indexed": true,
          "internalType": "address",
          "name": "operator",
          "type": "address"
        },
        {
          "indexed": false,
          "internalType": "bool",
          "name": "approved",
          "type": "bool"
        }
      ],
      "name": "ApprovalForAll",
      "type": "event"
    },
    {
      "anonymous": false,
      "inputs": [
        {
          "indexed": true,
          "internalType": "uint256",
          "name": "fromTokenId",
          "type": "uint256"
        },
        {
          "indexed": false,
          "internalType": "uint256",
          "name": "toTokenId",
          "type": "uint256"
        },
        {
          "indexed": true,
          "internalType": "address",
          "name": "from",
          "type": "address"
        },
        {
          "indexed": true,
          "internalType": "address",
          "name": "to",
          "type": "address"
        }
      ],
      "name": "ConsecutiveTransfer",
      "type": "event"
    },
    {
      "anonymous": false,
      "inputs": [
        {
          "indexed": true,
          "internalType": "uint256",
          "name": "_tokenId",
          "type": "uint256"
        }
      ],
      "name": "Mint",
      "type": "event"
    },
    {
      "anonymous": false,
      "inputs": [
        {
          "indexed": true,
          "internalType": "address",
          "name": "previousOwner",
          "type": "address"
        },
        {
          "indexed": true,
          "internalType": "address",
          "name": "newOwner",
          "type": "address"
        }
      ],
      "name": "OwnershipTransferred",
      "type": "event"
    },
    {
      "anonymous": false,
      "inputs": [
        {
          "indexed": true,
          "internalType": "address",
          "name": "from",
          "type": "address"
        },
        {
          "indexed": true,
          "internalType": "address",
          "name": "to",
          "type": "address"
        },
        {
          "indexed": true,
          "internalType": "uint256",
          "name": "tokenId",
          "type": "uint256"
        }
      ],
      "name": "Transfer",
      "type": "event"
    },
    {
      "inputs": [
        {
          "internalType": "uint256",
          "name": "",
          "type": "uint256"
        }
      ],
      "name": "ELEMENTS",
      "outputs": [
        {
          "internalType": "string",
          "name": "",
          "type": "string"
        }
      ],
      "stateMutability": "view",
      "type": "function"
    },
    {
      "inputs": [],
      "name": "MAX_MINTABLE",
      "outputs": [
        {
          "internalType": "uint8",
          "name": "",
          "type": "uint8"
        }
      ],
      "stateMutability": "view",
      "type": "function"
    },
    {
      "inputs": [],
      "name": "MAX_SUPPLY",
      "outputs": [
        {
          "internalType": "uint8",
          "name": "",
          "type": "uint8"
        }
      ],
      "stateMutability": "view",
      "type": "function"
    },
    {
      "inputs": [
        {
          "internalType": "address",
          "name": "_contractAddress",
          "type": "address"
        }
      ],
      "name": "addNewItemContract",
      "outputs": [],
      "stateMutability": "nonpayable",
      "type": "function"
    },
    {
      "inputs": [
        {
          "internalType": "address",
          "name": "_address",
          "type": "address"
        }
      ],
      "name": "airdrop",
      "outputs": [],
      "stateMutability": "nonpayable",
      "type": "function"
    },
    {
      "inputs": [
        {
          "internalType": "address",
          "name": "to",
          "type": "address"
        },
        {
          "internalType": "uint256",
          "name": "tokenId",
          "type": "uint256"
        }
      ],
      "name": "approve",
      "outputs": [],
      "stateMutability": "nonpayable",
      "type": "function"
    },
    {
      "inputs": [
        {
          "internalType": "address",
          "name": "owner",
          "type": "address"
        }
      ],
      "name": "balanceOf",
      "outputs": [
        {
          "internalType": "uint256",
          "name": "",
          "type": "uint256"
        }
      ],
      "stateMutability": "view",
      "type": "function"
    },
    {
      "inputs": [],
      "name": "description",
      "outputs": [
        {
          "internalType": "string",
          "name": "",
          "type": "string"
        }
      ],
      "stateMutability": "view",
      "type": "function"
    },
    {
      "inputs": [
        {
          "internalType": "uint256",
          "name": "tokenId",
          "type": "uint256"
        }
      ],
      "name": "getApproved",
      "outputs": [
        {
          "internalType": "address",
          "name": "",
          "type": "address"
        }
      ],
      "stateMutability": "view",
      "type": "function"
    },
    {
      "inputs": [
        {
          "internalType": "address",
          "name": "",
          "type": "address"
        }
      ],
      "name": "hasAddressMinted",
      "outputs": [
        {
          "internalType": "bool",
          "name": "",
          "type": "bool"
        }
      ],
      "stateMutability": "view",
      "type": "function"
    },
    {
      "inputs": [
        {
          "internalType": "address",
          "name": "owner",
          "type": "address"
        },
        {
          "internalType": "address",
          "name": "operator",
          "type": "address"
        }
      ],
      "name": "isApprovedForAll",
      "outputs": [
        {
          "internalType": "bool",
          "name": "",
          "type": "bool"
        }
      ],
      "stateMutability": "view",
      "type": "function"
    },
    {
      "inputs": [
        {
          "internalType": "uint256",
          "name": "_tokenId",
          "type": "uint256"
        }
      ],
      "name": "isTamikoDead",
      "outputs": [
        {
          "internalType": "bool",
          "name": "",
          "type": "bool"
        }
      ],
      "stateMutability": "view",
      "type": "function"
    },
    {
      "inputs": [
        {
          "internalType": "uint256",
          "name": "",
          "type": "uint256"
        }
      ],
      "name": "itemContracts",
      "outputs": [
        {
          "internalType": "contract ITamikoItem",
          "name": "",
          "type": "address"
        }
      ],
      "stateMutability": "view",
      "type": "function"
    },
    {
      "inputs": [],
      "name": "mint",
      "outputs": [],
      "stateMutability": "payable",
      "type": "function"
    },
    {
      "inputs": [],
      "name": "name",
      "outputs": [
        {
          "internalType": "string",
          "name": "",
          "type": "string"
        }
      ],
      "stateMutability": "view",
      "type": "function"
    },
    {
      "inputs": [],
      "name": "owner",
      "outputs": [
        {
          "internalType": "address",
          "name": "",
          "type": "address"
        }
      ],
      "stateMutability": "view",
      "type": "function"
    },
    {
      "inputs": [
        {
          "internalType": "uint256",
          "name": "tokenId",
          "type": "uint256"
        }
      ],
      "name": "ownerOf",
      "outputs": [
        {
          "internalType": "address",
          "name": "",
          "type": "address"
        }
      ],
      "stateMutability": "view",
      "type": "function"
    },
    {
      "inputs": [
        {
          "internalType": "address",
          "name": "",
          "type": "address"
        }
      ],
      "name": "players",
      "outputs": [
        {
          "internalType": "uint256",
          "name": "",
          "type": "uint256"
        }
      ],
      "stateMutability": "view",
      "type": "function"
    },
    {
      "inputs": [
        {
          "internalType": "uint256",
          "name": "_tokenId",
          "type": "uint256"
        },
        {
          "internalType": "uint256",
          "name": "_itemId",
          "type": "uint256"
        },
        {
          "internalType": "uint256",
          "name": "_quantity",
          "type": "uint256"
        },
        {
          "internalType": "address",
          "name": "_from",
          "type": "address"
        }
      ],
      "name": "receivedTamikoStoreItem",
      "outputs": [],
      "stateMutability": "nonpayable",
      "type": "function"
    },
    {
      "inputs": [],
      "name": "renounceOwnership",
      "outputs": [],
      "stateMutability": "nonpayable",
      "type": "function"
    },
    {
      "inputs": [
        {
          "internalType": "address",
          "name": "from",
          "type": "address"
        },
        {
          "internalType": "address",
          "name": "to",
          "type": "address"
        },
        {
          "internalType": "uint256",
          "name": "tokenId",
          "type": "uint256"
        }
      ],
      "name": "safeTransferFrom",
      "outputs": [],
      "stateMutability": "nonpayable",
      "type": "function"
    },
    {
      "inputs": [
        {
          "internalType": "address",
          "name": "from",
          "type": "address"
        },
        {
          "internalType": "address",
          "name": "to",
          "type": "address"
        },
        {
          "internalType": "uint256",
          "name": "tokenId",
          "type": "uint256"
        },
        {
          "internalType": "bytes",
          "name": "_data",
          "type": "bytes"
        }
      ],
      "name": "safeTransferFrom",
      "outputs": [],
      "stateMutability": "nonpayable",
      "type": "function"
    },
    {
      "inputs": [
        {
          "internalType": "address",
          "name": "operator",
          "type": "address"
        },
        {
          "internalType": "bool",
          "name": "approved",
          "type": "bool"
        }
      ],
      "name": "setApprovalForAll",
      "outputs": [],
      "stateMutability": "nonpayable",
      "type": "function"
    },
    {
      "inputs": [
        {
          "internalType": "address",
          "name": "_tamikoStoreAddress",
          "type": "address"
        }
      ],
      "name": "setTamikoStore",
      "outputs": [],
      "stateMutability": "nonpayable",
      "type": "function"
    },
    {
      "inputs": [
        {
          "internalType": "uint256",
          "name": "",
          "type": "uint256"
        }
      ],
      "name": "skills",
      "outputs": [
        {
          "internalType": "uint256",
          "name": "power",
          "type": "uint256"
        },
        {
          "internalType": "uint256",
          "name": "speed",
          "type": "uint256"
        },
        {
          "internalType": "uint256",
          "name": "defense",
          "type": "uint256"
        }
      ],
      "stateMutability": "view",
      "type": "function"
    },
    {
      "inputs": [
        {
          "internalType": "uint256",
          "name": "_tokenId",
          "type": "uint256"
        }
      ],
      "name": "startHatchingProcess",
      "outputs": [],
      "stateMutability": "nonpayable",
      "type": "function"
    },
    {
      "inputs": [
        {
          "internalType": "bytes4",
          "name": "interfaceId",
          "type": "bytes4"
        }
      ],
      "name": "supportsInterface",
      "outputs": [
        {
          "internalType": "bool",
          "name": "",
          "type": "bool"
        }
      ],
      "stateMutability": "view",
      "type": "function"
    },
    {
      "inputs": [],
      "name": "symbol",
      "outputs": [
        {
          "internalType": "string",
          "name": "",
          "type": "string"
        }
      ],
      "stateMutability": "view",
      "type": "function"
    },
    {
      "inputs": [],
      "name": "tamikoLinkAddress",
      "outputs": [
        {
          "internalType": "address",
          "name": "",
          "type": "address"
        }
      ],
      "stateMutability": "view",
      "type": "function"
    },
    {
      "inputs": [],
      "name": "tamikoStoreAddress",
      "outputs": [
        {
          "internalType": "address",
          "name": "",
          "type": "address"
        }
      ],
      "stateMutability": "view",
      "type": "function"
    },
    {
      "inputs": [
        {
          "internalType": "uint256",
          "name": "",
          "type": "uint256"
        }
      ],
      "name": "tamikos",
      "outputs": [
        {
          "internalType": "uint256",
          "name": "seed",
          "type": "uint256"
        },
        {
          "internalType": "address",
          "name": "breeder",
          "type": "address"
        },
        {
          "internalType": "address",
          "name": "hatcher",
          "type": "address"
        },
        {
          "internalType": "uint256",
          "name": "element",
          "type": "uint256"
        },
        {
          "internalType": "uint256",
          "name": "level",
          "type": "uint256"
        },
        {
          "internalType": "bool",
          "name": "isAliveForever",
          "type": "bool"
        }
      ],
      "stateMutability": "view",
      "type": "function"
    },
    {
      "inputs": [
        {
          "internalType": "uint256",
          "name": "",
          "type": "uint256"
        }
      ],
      "name": "timings",
      "outputs": [
        {
          "internalType": "uint256",
          "name": "lastFed",
          "type": "uint256"
        },
        {
          "internalType": "uint256",
          "name": "hatchDate",
          "type": "uint256"
        }
      ],
      "stateMutability": "view",
      "type": "function"
    },
    {
      "inputs": [
        {
          "internalType": "uint256",
          "name": "_tokenId",
          "type": "uint256"
        }
      ],
      "name": "tokenURI",
      "outputs": [
        {
          "internalType": "string",
          "name": "",
          "type": "string"
        }
      ],
      "stateMutability": "view",
      "type": "function"
    },
    {
      "inputs": [],
      "name": "totalSupply",
      "outputs": [
        {
          "internalType": "uint256",
          "name": "",
          "type": "uint256"
        }
      ],
      "stateMutability": "view",
      "type": "function"
    },
    {
      "inputs": [
        {
          "internalType": "address",
          "name": "from",
          "type": "address"
        },
        {
          "internalType": "address",
          "name": "to",
          "type": "address"
        },
        {
          "internalType": "uint256",
          "name": "tokenId",
          "type": "uint256"
        }
      ],
      "name": "transferFrom",
      "outputs": [],
      "stateMutability": "nonpayable",
      "type": "function"
    },
    {
      "inputs": [
        {
          "internalType": "address",
          "name": "newOwner",
          "type": "address"
        }
      ],
      "name": "transferOwnership",
      "outputs": [],
      "stateMutability": "nonpayable",
      "type": "function"
    }
  ],
  "transactionHash": "0x0f962b744f4beb044c637e8984eac95aaff50f7e766913393c957cd4e06437e9",
  "args": [
    "0xc6e7DF5E7b4f2A278906862b61205850344D4e7d",
    "0x3Aa5ebB10DC797CAC828524e59A333d0A371443c",
    "0x59b670e9fA9D0A427751Af201D676719a970857b",
    "0xCf7Ed3AccA5a467e9e704C703E8D87F634fB0Fc9",
    "0xDc64a140Aa3E981100a9becA4E685f962f0cF6C9",
    "0x5FC8d32690cc91D4c39d9d3abcBD16989F875707"
  ],
  "numDeployments": 2,
  "solcInputHash": "092d08a304f7f6e0abe9bf16782e7ce6",
  "bytecode": "0x60806040526040518060400160405280601d81526020017f54616d696b6f206973206375746520616e64206c696b657320666f6f64000000815250600990805190602001906200005192919062000713565b506040518061014001604052806040518060400160405280600781526020017f6e65757472616c0000000000000000000000000000000000000000000000000081525081526020016040518060400160405280600481526020017f666972650000000000000000000000000000000000000000000000000000000081525081526020016040518060400160405280600381526020017f627567000000000000000000000000000000000000000000000000000000000081525081526020016040518060400160405280600581526020017f776174657200000000000000000000000000000000000000000000000000000081525081526020016040518060400160405280600881526020017f656c65637472696300000000000000000000000000000000000000000000000081525081526020016040518060400160405280600581526020017f67686f737400000000000000000000000000000000000000000000000000000081525081526020016040518060400160405280600481526020017f6461726b0000000000000000000000000000000000000000000000000000000081525081526020016040518060400160405280600381526020017f696365000000000000000000000000000000000000000000000000000000000081525081526020016040518060400160405280600581526020017f677261737300000000000000000000000000000000000000000000000000000081525081526020016040518060400160405280600581526020017f6d61676963000000000000000000000000000000000000000000000000000000815250815250600f90600a620002bc929190620007a4565b50348015620002ca57600080fd5b506040516200461a3803806200461a8339818101604052810190620002f09190620008f5565b6040518060400160405280600681526020017f54616d696b6f00000000000000000000000000000000000000000000000000008152506040518060400160405280600681526020017f54414d494b4f000000000000000000000000000000000000000000000000000081525081600290805190602001906200037492919062000713565b5080600390805190602001906200038d92919062000713565b506200039e6200064060201b60201c565b6000819055505050620003c6620003ba6200064560201b60201c565b6200064d60201b60201c565b84600a60006101000a81548173ffffffffffffffffffffffffffffffffffffffff021916908373ffffffffffffffffffffffffffffffffffffffff16021790555083600b60006101000a81548173ffffffffffffffffffffffffffffffffffffffff021916908373ffffffffffffffffffffffffffffffffffffffff16021790555084600c60006101000a81548173ffffffffffffffffffffffffffffffffffffffff021916908373ffffffffffffffffffffffffffffffffffffffff16021790555085600d60006101000a81548173ffffffffffffffffffffffffffffffffffffffff021916908373ffffffffffffffffffffffffffffffffffffffff16021790555083600e60006101000a81548173ffffffffffffffffffffffffffffffffffffffff021916908373ffffffffffffffffffffffffffffffffffffffff1602179055506019839080600181540180825580915050600190039060005260206000200160009091909190916101000a81548173ffffffffffffffffffffffffffffffffffffffff021916908373ffffffffffffffffffffffffffffffffffffffff1602179055506019829080600181540180825580915050600190039060005260206000200160009091909190916101000a81548173ffffffffffffffffffffffffffffffffffffffff021916908373ffffffffffffffffffffffffffffffffffffffff1602179055506019819080600181540180825580915050600190039060005260206000200160009091909190916101000a81548173ffffffffffffffffffffffffffffffffffffffff021916908373ffffffffffffffffffffffffffffffffffffffff160217905550505050505050620009f5565b600090565b600033905090565b6000600860009054906101000a900473ffffffffffffffffffffffffffffffffffffffff16905081600860006101000a81548173ffffffffffffffffffffffffffffffffffffffff021916908373ffffffffffffffffffffffffffffffffffffffff1602179055508173ffffffffffffffffffffffffffffffffffffffff168173ffffffffffffffffffffffffffffffffffffffff167f8be0079c531659141344cd1fd0a4f28419497f9722a3daafe3b4186f6b6457e060405160405180910390a35050565b8280546200072190620009c0565b90600052602060002090601f01602090048101928262000745576000855562000791565b82601f106200076057805160ff191683800117855562000791565b8280016001018555821562000791579182015b828111156200079057825182559160200191906001019062000773565b5b509050620007a09190620007fe565b5090565b82600a8101928215620007eb579160200282015b82811115620007ea578251829080519060200190620007d992919062000713565b5091602001919060010190620007b8565b5b509050620007fa91906200081d565b5090565b5b8082111562000819576000816000905550600101620007ff565b5090565b5b8082111562000841576000818162000837919062000845565b506001016200081e565b5090565b5080546200085390620009c0565b6000825580601f1062000867575062000888565b601f016020900490600052602060002090810190620008879190620007fe565b5b50565b600080fd5b600073ffffffffffffffffffffffffffffffffffffffff82169050919050565b6000620008bd8262000890565b9050919050565b620008cf81620008b0565b8114620008db57600080fd5b50565b600081519050620008ef81620008c4565b92915050565b60008060008060008060c087890312156200091557620009146200088b565b5b60006200092589828a01620008de565b96505060206200093889828a01620008de565b95505060406200094b89828a01620008de565b94505060606200095e89828a01620008de565b93505060806200097189828a01620008de565b92505060a06200098489828a01620008de565b9150509295509295509295565b7f4e487b7100000000000000000000000000000000000000000000000000000000600052602260045260246000fd5b60006002820490506001821680620009d957607f821691505b602082108103620009ef57620009ee62000991565b5b50919050565b613c158062000a056000396000f3fe60806040526004361061020f5760003560e01c806370a0823111610118578063b88d4fde116100a0578063e1981bbc1161006f578063e1981bbc146107e2578063e2eb41ff1461080d578063e985e9c51461084a578063efaad97e14610887578063f2fde38b146108b05761020f565b8063b88d4fde14610716578063c87b56dd1461073f578063c94ccfc71461077c578063d03c2b71146107b95761020f565b80638da5cb5b116100e75780638da5cb5b1461063057806395d89b411461065b5780639610f69114610686578063a22cb465146106c4578063abce22e2146106ed5761020f565b806370a0823114610574578063715018a6146105b15780637284e416146105c8578063863474f1146105f35761020f565b80632e3d14771161019b578063426fff781161016a578063426fff781461046757806342842e0e146104a457806350d15fbe146104cd5780636352211e1461050c5780636447077e146105495761020f565b80632e3d14771461039257806332cb6b0c146103cf5780633f879faf146103fa5780634086d5ba146104255761020f565b80631249c58b116101e25780631249c58b146102e2578063146801b0146102ec57806318160ddd1461031557806321860a051461034057806323b872dd146103695761020f565b806301ffc9a71461021457806306fdde0314610251578063081812fc1461027c578063095ea7b3146102b9575b600080fd5b34801561022057600080fd5b5061023b600480360381019061023691906129ed565b6108d9565b6040516102489190612a35565b60405180910390f35b34801561025d57600080fd5b5061026661096b565b6040516102739190612ae9565b60405180910390f35b34801561028857600080fd5b506102a3600480360381019061029e9190612b41565b6109fd565b6040516102b09190612baf565b60405180910390f35b3480156102c557600080fd5b506102e060048036038101906102db9190612bf6565b610a7c565b005b6102ea610bc0565b005b3480156102f857600080fd5b50610313600480360381019061030e9190612c36565b610e34565b005b34801561032157600080fd5b5061032a610ea2565b6040516103379190612c72565b60405180910390f35b34801561034c57600080fd5b5061036760048036038101906103629190612c36565b610eb9565b005b34801561037557600080fd5b50610390600480360381019061038b9190612c8d565b610ff8565b005b34801561039e57600080fd5b506103b960048036038101906103b49190612b41565b61131a565b6040516103c69190612d3f565b60405180910390f35b3480156103db57600080fd5b506103e4611359565b6040516103f19190612d76565b60405180910390f35b34801561040657600080fd5b5061040f61135e565b60405161041c9190612d76565b60405180910390f35b34801561043157600080fd5b5061044c60048036038101906104479190612b41565b611363565b60405161045e96959493929190612d91565b60405180910390f35b34801561047357600080fd5b5061048e60048036038101906104899190612b41565b6113ec565b60405161049b9190612ae9565b60405180910390f35b3480156104b057600080fd5b506104cb60048036038101906104c69190612c8d565b61148f565b005b3480156104d957600080fd5b506104f460048036038101906104ef9190612b41565b6114af565b60405161050393929190612df2565b60405180910390f35b34801561051857600080fd5b50610533600480360381019061052e9190612b41565b6114d9565b6040516105409190612baf565b60405180910390f35b34801561055557600080fd5b5061055e6114eb565b60405161056b9190612baf565b60405180910390f35b34801561058057600080fd5b5061059b60048036038101906105969190612c36565b611511565b6040516105a89190612c72565b60405180910390f35b3480156105bd57600080fd5b506105c66115c9565b005b3480156105d457600080fd5b506105dd6115dd565b6040516105ea9190612ae9565b60405180910390f35b3480156105ff57600080fd5b5061061a60048036038101906106159190612b41565b61166b565b6040516106279190612a35565b60405180910390f35b34801561063c57600080fd5b506106456116f6565b6040516106529190612baf565b60405180910390f35b34801561066757600080fd5b50610670611720565b60405161067d9190612ae9565b60405180910390f35b34801561069257600080fd5b506106ad60048036038101906106a89190612b41565b6117b2565b6040516106bb929190612e29565b60405180910390f35b3480156106d057600080fd5b506106eb60048036038101906106e69190612e7e565b6117d6565b005b3480156106f957600080fd5b50610714600480360381019061070f9190612b41565b61194d565b005b34801561072257600080fd5b5061073d60048036038101906107389190612ff3565b611b5f565b005b34801561074b57600080fd5b5061076660048036038101906107619190612b41565b611bd2565b6040516107739190612ae9565b60405180910390f35b34801561078857600080fd5b506107a3600480360381019061079e9190612c36565b611cf8565b6040516107b09190612a35565b60405180910390f35b3480156107c557600080fd5b506107e060048036038101906107db9190613076565b611d18565b005b3480156107ee57600080fd5b506107f7612050565b6040516108049190612baf565b60405180910390f35b34801561081957600080fd5b50610834600480360381019061082f9190612c36565b612076565b6040516108419190612c72565b60405180910390f35b34801561085657600080fd5b50610871600480360381019061086c91906130dd565b61208e565b60405161087e9190612a35565b60405180910390f35b34801561089357600080fd5b506108ae60048036038101906108a99190612c36565b612122565b005b3480156108bc57600080fd5b506108d760048036038101906108d29190612c36565b6121af565b005b60006301ffc9a760e01b827bffffffffffffffffffffffffffffffffffffffffffffffffffffffff1916148061093457506380ac58cd60e01b827bffffffffffffffffffffffffffffffffffffffffffffffffffffffff1916145b806109645750635b5e139f60e01b827bffffffffffffffffffffffffffffffffffffffffffffffffffffffff1916145b9050919050565b60606002805461097a9061314c565b80601f01602080910402602001604051908101604052809291908181526020018280546109a69061314c565b80156109f35780601f106109c8576101008083540402835291602001916109f3565b820191906000526020600020905b8154815290600101906020018083116109d657829003601f168201915b5050505050905090565b6000610a0882612232565b610a3e576040517fcf4700e400000000000000000000000000000000000000000000000000000000815260040160405180910390fd5b6006600083815260200190815260200160002060000160009054906101000a900473ffffffffffffffffffffffffffffffffffffffff169050919050565b6000610a87826114d9565b90508073ffffffffffffffffffffffffffffffffffffffff16610aa8612291565b73ffffffffffffffffffffffffffffffffffffffff1614610b0b57610ad481610acf612291565b61208e565b610b0a576040517fcfb3b94200000000000000000000000000000000000000000000000000000000815260040160405180910390fd5b5b826006600084815260200190815260200160002060000160006101000a81548173ffffffffffffffffffffffffffffffffffffffff021916908373ffffffffffffffffffffffffffffffffffffffff160217905550818373ffffffffffffffffffffffffffffffffffffffff168273ffffffffffffffffffffffffffffffffffffffff167f8c5be1e5ebec7d5bd14f71427d1e84f3dd0314c0f7b2291e5b200ac8c7c3b92560405160405180910390a4505050565b606460ff166001610bcf612299565b610bd991906131ac565b1115610c11576040517f1cf40df000000000000000000000000000000000000000000000000000000000815260040160405180910390fd5b6000610c1b6122ac565b9050610c283360016122b5565b6001601e60003373ffffffffffffffffffffffffffffffffffffffff1673ffffffffffffffffffffffffffffffffffffffff16815260200190815260200160002060006101000a81548160ff021916908315150217905550600c60009054906101000a900473ffffffffffffffffffffffffffffffffffffffff1673ffffffffffffffffffffffffffffffffffffffff16631e2e8c95600a6000336040518463ffffffff1660e01b8152600401610ce193929190613278565b600060405180830381600087803b158015610cfb57600080fd5b505af1158015610d0f573d6000803e3d6000fd5b50505050803342604051602001610d2893929190613318565b6040516020818303038152906040528051906020012060001c601a60008381526020019081526020016000206000018190555033601a600083815260200190815260200160002060010160006101000a81548173ffffffffffffffffffffffffffffffffffffffff021916908373ffffffffffffffffffffffffffffffffffffffff160217905550600d601b600083815260200190815260200160002060010181905550602b601b6000838152602001908152602001600020600201819055506045601b600083815260200190815260200160002060000181905550807f07883703ed0e86588a40d76551c92f8a4b329e3bf19765e0e6749473c1a8466560405160405180910390a250565b610e3c612470565b6019819080600181540180825580915050600190039060005260206000200160009091909190916101000a81548173ffffffffffffffffffffffffffffffffffffffff021916908373ffffffffffffffffffffffffffffffffffffffff16021790555050565b6000610eac6124ee565b6001546000540303905090565b600b60009054906101000a900473ffffffffffffffffffffffffffffffffffffffff1673ffffffffffffffffffffffffffffffffffffffff163373ffffffffffffffffffffffffffffffffffffffff1614610f40576040517fb661396d00000000000000000000000000000000000000000000000000000000815260040160405180910390fd5b6000610f4a6122ac565b9050610f578260016122b5565b808242604051602001610f6c93929190613318565b6040516020818303038152906040528051906020012060001c601a60008381526020019081526020016000206000018190555081601a600083815260200190815260200160002060010160006101000a81548173ffffffffffffffffffffffffffffffffffffffff021916908373ffffffffffffffffffffffffffffffffffffffff1602179055505050565b6000611003826124f3565b90508373ffffffffffffffffffffffffffffffffffffffff168173ffffffffffffffffffffffffffffffffffffffff161461106a576040517fa114810000000000000000000000000000000000000000000000000000000000815260040160405180910390fd5b600080611076846125bf565b9150915061108c8187611087612291565b6125e6565b6110d8576110a18661109c612291565b61208e565b6110d7576040517f59c896be00000000000000000000000000000000000000000000000000000000815260040160405180910390fd5b5b600073ffffffffffffffffffffffffffffffffffffffff168573ffffffffffffffffffffffffffffffffffffffff160361113e576040517fea553b3400000000000000000000000000000000000000000000000000000000815260040160405180910390fd5b61114b868686600161262a565b801561115657600082555b600560008773ffffffffffffffffffffffffffffffffffffffff1673ffffffffffffffffffffffffffffffffffffffff168152602001908152602001600020600081546001900391905081905550600560008673ffffffffffffffffffffffffffffffffffffffff1673ffffffffffffffffffffffffffffffffffffffff168152602001908152602001600020600081546001019190508190555061122485611200888887612630565b7c020000000000000000000000000000000000000000000000000000000017612658565b600460008681526020019081526020016000208190555060007c02000000000000000000000000000000000000000000000000000000008416036112aa57600060018501905060006004600083815260200190815260200160002054036112a85760005481146112a7578360046000838152602001908152602001600020819055505b5b505b838573ffffffffffffffffffffffffffffffffffffffff168773ffffffffffffffffffffffffffffffffffffffff167fddf252ad1be2c89b69c2b068fc378daa952ba7f163c4a11628f55a4df523b3ef60405160405180910390a46113128686866001612683565b505050505050565b6019818154811061132a57600080fd5b906000526020600020016000915054906101000a900473ffffffffffffffffffffffffffffffffffffffff1681565b60c881565b606481565b601a6020528060005260406000206000915090508060000154908060010160009054906101000a900473ffffffffffffffffffffffffffffffffffffffff16908060020160009054906101000a900473ffffffffffffffffffffffffffffffffffffffff16908060030154908060040154908060050160009054906101000a900460ff16905086565b600f81600a81106113fc57600080fd5b01600091509050805461140e9061314c565b80601f016020809104026020016040519081016040528092919081815260200182805461143a9061314c565b80156114875780601f1061145c57610100808354040283529160200191611487565b820191906000526020600020905b81548152906001019060200180831161146a57829003601f168201915b505050505081565b6114aa83838360405180602001604052806000815250611b5f565b505050565b601b6020528060005260406000206000915090508060000154908060010154908060020154905083565b60006114e4826124f3565b9050919050565b600a60009054906101000a900473ffffffffffffffffffffffffffffffffffffffff1681565b60008073ffffffffffffffffffffffffffffffffffffffff168273ffffffffffffffffffffffffffffffffffffffff1603611578576040517f8f4eb60400000000000000000000000000000000000000000000000000000000815260040160405180910390fd5b67ffffffffffffffff600560008473ffffffffffffffffffffffffffffffffffffffff1673ffffffffffffffffffffffffffffffffffffffff16815260200190815260200160002054169050919050565b6115d1612470565b6115db6000612689565b565b600980546115ea9061314c565b80601f01602080910402602001604051908101604052809291908181526020018280546116169061314c565b80156116635780601f1061163857610100808354040283529160200191611663565b820191906000526020600020905b81548152906001019060200180831161164657829003601f168201915b505050505081565b600081611676610ea2565b81106116ae576040517fe57e033a00000000000000000000000000000000000000000000000000000000815260040160405180910390fd5b6000601c60008581526020019081526020016000206040518060400160405290816000820154815260200160018201548152505090506116ed8161274f565b92505050919050565b6000600860009054906101000a900473ffffffffffffffffffffffffffffffffffffffff16905090565b60606003805461172f9061314c565b80601f016020809104026020016040519081016040528092919081815260200182805461175b9061314c565b80156117a85780601f1061177d576101008083540402835291602001916117a8565b820191906000526020600020905b81548152906001019060200180831161178b57829003601f168201915b5050505050905090565b601c6020528060005260406000206000915090508060000154908060010154905082565b6117de612291565b73ffffffffffffffffffffffffffffffffffffffff168273ffffffffffffffffffffffffffffffffffffffff1603611842576040517fb06307db00000000000000000000000000000000000000000000000000000000815260040160405180910390fd5b806007600061184f612291565b73ffffffffffffffffffffffffffffffffffffffff1673ffffffffffffffffffffffffffffffffffffffff16815260200190815260200160002060008473ffffffffffffffffffffffffffffffffffffffff1673ffffffffffffffffffffffffffffffffffffffff16815260200190815260200160002060006101000a81548160ff0219169083151502179055508173ffffffffffffffffffffffffffffffffffffffff166118fc612291565b73ffffffffffffffffffffffffffffffffffffffff167f17307eab39ab6107e8899845ad3d59bd9653f200f220920489ca2b5937696c31836040516119419190612a35565b60405180910390a35050565b80611956610ea2565b811061198e576040517fe57e033a00000000000000000000000000000000000000000000000000000000815260040160405180910390fd5b813373ffffffffffffffffffffffffffffffffffffffff166119af826114d9565b73ffffffffffffffffffffffffffffffffffffffff16146119fc576040517fd497481100000000000000000000000000000000000000000000000000000000815260040160405180910390fd5b826000601c6000838152602001908152602001600020600101541115611a4e576040517f2d91267f00000000000000000000000000000000000000000000000000000000815260040160405180910390fd5b611ab36040518060400160405280600781526020017f656c656d656e7400000000000000000000000000000000000000000000000000815250601a60008781526020019081526020016000206000015460006001600a611aae91906131ac565b61277d565b601a60008681526020019081526020016000206003018190555033601a600086815260200190815260200160002060020160006101000a81548173ffffffffffffffffffffffffffffffffffffffff021916908373ffffffffffffffffffffffffffffffffffffffff1602179055506001601a60008681526020019081526020016000206004018190555042601c60008681526020019081526020016000206001018190555050505050565b611b6a848484610ff8565b60008373ffffffffffffffffffffffffffffffffffffffff163b14611bcc57611b95848484846127e6565b611bcb576040517fd1a57ed600000000000000000000000000000000000000000000000000000000815260040160405180910390fd5b5b50505050565b606081611bdd610ea2565b8110611c15576040517fe57e033a00000000000000000000000000000000000000000000000000000000815260040160405180910390fd5b600d60009054906101000a900473ffffffffffffffffffffffffffffffffffffffff1673ffffffffffffffffffffffffffffffffffffffff1663ad6e07d4601a6000868152602001908152602001600020601c6000878152602001908152602001600020601b60008881526020019081526020016000206040518463ffffffff1660e01b8152600401611caa9392919061357f565b600060405180830381865afa158015611cc7573d6000803e3d6000fd5b505050506040513d6000823e3d601f19601f82011682018060405250810190611cf09190613659565b915050919050565b601e6020528060005260406000206000915054906101000a900460ff1681565b83611d21610ea2565b8110611d59576040517fe57e033a00000000000000000000000000000000000000000000000000000000815260040160405180910390fd5b600a60009054906101000a900473ffffffffffffffffffffffffffffffffffffffff1673ffffffffffffffffffffffffffffffffffffffff163373ffffffffffffffffffffffffffffffffffffffff1614611de0576040517ff0e53eac00000000000000000000000000000000000000000000000000000000815260040160405180910390fd5b600080600060198781548110611df957611df86136a2565b5b9060005260206000200160009054906101000a900473ffffffffffffffffffffffffffffffffffffffff1673ffffffffffffffffffffffffffffffffffffffff16638cbde2c7601a60008b8152602001908152602001600020601c60008c8152602001908152602001600020601b60008d81526020019081526020016000206040518463ffffffff1660e01b8152600401611e969392919061357f565b61016060405180830381865afa158015611eb4573d6000803e3d6000fd5b505050506040513d601f19601f82011682018060405250810190611ed89190613869565b9250925092508260200151601a60008a815260200190815260200160002060010160006101000a81548173ffffffffffffffffffffffffffffffffffffffff021916908373ffffffffffffffffffffffffffffffffffffffff1602179055508260800151601a60008a8152602001908152602001600020600401819055508260000151601a60008a8152602001908152602001600020600001819055508160000151601c60008a8152602001908152602001600020600001819055508060000151601b60008a8152602001908152602001600020600001819055508060200151601b60008a8152602001908152602001600020600101819055508060400151601b60008a815260200190815260200160002060020181905550601d60008673ffffffffffffffffffffffffffffffffffffffff1673ffffffffffffffffffffffffffffffffffffffff1681526020019081526020016000206000815480929190612041906138be565b91905055505050505050505050565b600b60009054906101000a900473ffffffffffffffffffffffffffffffffffffffff1681565b601d6020528060005260406000206000915090505481565b6000600760008473ffffffffffffffffffffffffffffffffffffffff1673ffffffffffffffffffffffffffffffffffffffff16815260200190815260200160002060008373ffffffffffffffffffffffffffffffffffffffff1673ffffffffffffffffffffffffffffffffffffffff16815260200190815260200160002060009054906101000a900460ff16905092915050565b61212a612470565b80600a60006101000a81548173ffffffffffffffffffffffffffffffffffffffff021916908373ffffffffffffffffffffffffffffffffffffffff16021790555080600c60006101000a81548173ffffffffffffffffffffffffffffffffffffffff021916908373ffffffffffffffffffffffffffffffffffffffff16021790555050565b6121b7612470565b600073ffffffffffffffffffffffffffffffffffffffff168173ffffffffffffffffffffffffffffffffffffffff1603612226576040517f08c379a000000000000000000000000000000000000000000000000000000000815260040161221d90613978565b60405180910390fd5b61222f81612689565b50565b60008161223d6124ee565b1115801561224c575060005482105b801561228a575060007c0100000000000000000000000000000000000000000000000000000000600460008581526020019081526020016000205416145b9050919050565b600033905090565b60006122a36124ee565b60005403905090565b60008054905090565b600080549050600082036122f5576040517fb562e8dd00000000000000000000000000000000000000000000000000000000815260040160405180910390fd5b612302600084838561262a565b600160406001901b178202600560008573ffffffffffffffffffffffffffffffffffffffff1673ffffffffffffffffffffffffffffffffffffffff168152602001908152602001600020600082825401925050819055506123798361236a6000866000612630565b61237385612936565b17612658565b6004600083815260200190815260200160002081905550600080838301905073ffffffffffffffffffffffffffffffffffffffff85169150828260007fddf252ad1be2c89b69c2b068fc378daa952ba7f163c4a11628f55a4df523b3ef600080a4600183015b81811461241a57808360007fddf252ad1be2c89b69c2b068fc378daa952ba7f163c4a11628f55a4df523b3ef600080a46001810190506123df565b5060008203612455576040517f2e07630000000000000000000000000000000000000000000000000000000000815260040160405180910390fd5b80600081905550505061246b6000848385612683565b505050565b612478612946565b73ffffffffffffffffffffffffffffffffffffffff166124966116f6565b73ffffffffffffffffffffffffffffffffffffffff16146124ec576040517f08c379a00000000000000000000000000000000000000000000000000000000081526004016124e3906139e4565b60405180910390fd5b565b600090565b600080829050806125026124ee565b11612588576000548110156125875760006004600083815260200190815260200160002054905060007c0100000000000000000000000000000000000000000000000000000000821603612585575b6000810361257b576004600083600190039350838152602001908152602001600020549050612551565b80925050506125ba565b505b5b6040517fdf2d9b4200000000000000000000000000000000000000000000000000000000815260040160405180910390fd5b919050565b60008060006006600085815260200190815260200160002090508092508254915050915091565b600073ffffffffffffffffffffffffffffffffffffffff8316925073ffffffffffffffffffffffffffffffffffffffff821691508382148383141790509392505050565b50505050565b60008060e883901c905060e861264786868461294e565b62ffffff16901b9150509392505050565b600073ffffffffffffffffffffffffffffffffffffffff83169250814260a01b178317905092915050565b50505050565b6000600860009054906101000a900473ffffffffffffffffffffffffffffffffffffffff16905081600860006101000a81548173ffffffffffffffffffffffffffffffffffffffff021916908373ffffffffffffffffffffffffffffffffffffffff1602179055508173ffffffffffffffffffffffffffffffffffffffff168173ffffffffffffffffffffffffffffffffffffffff167f8be0079c531659141344cd1fd0a4f28419497f9722a3daafe3b4186f6b6457e060405160405180910390a35050565b6000808260000151036127655760009050612778565b6127758260000151610258612957565b90505b919050565b600082821161278e578290506127de565b82838361279b9190613a04565b86866040516020016127ae929190613a74565b6040516020818303038152906040528051906020012060001c6127d19190613acb565b6127db91906131ac565b90505b949350505050565b60008373ffffffffffffffffffffffffffffffffffffffff1663150b7a0261280c612291565b8786866040518563ffffffff1660e01b815260040161282e9493929190613b51565b6020604051808303816000875af192505050801561286a57506040513d601f19601f820116820180604052508101906128679190613bb2565b60015b6128e3573d806000811461289a576040519150601f19603f3d011682016040523d82523d6000602084013e61289f565b606091505b5060008151036128db576040517fd1a57ed600000000000000000000000000000000000000000000000000000000815260040160405180910390fd5b805181602001fd5b63150b7a0260e01b7bffffffffffffffffffffffffffffffffffffffffffffffffffffffff1916817bffffffffffffffffffffffffffffffffffffffffffffffffffffffff191614915050949350505050565b60006001821460e11b9050919050565b600033905090565b60009392505050565b6000808303612969576000905061297b565b818361297591906131ac565b42101590505b92915050565b6000604051905090565b600080fd5b600080fd5b60007fffffffff0000000000000000000000000000000000000000000000000000000082169050919050565b6129ca81612995565b81146129d557600080fd5b50565b6000813590506129e7816129c1565b92915050565b600060208284031215612a0357612a0261298b565b5b6000612a11848285016129d8565b91505092915050565b60008115159050919050565b612a2f81612a1a565b82525050565b6000602082019050612a4a6000830184612a26565b92915050565b600081519050919050565b600082825260208201905092915050565b60005b83811015612a8a578082015181840152602081019050612a6f565b83811115612a99576000848401525b50505050565b6000601f19601f8301169050919050565b6000612abb82612a50565b612ac58185612a5b565b9350612ad5818560208601612a6c565b612ade81612a9f565b840191505092915050565b60006020820190508181036000830152612b038184612ab0565b905092915050565b6000819050919050565b612b1e81612b0b565b8114612b2957600080fd5b50565b600081359050612b3b81612b15565b92915050565b600060208284031215612b5757612b5661298b565b5b6000612b6584828501612b2c565b91505092915050565b600073ffffffffffffffffffffffffffffffffffffffff82169050919050565b6000612b9982612b6e565b9050919050565b612ba981612b8e565b82525050565b6000602082019050612bc46000830184612ba0565b92915050565b612bd381612b8e565b8114612bde57600080fd5b50565b600081359050612bf081612bca565b92915050565b60008060408385031215612c0d57612c0c61298b565b5b6000612c1b85828601612be1565b9250506020612c2c85828601612b2c565b9150509250929050565b600060208284031215612c4c57612c4b61298b565b5b6000612c5a84828501612be1565b91505092915050565b612c6c81612b0b565b82525050565b6000602082019050612c876000830184612c63565b92915050565b600080600060608486031215612ca657612ca561298b565b5b6000612cb486828701612be1565b9350506020612cc586828701612be1565b9250506040612cd686828701612b2c565b9150509250925092565b6000819050919050565b6000612d05612d00612cfb84612b6e565b612ce0565b612b6e565b9050919050565b6000612d1782612cea565b9050919050565b6000612d2982612d0c565b9050919050565b612d3981612d1e565b82525050565b6000602082019050612d546000830184612d30565b92915050565b600060ff82169050919050565b612d7081612d5a565b82525050565b6000602082019050612d8b6000830184612d67565b92915050565b600060c082019050612da66000830189612c63565b612db36020830188612ba0565b612dc06040830187612ba0565b612dcd6060830186612c63565b612dda6080830185612c63565b612de760a0830184612a26565b979650505050505050565b6000606082019050612e076000830186612c63565b612e146020830185612c63565b612e216040830184612c63565b949350505050565b6000604082019050612e3e6000830185612c63565b612e4b6020830184612c63565b9392505050565b612e5b81612a1a565b8114612e6657600080fd5b50565b600081359050612e7881612e52565b92915050565b60008060408385031215612e9557612e9461298b565b5b6000612ea385828601612be1565b9250506020612eb485828601612e69565b9150509250929050565b600080fd5b600080fd5b7f4e487b7100000000000000000000000000000000000000000000000000000000600052604160045260246000fd5b612f0082612a9f565b810181811067ffffffffffffffff82111715612f1f57612f1e612ec8565b5b80604052505050565b6000612f32612981565b9050612f3e8282612ef7565b919050565b600067ffffffffffffffff821115612f5e57612f5d612ec8565b5b612f6782612a9f565b9050602081019050919050565b82818337600083830152505050565b6000612f96612f9184612f43565b612f28565b905082815260208101848484011115612fb257612fb1612ec3565b5b612fbd848285612f74565b509392505050565b600082601f830112612fda57612fd9612ebe565b5b8135612fea848260208601612f83565b91505092915050565b6000806000806080858703121561300d5761300c61298b565b5b600061301b87828801612be1565b945050602061302c87828801612be1565b935050604061303d87828801612b2c565b925050606085013567ffffffffffffffff81111561305e5761305d612990565b5b61306a87828801612fc5565b91505092959194509250565b600080600080608085870312156130905761308f61298b565b5b600061309e87828801612b2c565b94505060206130af87828801612b2c565b93505060406130c087828801612b2c565b92505060606130d187828801612be1565b91505092959194509250565b600080604083850312156130f4576130f361298b565b5b600061310285828601612be1565b925050602061311385828601612be1565b9150509250929050565b7f4e487b7100000000000000000000000000000000000000000000000000000000600052602260045260246000fd5b6000600282049050600182168061316457607f821691505b6020821081036131775761317661311d565b5b50919050565b7f4e487b7100000000000000000000000000000000000000000000000000000000600052601160045260246000fd5b60006131b782612b0b565b91506131c283612b0b565b9250827fffffffffffffffffffffffffffffffffffffffffffffffffffffffffffffffff038211156131f7576131f661317d565b5b828201905092915050565b6000819050919050565b600061322761322261321d84613202565b612ce0565b612b0b565b9050919050565b6132378161320c565b82525050565b6000819050919050565b600061326261325d6132588461323d565b612ce0565b612b0b565b9050919050565b61327281613247565b82525050565b600060608201905061328d600083018661322e565b61329a6020830185613269565b6132a76040830184612ba0565b949350505050565b6000819050919050565b6132ca6132c582612b0b565b6132af565b82525050565b60008160601b9050919050565b60006132e8826132d0565b9050919050565b60006132fa826132dd565b9050919050565b61331261330d82612b8e565b6132ef565b82525050565b600061332482866132b9565b6020820191506133348285613301565b60148201915061334482846132b9565b602082019150819050949350505050565b60008160001c9050919050565b6000819050919050565b600061337f61337a83613355565b613362565b9050919050565b61338f81612b0b565b82525050565b600073ffffffffffffffffffffffffffffffffffffffff82169050919050565b60006133c86133c383613355565b613395565b9050919050565b6133d881612b8e565b82525050565b600060ff82169050919050565b60006133fe6133f983613355565b6133de565b9050919050565b61340e81612a1a565b82525050565b60c0820160008083015490506134298161336c565b6134366000860182613386565b5060018301549050613447816133b5565b61345460208601826133cf565b5060028301549050613465816133b5565b61347260408601826133cf565b50600383015490506134838161336c565b6134906060860182613386565b50600483015490506134a18161336c565b6134ae6080860182613386565b50600583015490506134bf816133eb565b6134cc60a0860182613405565b5050505050565b6040820160008083015490506134e88161336c565b6134f56000860182613386565b50600183015490506135068161336c565b6135136020860182613386565b5050505050565b60608201600080830154905061352f8161336c565b61353c6000860182613386565b506001830154905061354d8161336c565b61355a6020860182613386565b506002830154905061356b8161336c565b6135786040860182613386565b5050505050565b6000610160820190506135956000830186613414565b6135a260c08301856134d3565b6135b061010083018461351a565b949350505050565b600067ffffffffffffffff8211156135d3576135d2612ec8565b5b6135dc82612a9f565b9050602081019050919050565b60006135fc6135f7846135b8565b612f28565b90508281526020810184848401111561361857613617612ec3565b5b613623848285612a6c565b509392505050565b600082601f8301126136405761363f612ebe565b5b81516136508482602086016135e9565b91505092915050565b60006020828403121561366f5761366e61298b565b5b600082015167ffffffffffffffff81111561368d5761368c612990565b5b6136998482850161362b565b91505092915050565b7f4e487b7100000000000000000000000000000000000000000000000000000000600052603260045260246000fd5b600080fd5b6000815190506136e581612b15565b92915050565b6000815190506136fa81612bca565b92915050565b60008151905061370f81612e52565b92915050565b600060c0828403121561372b5761372a6136d1565b5b61373560c0612f28565b90506000613745848285016136d6565b6000830152506020613759848285016136eb565b602083015250604061376d848285016136eb565b6040830152506060613781848285016136d6565b6060830152506080613795848285016136d6565b60808301525060a06137a984828501613700565b60a08301525092915050565b6000604082840312156137cb576137ca6136d1565b5b6137d56040612f28565b905060006137e5848285016136d6565b60008301525060206137f9848285016136d6565b60208301525092915050565b60006060828403121561381b5761381a6136d1565b5b6138256060612f28565b90506000613835848285016136d6565b6000830152506020613849848285016136d6565b602083015250604061385d848285016136d6565b60408301525092915050565b600080600061016084860312156138835761388261298b565b5b600061389186828701613715565b93505060c06138a2868287016137b5565b9250506101006138b486828701613805565b9150509250925092565b60006138c982612b0b565b91507fffffffffffffffffffffffffffffffffffffffffffffffffffffffffffffffff82036138fb576138fa61317d565b5b600182019050919050565b7f4f776e61626c653a206e6577206f776e657220697320746865207a65726f206160008201527f6464726573730000000000000000000000000000000000000000000000000000602082015250565b6000613962602683612a5b565b915061396d82613906565b604082019050919050565b6000602082019050818103600083015261399181613955565b9050919050565b7f4f776e61626c653a2063616c6c6572206973206e6f7420746865206f776e6572600082015250565b60006139ce602083612a5b565b91506139d982613998565b602082019050919050565b600060208201905081810360008301526139fd816139c1565b9050919050565b6000613a0f82612b0b565b9150613a1a83612b0b565b925082821015613a2d57613a2c61317d565b5b828203905092915050565b600081905092915050565b6000613a4e82612a50565b613a588185613a38565b9350613a68818560208601612a6c565b80840191505092915050565b6000613a808285613a43565b9150613a8c82846132b9565b6020820191508190509392505050565b7f4e487b7100000000000000000000000000000000000000000000000000000000600052601260045260246000fd5b6000613ad682612b0b565b9150613ae183612b0b565b925082613af157613af0613a9c565b5b828206905092915050565b600081519050919050565b600082825260208201905092915050565b6000613b2382613afc565b613b2d8185613b07565b9350613b3d818560208601612a6c565b613b4681612a9f565b840191505092915050565b6000608082019050613b666000830187612ba0565b613b736020830186612ba0565b613b806040830185612c63565b8181036060830152613b928184613b18565b905095945050505050565b600081519050613bac816129c1565b92915050565b600060208284031215613bc857613bc761298b565b5b6000613bd684828501613b9d565b9150509291505056fea2646970667358221220853b7d07ac0b3b4fb17f18e44355b0aa0a6a7790d64e9526cde853d3eb9e0cb364736f6c634300080e0033",
  "devdoc": {
    "kind": "dev",
    "methods": {
      "addNewItemContract(address)": {
        "details": "Pushes a new contract address into `itemContracts`",
        "params": {
          "_contractAddress": "Address of the new item contract."
        }
      },
      "airdrop(address)": {
        "details": "Airdrops a Tamiko to an address - This is used when breeding two Tamikos from TamikoLink",
        "params": {
          "_address": "Recipient's address"
        }
      },
      "approve(address,uint256)": {
        "details": "Gives permission to `to` to transfer `tokenId` token to another account. The approval is cleared when the token is transferred. Only a single account can be approved at a time, so approving the zero address clears previous approvals. Requirements: - The caller must own the token or be an approved operator. - `tokenId` must exist. Emits an {Approval} event."
      },
      "balanceOf(address)": {
        "details": "Returns the number of tokens in `owner`'s account."
      },
      "constructor": {
        "details": "Tamiko contructor - Sets contract addresses.",
        "params": {
          "_foodContractAddress": "Address of Food item contract.",
          "_magicPotionContractAddress": "Address of MagicPotion item contract.",
          "_reviveAddress": "Address of Revive item contract.",
          "_tamikoLinkAddress": "Address of TamikoLink contract.",
          "_tamikoRendererAddress": "Address of TamikoRenderer contract.",
          "_tamikoStoreAddress": "Address of TamikoStore contract."
        }
      },
      "getApproved(uint256)": {
        "details": "Returns the account approved for `tokenId` token. Requirements: - `tokenId` must exist."
      },
      "isApprovedForAll(address,address)": {
        "details": "Returns if the `operator` is allowed to manage all of the assets of `owner`. See {setApprovalForAll}."
      },
      "isTamikoDead(uint256)": {
        "details": "Checks if a specific tamiko is dead",
        "params": {
          "_tokenId": "Tamiko's token ID."
        },
        "returns": {
          "_0": "bool"
        }
      },
      "mint()": {
        "details": "Mints a Tamiko: It stores a seed and the breeder as well as airdrops 10 Food item to the sender"
      },
      "name()": {
        "details": "Returns the token collection name."
      },
      "owner()": {
        "details": "Returns the address of the current owner."
      },
      "ownerOf(uint256)": {
        "details": "Returns the owner of the `tokenId` token. Requirements: - `tokenId` must exist."
      },
      "receivedTamikoStoreItem(uint256,uint256,uint256,address)": {
        "details": "Checks if a specific tamiko is dead",
        "params": {
          "_from": "Address sending the item",
          "_itemId": "Item's index from `itemContracts` array",
          "_quantity": "Quantity of Item being used",
          "_tokenId": "Tamiko's token ID."
        }
      },
      "renounceOwnership()": {
        "details": "Leaves the contract without owner. It will not be possible to call `onlyOwner` functions anymore. Can only be called by the current owner. NOTE: Renouncing ownership will leave the contract without an owner, thereby removing any functionality that is only available to the owner."
      },
      "safeTransferFrom(address,address,uint256)": {
        "details": "Equivalent to `safeTransferFrom(from, to, tokenId, '')`."
      },
      "safeTransferFrom(address,address,uint256,bytes)": {
        "details": "Safely transfers `tokenId` token from `from` to `to`. Requirements: - `from` cannot be the zero address. - `to` cannot be the zero address. - `tokenId` token must exist and be owned by `from`. - If the caller is not `from`, it must be approved to move this token by either {approve} or {setApprovalForAll}. - If `to` refers to a smart contract, it must implement {IERC721Receiver-onERC721Received}, which is called upon a safe transfer. Emits a {Transfer} event."
      },
      "setApprovalForAll(address,bool)": {
        "details": "Approve or remove `operator` as an operator for the caller. Operators can call {transferFrom} or {safeTransferFrom} for any token owned by the caller. Requirements: - The `operator` cannot be the caller. Emits an {ApprovalForAll} event."
      },
      "setTamikoStore(address)": {
        "details": "Updates TamikoStore address.",
        "params": {
          "_tamikoStoreAddress": "Address of TamikoStore contract."
        }
      },
      "startHatchingProcess(uint256)": {
        "details": "Starts the hatching process of a specific Tamiko",
        "params": {
          "_tokenId": "Tamiko's token ID."
        }
      },
      "supportsInterface(bytes4)": {
        "details": "Returns true if this contract implements the interface defined by `interfaceId`. See the corresponding [EIP section](https://eips.ethereum.org/EIPS/eip-165#how-interfaces-are-identified) to learn more about how these ids are created. This function call must use less than 30000 gas."
      },
      "symbol()": {
        "details": "Returns the token collection symbol."
      },
      "tokenURI(uint256)": {
        "details": "Returns a specific Tamiko's metadata",
        "params": {
          "_tokenId": "Tamiko's token ID."
        },
        "returns": {
          "_0": "string JSON as base64"
        }
      },
      "totalSupply()": {
        "details": "Returns the total number of tokens in existence. Burned tokens will reduce the count. To get the total number of tokens minted, please see {_totalMinted}."
      },
      "transferFrom(address,address,uint256)": {
        "details": "Transfers `tokenId` from `from` to `to`. Requirements: - `from` cannot be the zero address. - `to` cannot be the zero address. - `tokenId` token must be owned by `from`. - If the caller is not `from`, it must be approved to move this token by either {approve} or {setApprovalForAll}. Emits a {Transfer} event."
      },
      "transferOwnership(address)": {
        "details": "Transfers ownership of the contract to a new account (`newOwner`). Can only be called by the current owner."
      }
    },
    "version": 1
  },
  "userdoc": {
    "errors": {
      "ApprovalCallerNotOwnerNorApproved()": [
        {
          "notice": "The caller must own the token or be an approved operator."
        }
      ],
      "ApprovalQueryForNonexistentToken()": [
        {
          "notice": "The token does not exist."
        }
      ],
      "ApproveToCaller()": [
        {
          "notice": "The caller cannot approve to their own address."
        }
      ],
      "BalanceQueryForZeroAddress()": [
        {
          "notice": "Cannot query the balance for the zero address."
        }
      ],
      "MintERC2309QuantityExceedsLimit()": [
        {
          "notice": "The `quantity` minted with ERC2309 exceeds the safety limit."
        }
      ],
      "MintToZeroAddress()": [
        {
          "notice": "Cannot mint to the zero address."
        }
      ],
      "MintZeroQuantity()": [
        {
          "notice": "The quantity of tokens minted must be more than zero."
        }
      ],
      "OwnerQueryForNonexistentToken()": [
        {
          "notice": "The token does not exist."
        }
      ],
      "OwnershipNotInitializedForExtraData()": [
        {
          "notice": "The `extraData` cannot be set on an unintialized ownership slot."
        }
      ],
      "TransferCallerNotOwnerNorApproved()": [
        {
          "notice": "The caller must own the token or be an approved operator."
        }
      ],
      "TransferFromIncorrectOwner()": [
        {
          "notice": "The token must be owned by `from`."
        }
      ],
      "TransferToNonERC721ReceiverImplementer()": [
        {
          "notice": "Cannot safely transfer to a contract that does not implement the ERC721Receiver interface."
        }
      ],
      "TransferToZeroAddress()": [
        {
          "notice": "Cannot transfer to the zero address."
        }
      ],
      "URIQueryForNonexistentToken()": [
        {
          "notice": "The token does not exist."
        }
      ]
    },
    "kind": "user",
    "methods": {},
    "version": 1
  },
  "storageLayout": {
    "storage": [
      {
        "astId": 4704,
        "contract": "contracts/Tamiko.sol:Tamiko",
        "label": "_currentIndex",
        "offset": 0,
        "slot": "0",
        "type": "t_uint256"
      },
      {
        "astId": 4706,
        "contract": "contracts/Tamiko.sol:Tamiko",
        "label": "_burnCounter",
        "offset": 0,
        "slot": "1",
        "type": "t_uint256"
      },
      {
        "astId": 4708,
        "contract": "contracts/Tamiko.sol:Tamiko",
        "label": "_name",
        "offset": 0,
        "slot": "2",
        "type": "t_string_storage"
      },
      {
        "astId": 4710,
        "contract": "contracts/Tamiko.sol:Tamiko",
        "label": "_symbol",
        "offset": 0,
        "slot": "3",
        "type": "t_string_storage"
      },
      {
        "astId": 4714,
        "contract": "contracts/Tamiko.sol:Tamiko",
        "label": "_packedOwnerships",
        "offset": 0,
        "slot": "4",
        "type": "t_mapping(t_uint256,t_uint256)"
      },
      {
        "astId": 4718,
        "contract": "contracts/Tamiko.sol:Tamiko",
        "label": "_packedAddressData",
        "offset": 0,
        "slot": "5",
        "type": "t_mapping(t_address,t_uint256)"
      },
      {
        "astId": 4723,
        "contract": "contracts/Tamiko.sol:Tamiko",
        "label": "_tokenApprovals",
        "offset": 0,
        "slot": "6",
        "type": "t_mapping(t_uint256,t_struct(TokenApprovalRef)4636_storage)"
      },
      {
        "astId": 4729,
        "contract": "contracts/Tamiko.sol:Tamiko",
        "label": "_operatorApprovals",
        "offset": 0,
        "slot": "7",
        "type": "t_mapping(t_address,t_mapping(t_address,t_bool))"
      },
      {
        "astId": 7,
        "contract": "contracts/Tamiko.sol:Tamiko",
        "label": "_owner",
        "offset": 0,
        "slot": "8",
        "type": "t_address"
      },
      {
        "astId": 2113,
        "contract": "contracts/Tamiko.sol:Tamiko",
        "label": "description",
        "offset": 0,
        "slot": "9",
        "type": "t_string_storage"
      },
      {
        "astId": 2121,
        "contract": "contracts/Tamiko.sol:Tamiko",
        "label": "tamikoStoreAddress",
        "offset": 0,
        "slot": "10",
        "type": "t_address"
      },
      {
        "astId": 2123,
        "contract": "contracts/Tamiko.sol:Tamiko",
        "label": "tamikoLinkAddress",
        "offset": 0,
        "slot": "11",
        "type": "t_address"
      },
      {
        "astId": 2126,
        "contract": "contracts/Tamiko.sol:Tamiko",
        "label": "tamikoStore",
        "offset": 0,
        "slot": "12",
        "type": "t_contract(TamikoStore)3891"
      },
      {
        "astId": 2129,
        "contract": "contracts/Tamiko.sol:Tamiko",
        "label": "tamikoRenderer",
        "offset": 0,
        "slot": "13",
        "type": "t_contract(TamikoRenderer)3500"
      },
      {
        "astId": 2132,
        "contract": "contracts/Tamiko.sol:Tamiko",
        "label": "tamikoLink",
        "offset": 0,
        "slot": "14",
        "type": "t_contract(TamikoLink)3248"
      },
      {
        "astId": 2147,
        "contract": "contracts/Tamiko.sol:Tamiko",
        "label": "ELEMENTS",
        "offset": 0,
        "slot": "15",
        "type": "t_array(t_string_storage)10_storage"
      },
      {
        "astId": 2151,
        "contract": "contracts/Tamiko.sol:Tamiko",
        "label": "itemContracts",
        "offset": 0,
        "slot": "25",
        "type": "t_array(t_contract(ITamikoItem)3916)dyn_storage"
      },
      {
        "astId": 2156,
        "contract": "contracts/Tamiko.sol:Tamiko",
        "label": "tamikos",
        "offset": 0,
        "slot": "26",
        "type": "t_mapping(t_uint256,t_struct(CuteTamiko)3966_storage)"
      },
      {
        "astId": 2161,
        "contract": "contracts/Tamiko.sol:Tamiko",
        "label": "skills",
        "offset": 0,
        "slot": "27",
        "type": "t_mapping(t_uint256,t_struct(Skills)3953_storage)"
      },
      {
        "astId": 2166,
        "contract": "contracts/Tamiko.sol:Tamiko",
        "label": "timings",
        "offset": 0,
        "slot": "28",
        "type": "t_mapping(t_uint256,t_struct(Timings)3946_storage)"
      },
      {
        "astId": 2170,
        "contract": "contracts/Tamiko.sol:Tamiko",
        "label": "players",
        "offset": 0,
        "slot": "29",
        "type": "t_mapping(t_address,t_uint256)"
      },
      {
        "astId": 2174,
        "contract": "contracts/Tamiko.sol:Tamiko",
        "label": "hasAddressMinted",
        "offset": 0,
        "slot": "30",
        "type": "t_mapping(t_address,t_bool)"
      }
    ],
    "types": {
      "t_address": {
        "encoding": "inplace",
        "label": "address",
        "numberOfBytes": "20"
      },
      "t_array(t_contract(ITamikoItem)3916)dyn_storage": {
        "base": "t_contract(ITamikoItem)3916",
        "encoding": "dynamic_array",
        "label": "contract ITamikoItem[]",
        "numberOfBytes": "32"
      },
      "t_array(t_string_storage)10_storage": {
        "base": "t_string_storage",
        "encoding": "inplace",
        "label": "string[10]",
        "numberOfBytes": "320"
      },
      "t_bool": {
        "encoding": "inplace",
        "label": "bool",
        "numberOfBytes": "1"
      },
      "t_contract(ITamikoItem)3916": {
        "encoding": "inplace",
        "label": "contract ITamikoItem",
        "numberOfBytes": "20"
      },
      "t_contract(TamikoLink)3248": {
        "encoding": "inplace",
        "label": "contract TamikoLink",
        "numberOfBytes": "20"
      },
      "t_contract(TamikoRenderer)3500": {
        "encoding": "inplace",
        "label": "contract TamikoRenderer",
        "numberOfBytes": "20"
      },
      "t_contract(TamikoStore)3891": {
        "encoding": "inplace",
        "label": "contract TamikoStore",
        "numberOfBytes": "20"
      },
      "t_mapping(t_address,t_bool)": {
        "encoding": "mapping",
        "key": "t_address",
        "label": "mapping(address => bool)",
        "numberOfBytes": "32",
        "value": "t_bool"
      },
      "t_mapping(t_address,t_mapping(t_address,t_bool))": {
        "encoding": "mapping",
        "key": "t_address",
        "label": "mapping(address => mapping(address => bool))",
        "numberOfBytes": "32",
        "value": "t_mapping(t_address,t_bool)"
      },
      "t_mapping(t_address,t_uint256)": {
        "encoding": "mapping",
        "key": "t_address",
        "label": "mapping(address => uint256)",
        "numberOfBytes": "32",
        "value": "t_uint256"
      },
      "t_mapping(t_uint256,t_struct(CuteTamiko)3966_storage)": {
        "encoding": "mapping",
        "key": "t_uint256",
        "label": "mapping(uint256 => struct TamikoLibrary.CuteTamiko)",
        "numberOfBytes": "32",
        "value": "t_struct(CuteTamiko)3966_storage"
      },
      "t_mapping(t_uint256,t_struct(Skills)3953_storage)": {
        "encoding": "mapping",
        "key": "t_uint256",
        "label": "mapping(uint256 => struct TamikoLibrary.Skills)",
        "numberOfBytes": "32",
        "value": "t_struct(Skills)3953_storage"
      },
      "t_mapping(t_uint256,t_struct(Timings)3946_storage)": {
        "encoding": "mapping",
        "key": "t_uint256",
        "label": "mapping(uint256 => struct TamikoLibrary.Timings)",
        "numberOfBytes": "32",
        "value": "t_struct(Timings)3946_storage"
      },
      "t_mapping(t_uint256,t_struct(TokenApprovalRef)4636_storage)": {
        "encoding": "mapping",
        "key": "t_uint256",
        "label": "mapping(uint256 => struct ERC721A.TokenApprovalRef)",
        "numberOfBytes": "32",
        "value": "t_struct(TokenApprovalRef)4636_storage"
      },
      "t_mapping(t_uint256,t_uint256)": {
        "encoding": "mapping",
        "key": "t_uint256",
        "label": "mapping(uint256 => uint256)",
        "numberOfBytes": "32",
        "value": "t_uint256"
      },
      "t_string_storage": {
        "encoding": "bytes",
        "label": "string",
        "numberOfBytes": "32"
      },
      "t_struct(CuteTamiko)3966_storage": {
        "encoding": "inplace",
        "label": "struct TamikoLibrary.CuteTamiko",
        "members": [
          {
            "astId": 3955,
            "contract": "contracts/Tamiko.sol:Tamiko",
            "label": "seed",
            "offset": 0,
            "slot": "0",
            "type": "t_uint256"
          },
          {
            "astId": 3957,
            "contract": "contracts/Tamiko.sol:Tamiko",
            "label": "breeder",
            "offset": 0,
            "slot": "1",
            "type": "t_address"
          },
          {
            "astId": 3959,
            "contract": "contracts/Tamiko.sol:Tamiko",
            "label": "hatcher",
            "offset": 0,
            "slot": "2",
            "type": "t_address"
          },
          {
            "astId": 3961,
            "contract": "contracts/Tamiko.sol:Tamiko",
            "label": "element",
            "offset": 0,
            "slot": "3",
            "type": "t_uint256"
          },
          {
            "astId": 3963,
            "contract": "contracts/Tamiko.sol:Tamiko",
            "label": "level",
            "offset": 0,
            "slot": "4",
            "type": "t_uint256"
          },
          {
            "astId": 3965,
            "contract": "contracts/Tamiko.sol:Tamiko",
            "label": "isAliveForever",
            "offset": 0,
            "slot": "5",
            "type": "t_bool"
          }
        ],
        "numberOfBytes": "192"
      },
      "t_struct(Skills)3953_storage": {
        "encoding": "inplace",
        "label": "struct TamikoLibrary.Skills",
        "members": [
          {
            "astId": 3948,
            "contract": "contracts/Tamiko.sol:Tamiko",
            "label": "power",
            "offset": 0,
            "slot": "0",
            "type": "t_uint256"
          },
          {
            "astId": 3950,
            "contract": "contracts/Tamiko.sol:Tamiko",
            "label": "speed",
            "offset": 0,
            "slot": "1",
            "type": "t_uint256"
          },
          {
            "astId": 3952,
            "contract": "contracts/Tamiko.sol:Tamiko",
            "label": "defense",
            "offset": 0,
            "slot": "2",
            "type": "t_uint256"
          }
        ],
        "numberOfBytes": "96"
      },
      "t_struct(Timings)3946_storage": {
        "encoding": "inplace",
        "label": "struct TamikoLibrary.Timings",
        "members": [
          {
            "astId": 3943,
            "contract": "contracts/Tamiko.sol:Tamiko",
            "label": "lastFed",
            "offset": 0,
            "slot": "0",
            "type": "t_uint256"
          },
          {
            "astId": 3945,
            "contract": "contracts/Tamiko.sol:Tamiko",
            "label": "hatchDate",
            "offset": 0,
            "slot": "1",
            "type": "t_uint256"
          }
        ],
        "numberOfBytes": "64"
      },
      "t_struct(TokenApprovalRef)4636_storage": {
        "encoding": "inplace",
        "label": "struct ERC721A.TokenApprovalRef",
        "members": [
          {
            "astId": 4635,
            "contract": "contracts/Tamiko.sol:Tamiko",
            "label": "value",
            "offset": 0,
            "slot": "0",
            "type": "t_address"
          }
        ],
        "numberOfBytes": "32"
      },
      "t_uint256": {
        "encoding": "inplace",
        "label": "uint256",
        "numberOfBytes": "32"
      }
    }
  }
}