{
  "address": "0x4Bfa47e2e3e73A9cec48e06481001198997E7C94",
  "abi": [
    {
      "inputs": [
        {
          "internalType": "uint256",
          "name": "",
          "type": "uint256"
        }
      ],
      "name": "BASE_COLORS",
      "outputs": [
        {
          "internalType": "string",
          "name": "",
          "type": "string"
        }
      ],
      "stateMutability": "view",
      "type": "function"
    },
    {
      "inputs": [],
      "name": "egg",
      "outputs": [
        {
          "internalType": "string",
          "name": "",
          "type": "string"
        }
      ],
      "stateMutability": "view",
      "type": "function"
    },
    {
      "inputs": [],
      "name": "level1",
      "outputs": [
        {
          "internalType": "string",
          "name": "",
          "type": "string"
        }
      ],
      "stateMutability": "view",
      "type": "function"
    },
    {
      "inputs": [],
      "name": "level2",
      "outputs": [
        {
          "internalType": "string",
          "name": "",
          "type": "string"
        }
      ],
      "stateMutability": "view",
      "type": "function"
    },
    {
      "inputs": [
        {
          "components": [
            {
              "internalType": "uint256",
              "name": "seed",
              "type": "uint256"
            },
            {
              "internalType": "address",
              "name": "breeder",
              "type": "address"
            },
            {
              "internalType": "address",
              "name": "hatcher",
              "type": "address"
            },
            {
              "internalType": "uint256",
              "name": "element",
              "type": "uint256"
            },
            {
              "internalType": "uint256",
              "name": "level",
              "type": "uint256"
            },
            {
              "internalType": "bool",
              "name": "isAliveForever",
              "type": "bool"
            }
          ],
          "internalType": "struct TamikoLibrary.CuteTamiko",
          "name": "_tamiko",
          "type": "tuple"
        },
        {
          "components": [
            {
              "internalType": "uint256",
              "name": "lastFed",
              "type": "uint256"
            },
            {
              "internalType": "uint256",
              "name": "hatchDate",
              "type": "uint256"
            }
          ],
          "internalType": "struct TamikoLibrary.Timings",
          "name": "_timings",
          "type": "tuple"
        },
        {
          "components": [
            {
              "internalType": "uint256",
              "name": "power",
              "type": "uint256"
            },
            {
              "internalType": "uint256",
              "name": "speed",
              "type": "uint256"
            },
            {
              "internalType": "uint256",
              "name": "defense",
              "type": "uint256"
            }
          ],
          "internalType": "struct TamikoLibrary.Skills",
          "name": "_skills",
          "type": "tuple"
        }
      ],
      "name": "tokenURI",
      "outputs": [
        {
          "internalType": "string",
          "name": "",
          "type": "string"
        }
      ],
      "stateMutability": "view",
      "type": "function"
    }
  ],
  "transactionHash": "0xcdea854f93da69948a92427386fa63f588ba69f2e5f324c0c5ac8c586795d4fc",
  "args": [],
  "numDeployments": 1,
  "solcInputHash": "6f9d2d8a46c987656ccfb103c9914abf",
  "bytecode": "0x60806040526040518061012001604052806040518060400160405280600781526020017f234646464646460000000000000000000000000000000000000000000000000081525081526020016040518060400160405280600781526020017f233435384646460000000000000000000000000000000000000000000000000081525081526020016040518060400160405280600781526020017f234635353830300000000000000000000000000000000000000000000000000081525081526020016040518060400160405280600781526020017f233746433833420000000000000000000000000000000000000000000000000081525081526020016040518060400160405280600781526020017f233937454246460000000000000000000000000000000000000000000000000081525081526020016040518060400160405280600781526020017f234646463741430000000000000000000000000000000000000000000000000081525081526020016040518060400160405280600781526020017f233438353136300000000000000000000000000000000000000000000000000081525081526020016040518060400160405280600781526020017f234646453630300000000000000000000000000000000000000000000000000081525081526020016040518060400160405280600781526020017f2341393433453800000000000000000000000000000000000000000000000000815250815250600090600962000233929190620002e7565b50604051806106c0016040528061069a8152602001620027a161069a9139600990805190602001906200026892919062000341565b50604051806106e001604052806106a28152602001620020ff6106a29139600a90805190602001906200029d92919062000341565b50604051806106e001604052806106a2815260200162002e3b6106a29139600b9080519060200190620002d292919062000341565b50348015620002e057600080fd5b50620004c3565b82600981019282156200032e579160200282015b828111156200032d5782518290805190602001906200031c92919062000341565b5091602001919060010190620002fb565b5b5090506200033d9190620003d2565b5090565b8280546200034f906200048e565b90600052602060002090601f016020900481019282620003735760008555620003bf565b82601f106200038e57805160ff1916838001178555620003bf565b82800160010185558215620003bf579182015b82811115620003be578251825591602001919060010190620003a1565b5b509050620003ce9190620003fa565b5090565b5b80821115620003f65760008181620003ec919062000419565b50600101620003d3565b5090565b5b8082111562000415576000816000905550600101620003fb565b5090565b50805462000427906200048e565b6000825580601f106200043b57506200045c565b601f0160209004906000526020600020908101906200045b9190620003fa565b5b50565b7f4e487b7100000000000000000000000000000000000000000000000000000000600052602260045260246000fd5b60006002820490506001821680620004a757607f821691505b602082108103620004bd57620004bc6200045f565b5b50919050565b611c2c80620004d36000396000f3fe608060405234801561001057600080fd5b50600436106100575760003560e01c806349bb330f1461005c578063ad6e07d41461007a578063bc3377d9146100aa578063c06abfc7146100c8578063c08a0d86146100e6575b600080fd5b610064610116565b6040516100719190610ffa565b60405180910390f35b610094600480360381019061008f91906112cb565b6101a4565b6040516100a19190610ffa565b60405180910390f35b6100b261067e565b6040516100bf9190610ffa565b60405180910390f35b6100d061070c565b6040516100dd9190610ffa565b60405180910390f35b61010060048036038101906100fb9190611320565b61079a565b60405161010d9190610ffa565b60405180910390f35b600a80546101239061137c565b80601f016020809104026020016040519081016040528092919081815260200182805461014f9061137c565b801561019c5780601f106101715761010080835404028352916020019161019c565b820191906000526020600020905b81548152906001019060200180831161017f57829003601f168201915b505050505081565b606060006101b2858561083d565b905060006101c086866108a8565b905060606000820361025e57600980546101d99061137c565b80601f01602080910402602001604051908101604052809291908181526020018280546102059061137c565b80156102525780601f1061022757610100808354040283529160200191610252565b820191906000526020600020905b81548152906001019060200180831161023557829003601f168201915b50505050509050610387565b600182036102f857600a80546102739061137c565b80601f016020809104026020016040519081016040528092919081815260200182805461029f9061137c565b80156102ec5780601f106102c1576101008083540402835291602001916102ec565b820191906000526020600020905b8154815290600101906020018083116102cf57829003601f168201915b50505050509050610386565b600b80546103059061137c565b80601f01602080910402602001604051908101604052809291908181526020018280546103319061137c565b801561037e5780601f106103535761010080835404028352916020019161037e565b820191906000526020600020905b81548152906001019060200180831161036157829003601f168201915b505050505090505b5b6106536103ef6040518060400160405280600781526020017f62726565646572000000000000000000000000000000000000000000000000008152506103e88a6020015173ffffffffffffffffffffffffffffffffffffffff16601461094e565b6000610b8a565b61043c6040518060400160405280600581526020017f6c6576656c0000000000000000000000000000000000000000000000000000008152506104358b60800151610c09565b6001610b8a565b6104fb6040518060400160405280600581526020017f616c69766500000000000000000000000000000000000000000000000000000081525061047e8b610d91565b6104bd576040518060400160405280600481526020017f74727565000000000000000000000000000000000000000000000000000000008152506104f4565b6040518060400160405280600581526020017f66616c73650000000000000000000000000000000000000000000000000000008152505b6001610b8a565b6105486040518060400160405280600581526020017f706f7765720000000000000000000000000000000000000000000000000000008152506105418b60000151610c09565b6001610b8a565b6105956040518060400160405280600581526020017f737065656400000000000000000000000000000000000000000000000000000081525061058e8c60200151610c09565b6001610b8a565b6105e26040518060400160405280600781526020017f646566656e7365000000000000000000000000000000000000000000000000008152506105db8d60400151610c09565b6001610b8a565b61060a886040516020016105f691906114a7565b604051602081830303815290604052610dbf565b60405160200161061a9190611524565b60405160208183030381529060405260405160200161063f979695949392919061170e565b604051602081830303815290604052610dbf565b6040516020016106639190611801565b60405160208183030381529060405293505050509392505050565b600b805461068b9061137c565b80601f01602080910402602001604051908101604052809291908181526020018280546106b79061137c565b80156107045780601f106106d957610100808354040283529160200191610704565b820191906000526020600020905b8154815290600101906020018083116106e757829003601f168201915b505050505081565b600980546107199061137c565b80601f01602080910402602001604051908101604052809291908181526020018280546107459061137c565b80156107925780601f1061076757610100808354040283529160200191610792565b820191906000526020600020905b81548152906001019060200180831161077557829003601f168201915b505050505081565b600081600981106107aa57600080fd5b0160009150905080546107bc9061137c565b80601f01602080910402602001604051908101604052809291908181526020018280546107e89061137c565b80156108355780601f1061080a57610100808354040283529160200191610835565b820191906000526020600020905b81548152906001019060200180831161081857829003601f168201915b505050505081565b60008073ffffffffffffffffffffffffffffffffffffffff16836040015173ffffffffffffffffffffffffffffffffffffffff160361087f57600090506108a2565b61088e8260200151603c610f37565b61089957600161089c565b60025b60ff1690505b92915050565b600060018360800151036108dd576108c58260200151603c610f37565b6108d05760006108d3565b60015b60ff169050610948565b6002836080015103610910576108f88260000151603c610f37565b610903576001610906565b60025b60ff169050610948565b60038360800151036109435761092b8260000151603c610f37565b610936576002610939565b60035b60ff169050610948565b600090505b92915050565b6060600060028360026109619190611852565b61096b91906118ac565b67ffffffffffffffff81111561098457610983611030565b5b6040519080825280601f01601f1916602001820160405280156109b65781602001600182028036833780820191505090505b5090507f3000000000000000000000000000000000000000000000000000000000000000816000815181106109ee576109ed611902565b5b60200101907effffffffffffffffffffffffffffffffffffffffffffffffffffffffffffff1916908160001a9053507f780000000000000000000000000000000000000000000000000000000000000081600181518110610a5257610a51611902565b5b60200101907effffffffffffffffffffffffffffffffffffffffffffffffffffffffffffff1916908160001a90535060006001846002610a929190611852565b610a9c91906118ac565b90505b6001811115610b3c577f3031323334353637383961626364656600000000000000000000000000000000600f861660108110610ade57610add611902565b5b1a60f81b828281518110610af557610af4611902565b5b60200101907effffffffffffffffffffffffffffffffffffffffffffffffffffffffffffff1916908160001a905350600485901c945080610b3590611931565b9050610a9f565b5060008414610b80576040517f08c379a0000000000000000000000000000000000000000000000000000000008152600401610b77906119a6565b60405180910390fd5b8091505092915050565b606081610ba65760405180602001604052806000815250610bdd565b6040518060400160405280600181526020017f2c000000000000000000000000000000000000000000000000000000000000008152505b8484604051602001610bf193929190611a38565b60405160208183030381529060405290509392505050565b606060008203610c50576040518060400160405280600181526020017f30000000000000000000000000000000000000000000000000000000000000008152509050610d8c565b600082905060005b60008214610c82578080610c6b90611a96565b915050600a82610c7b9190611b0d565b9150610c58565b60008167ffffffffffffffff811115610c9e57610c9d611030565b5b6040519080825280601f01601f191660200182016040528015610cd05781602001600182028036833780820191505090505b50905060008290505b60008614610d8457600181610cee9190611b3e565b90506000600a8088610d009190611b0d565b610d0a9190611852565b87610d159190611b3e565b6030610d219190611b7f565b905060008160f81b905080848481518110610d3f57610d3e611902565b5b60200101907effffffffffffffffffffffffffffffffffffffffffffffffffffffffffffff1916908160001a905350600a88610d7b9190611b0d565b97505050610cd9565b819450505050505b919050565b600080826000015103610da75760009050610dba565b610db78260000151610258610f37565b90505b919050565b60606000825103610de157604051806020016040528060008152509050610f32565b6000604051806060016040528060408152602001611bb76040913990506000600360028551610e1091906118ac565b610e1a9190611b0d565b6004610e269190611852565b90506000602082610e3791906118ac565b67ffffffffffffffff811115610e5057610e4f611030565b5b6040519080825280601f01601f191660200182016040528015610e825781602001600182028036833780820191505090505b509050818152600183018586518101602084015b81831015610ef1576003830192508251603f8160121c168501518253600182019150603f81600c1c168501518253600182019150603f8160061c168501518253600182019150603f8116850151825360018201915050610e96565b600389510660018114610f0b5760028114610f1b57610f26565b613d3d60f01b6002830352610f26565b603d60f81b60018303525b50505050508093505050505b919050565b6000808303610f495760009050610f5b565b8183610f5591906118ac565b42101590505b92915050565b600081519050919050565b600082825260208201905092915050565b60005b83811015610f9b578082015181840152602081019050610f80565b83811115610faa576000848401525b50505050565b6000601f19601f8301169050919050565b6000610fcc82610f61565b610fd68185610f6c565b9350610fe6818560208601610f7d565b610fef81610fb0565b840191505092915050565b600060208201905081810360008301526110148184610fc1565b905092915050565b6000604051905090565b600080fd5b600080fd5b7f4e487b7100000000000000000000000000000000000000000000000000000000600052604160045260246000fd5b61106882610fb0565b810181811067ffffffffffffffff8211171561108757611086611030565b5b80604052505050565b600061109a61101c565b90506110a6828261105f565b919050565b6000819050919050565b6110be816110ab565b81146110c957600080fd5b50565b6000813590506110db816110b5565b92915050565b600073ffffffffffffffffffffffffffffffffffffffff82169050919050565b600061110c826110e1565b9050919050565b61111c81611101565b811461112757600080fd5b50565b60008135905061113981611113565b92915050565b60008115159050919050565b6111548161113f565b811461115f57600080fd5b50565b6000813590506111718161114b565b92915050565b600060c0828403121561118d5761118c61102b565b5b61119760c0611090565b905060006111a7848285016110cc565b60008301525060206111bb8482850161112a565b60208301525060406111cf8482850161112a565b60408301525060606111e3848285016110cc565b60608301525060806111f7848285016110cc565b60808301525060a061120b84828501611162565b60a08301525092915050565b60006040828403121561122d5761122c61102b565b5b6112376040611090565b90506000611247848285016110cc565b600083015250602061125b848285016110cc565b60208301525092915050565b60006060828403121561127d5761127c61102b565b5b6112876060611090565b90506000611297848285016110cc565b60008301525060206112ab848285016110cc565b60208301525060406112bf848285016110cc565b60408301525092915050565b600080600061016084860312156112e5576112e4611026565b5b60006112f386828701611177565b93505060c061130486828701611217565b92505061010061131686828701611267565b9150509250925092565b60006020828403121561133657611335611026565b5b6000611344848285016110cc565b91505092915050565b7f4e487b7100000000000000000000000000000000000000000000000000000000600052602260045260246000fd5b6000600282049050600182168061139457607f821691505b6020821081036113a7576113a661134d565b5b50919050565b600081905092915050565b7f3c7376672077696474683d22363422206865696768743d22363422207669657760008201527f426f783d22302030203634203634222066696c6c3d226e6f6e652220786d6c6e60208201527f733d22687474703a2f2f7777772e77332e6f72672f323030302f737667223e00604082015250565b600061143a605f836113ad565b9150611445826113b8565b605f82019050919050565b600061145b82610f61565b61146581856113ad565b9350611475818560208601610f7d565b80840191505092915050565b7f3c2f7376673e0000000000000000000000000000000000000000000000000000815250565b60006114b28261142d565b91506114be8284611450565b91506114c982611481565b60068201915081905092915050565b7f646174613a696d6167652f7376672b786d6c3b6261736536342c000000000000600082015250565b600061150e601a836113ad565b9150611519826114d8565b601a82019050919050565b600061152f82611501565b915061153b8284611450565b915081905092915050565b7f7b00000000000000000000000000000000000000000000000000000000000000600082015250565b600061157c6001836113ad565b915061158782611546565b600182019050919050565b7f226e616d65223a202254616d696b6f222c000000000000000000000000000000600082015250565b60006115c86011836113ad565b91506115d382611592565b601182019050919050565b7f2261747472696275746573223a5b000000000000000000000000000000000000600082015250565b6000611614600e836113ad565b915061161f826115de565b600e82019050919050565b7f5d2c000000000000000000000000000000000000000000000000000000000000600082015250565b60006116606002836113ad565b915061166b8261162a565b600282019050919050565b7f22696d616765223a202200000000000000000000000000000000000000000000600082015250565b60006116ac600a836113ad565b91506116b782611676565b600a82019050919050565b7f227d000000000000000000000000000000000000000000000000000000000000600082015250565b60006116f86002836113ad565b9150611703826116c2565b600282019050919050565b60006117198261156f565b9150611724826115bb565b915061172f82611607565b915061173b828a611450565b91506117478289611450565b91506117538288611450565b915061175f8287611450565b915061176b8286611450565b91506117778285611450565b915061178282611653565b915061178d8261169f565b91506117998284611450565b91506117a4826116eb565b915081905098975050505050505050565b7f646174613a6170706c69636174696f6e2f6a736f6e3b6261736536342c000000600082015250565b60006117eb601d836113ad565b91506117f6826117b5565b601d82019050919050565b600061180c826117de565b91506118188284611450565b915081905092915050565b7f4e487b7100000000000000000000000000000000000000000000000000000000600052601160045260246000fd5b600061185d826110ab565b9150611868836110ab565b9250817fffffffffffffffffffffffffffffffffffffffffffffffffffffffffffffffff04831182151516156118a1576118a0611823565b5b828202905092915050565b60006118b7826110ab565b91506118c2836110ab565b9250827fffffffffffffffffffffffffffffffffffffffffffffffffffffffffffffffff038211156118f7576118f6611823565b5b828201905092915050565b7f4e487b7100000000000000000000000000000000000000000000000000000000600052603260045260246000fd5b600061193c826110ab565b91506000820361194f5761194e611823565b5b600182039050919050565b7f537472696e67733a20686578206c656e67746820696e73756666696369656e74600082015250565b6000611990602083610f6c565b915061199b8261195a565b602082019050919050565b600060208201905081810360008301526119bf81611983565b9050919050565b7f7b2274726169745f74797065223a220000000000000000000000000000000000815250565b7f222c2276616c7565223a22000000000000000000000000000000000000000000815250565b7f227d000000000000000000000000000000000000000000000000000000000000815250565b6000611a448286611450565b9150611a4f826119c6565b600f82019150611a5f8285611450565b9150611a6a826119ec565b600b82019150611a7a8284611450565b9150611a8582611a12565b600282019150819050949350505050565b6000611aa1826110ab565b91507fffffffffffffffffffffffffffffffffffffffffffffffffffffffffffffffff8203611ad357611ad2611823565b5b600182019050919050565b7f4e487b7100000000000000000000000000000000000000000000000000000000600052601260045260246000fd5b6000611b18826110ab565b9150611b23836110ab565b925082611b3357611b32611ade565b5b828204905092915050565b6000611b49826110ab565b9150611b54836110ab565b925082821015611b6757611b66611823565b5b828203905092915050565b600060ff82169050919050565b6000611b8a82611b72565b9150611b9583611b72565b92508260ff03821115611bab57611baa611823565b5b82820190509291505056fe4142434445464748494a4b4c4d4e4f505152535455565758595a6162636465666768696a6b6c6d6e6f707172737475767778797a303132333435363738392b2fa2646970667358221220a9d19c22951d94f8b5824c3e305a1a6f5fd1acca05a058fe6b3180cbf6face3b64736f6c634300080e00333c726563742077696474683d22363422206865696768743d223634222066696c6c3d2223434444303234222f3e3c7061746820643d224d34302035344831385635364831395635374833395635364834305635345a222066696c6c3d2223363038443030222f3e3c7061746820643d224d32392034334833375634344833385634354833395635334832395635324832385635314832375634354832385634344832395634335a222066696c6c3d2223464646394438222f3e3c7061746820643d224d32332035325635334832355635324832335a222066696c6c3d2223464646394438222f3e3c7061746820643d224d33312034324833365634334833375634344833305634354832395634374832385635304832395635324833305635334833395635344832315635334832355634354832365634344832375634334833315634325a222066696c6c3d2223434444303234222f3e3c7061746820643d224d33322035314833345635324833325635315a222066696c6c3d2223434444303234222f3e3c7061746820643d224d33352035325635314833375635324833355a222066696c6c3d2223434444303234222f3e3c7061746820643d224d33342034375635314833325634374833345a222066696c6c3d2223313431423030222f3e3c7061746820643d224d33372035315634374833355635314833375a222066696c6c3d2223313431423030222f3e3c706174682066696c6c2d72756c653d226576656e6f64642220636c69702d72756c653d226576656e6f64642220643d224d33312034305634314833305634324832375634334832365634344832355634354832345635314832305635324831395635344832305635354833395635344834305634354833395634344833385634334833375634314833365634304833345634314833335634304833315a4d33332034315634334833345634314833365634334833375634344833385634354833395635344832305635324832355634354832365634344832375634334833315634314833335a222066696c6c3d2223313431423030222f3e3c7061746820643d224d33312034315634334833325634324833335634314833315a222066696c6c3d2223363038443030222f3e3c7061746820643d224d32382034334832375634344832365634354832355635324832305635334832355635324832365634354832375634344832385634335a222066696c6c3d2223363038443030222f3e3c7061746820643d224d33342034334833355634324833365634314833345634335a222066696c6c3d2223363038443030222f3e3c7061746820643d224d33312034314833325634324833315634315a222066696c6c3d2223423430423030222f3e3c7061746820643d224d32372034344832365634354832375634345a222066696c6c3d2223423430423030222f3e3c7061746820643d224d32352034364832365634374832355634365a222066696c6c3d2223423430423030222f3e3c7061746820643d224d32362034384832355634394832365634385a222066696c6c3d2223423430423030222f3e3c7061746820643d224d32352035304832365635314832355635305a222066696c6c3d2223423430423030222f3e3c7061746820643d224d32302035324832315635334832305635325a222066696c6c3d2223423430423030222f3e3c7061746820643d224d32322035324832335635334832325635325a222066696c6c3d2223423430423030222f3e3c7061746820643d224d32352035324832345635334832355635325a222066696c6c3d2223423430423030222f3e3c7061746820643d224d33352034314833345634324833355634315a222066696c6c3d2223423430423030222f3e3c7061746820643d224d32372034364832365634374832375634365a222066696c6c3d2223464633383243222f3e3c7061746820643d224d32362034384832375634394832365634385a222066696c6c3d2223464633383243222f3e3c7061746820643d224d32362035304832375635314832365635305a222066696c6c3d2223464633383243222f3e3c7061746820643d224d32362035324832375635334832365635325a222066696c6c3d2223464633383243222f3e3c7061746820643d224d32352035334832345635344832355635335a222066696c6c3d2223464633383243222f3e3c7061746820643d224d32322035334832335635344832325635335a222066696c6c3d2223464633383243222f3e3c7061746820643d224d32312035334832305635344832315635335a222066696c6c3d2223464633383243222f3e3c726563742077696474683d22363422206865696768743d223634222066696c6c3d2223423642444338222f3e3c7061746820643d224d34312034364832335634394832345635304832355635314832375635324833375635314833395635304834305634394834315634365a222066696c6c3d2223354335453644222f3e3c7061746820643d224d33362033304832385633314832375633324832365633334832355633354832345634364832355634374832365634384832375634394833375634384833385634374833395634364834305633354833395633334833385633324833375633314833365633305a222066696c6c3d227768697465222f3e3c7061746820643d224d33302033304833315633314833305633305a222066696c6c3d2223423642444338222f3e3c706174682066696c6c2d72756c653d226576656e6f64642220636c69702d72756c653d226576656e6f64642220643d224d33392034344833385634354833315634344833305634334832395634314832385633344832395633324833305633314832385633324832375633334832365633394832355634304832345634344832355634354832345634364832365634374832375634384832395634394833355634384833375634374833385634364834305634354833395634345a4d32372034375634364832395634374832375a222066696c6c3d2223423642444338222f3e3c7061746820643d224d33392034345634334834305634344833395a222066696c6c3d2223423642444338222f3e3c7061746820643d224d33362033324833375633334833385633354833375633344833365633325a222066696c6c3d2223354335453644222f3e3c7061746820643d224d33332033354833345633364833355633374833365633384833355633394833345634304833335633394833325633384833315633374833325633364833335633355a222066696c6c3d2223354335453644222f3e3c7061746820643d224d33362034334833375634344833365634335a222066696c6c3d2223354335453644222f3e3c7061746820643d224d33362034345634354833355634344833365a222066696c6c3d2223354335453644222f3e3c7061746820643d224d33372034344833385634354833375634345a222066696c6c3d2223354335453644222f3e3c7061746820643d224d32392034354832375634344832365634364832375634374833305634364832395634355a222066696c6c3d2223354335453644222f3e3c7061746820643d224d32342033374832355633354832365633394832355634304832345633375a222066696c6c3d2223354335453644222f3e3c7061746820643d224d33342032395633304833305632394833345a222066696c6c3d2223313431383146222f3e3c7061746820643d224d32382033315633304833305633314832385a222066696c6c3d2223313431383146222f3e3c7061746820643d224d32372033325633314832385633324832375a222066696c6c3d2223313431383146222f3e3c7061746820643d224d32362033335633324832375633334832365a222066696c6c3d2223313431383146222f3e3c7061746820643d224d32352033355633334832365633354832355a222066696c6c3d2223313431383146222f3e3c7061746820643d224d32342033375633354832355633374832345a222066696c6c3d2223313431383146222f3e3c7061746820643d224d32342034344832335633374832345634345a222066696c6c3d2223313431383146222f3e3c7061746820643d224d32352034364832345634344832355634365a222066696c6c3d2223313431383146222f3e3c7061746820643d224d32362034374832355634364832365634375a222066696c6c3d2223313431383146222f3e3c7061746820643d224d32372034384832365634374832375634385a222066696c6c3d2223313431383146222f3e3c7061746820643d224d32392034394832375634384832395634395a222066696c6c3d2223313431383146222f3e3c7061746820643d224d33352034395635304832395634394833355a222066696c6c3d2223313431383146222f3e3c7061746820643d224d33352034385634394833375634384833385634374833395634364834305634344834315633374834305633354833395633334833385633324833375633314833365633304833345633314833365633324833375633334833385633354833395633374834305634344833395634364833385634374833375634384833355a222066696c6c3d2223313431383146222f3e3c726563742077696474683d22363422206865696768743d223634222066696c6c3d2223353239374646222f3e3c7061746820643d224d34302035344831385635364831395635374833395635364834305635345a222066696c6c3d2223303335344631222f3e3c7061746820643d224d32392034334833375634344833385634354833395635334832395635324832385635314832375634354832385634344832395634335a222066696c6c3d2223444245454646222f3e3c7061746820643d224d32332035325635334832355635324832335a222066696c6c3d2223444245454646222f3e3c7061746820643d224d33312034324833365634334833375634344833305634354832395634374832385635304832395635324833305635334833395635344832315635334832355634354832365634344832375634334833315634325a222066696c6c3d2223353239374646222f3e3c7061746820643d224d33322035314833345635324833325635315a222066696c6c3d2223353239374646222f3e3c7061746820643d224d33352035325635314833375635324833355a222066696c6c3d2223353239374646222f3e3c7061746820643d224d33342034375635314833325634374833345a222066696c6c3d2223303130303244222f3e3c7061746820643d224d33372035315634374833355635314833375a222066696c6c3d2223303130303244222f3e3c706174682066696c6c2d72756c653d226576656e6f64642220636c69702d72756c653d226576656e6f64642220643d224d33312034305634314833305634324832375634334832365634344832355634354832345635314832305635324831395635344832305635354833395635344834305634354833395634344833385634334833375634314833365634304833345634314833335634304833315a4d33332034315634334833345634314833365634334833375634344833385634354833395635344832305635324832355634354832365634344832375634334833315634314833335a222066696c6c3d2223303130303244222f3e3c7061746820643d224d33312034315634334833325634324833335634314833315a222066696c6c3d2223303335344631222f3e3c7061746820643d224d32382034334832375634344832365634354832355635324832305635334832355635324832365634354832375634344832385634335a222066696c6c3d2223303335344631222f3e3c7061746820643d224d33342034334833355634324833365634314833345634335a222066696c6c3d2223303335344631222f3e3c7061746820643d224d33312034314833325634324833315634315a222066696c6c3d2223434631383836222f3e3c7061746820643d224d32372034344832365634354832375634345a222066696c6c3d2223434631383836222f3e3c7061746820643d224d32352034364832365634374832355634365a222066696c6c3d2223434631383836222f3e3c7061746820643d224d32362034384832355634394832365634385a222066696c6c3d2223434631383836222f3e3c7061746820643d224d32352035304832365635314832355635305a222066696c6c3d2223434631383836222f3e3c7061746820643d224d32302035324832315635334832305635325a222066696c6c3d2223434631383836222f3e3c7061746820643d224d32322035324832335635334832325635325a222066696c6c3d2223434631383836222f3e3c7061746820643d224d32352035324832345635334832355635325a222066696c6c3d2223434631383836222f3e3c7061746820643d224d33352034314833345634324833355634315a222066696c6c3d2223434631383836222f3e3c7061746820643d224d32372034364832365634374832375634365a222066696c6c3d2223464637384531222f3e3c7061746820643d224d32362034384832375634394832365634385a222066696c6c3d2223464637384531222f3e3c7061746820643d224d32362035304832375635314832365635305a222066696c6c3d2223464637384531222f3e3c7061746820643d224d32362035324832375635334832365635325a222066696c6c3d2223464637384531222f3e3c7061746820643d224d32352035334832345635344832355635335a222066696c6c3d2223464637384531222f3e3c7061746820643d224d32322035334832335635344832325635335a222066696c6c3d2223464637384531222f3e3c7061746820643d224d32312035334832305635344832315635335a222066696c6c3d2223464637384531222f3e",
  "devdoc": {
    "kind": "dev",
    "methods": {},
    "version": 1
  },
  "userdoc": {
    "kind": "user",
    "methods": {},
    "version": 1
  },
  "storageLayout": {
    "storage": [
      {
        "astId": 3295,
        "contract": "contracts/TamikoRenderer.sol:TamikoRenderer",
        "label": "BASE_COLORS",
        "offset": 0,
        "slot": "0",
        "type": "t_array(t_string_storage)9_storage"
      },
      {
        "astId": 3298,
        "contract": "contracts/TamikoRenderer.sol:TamikoRenderer",
        "label": "egg",
        "offset": 0,
        "slot": "9",
        "type": "t_string_storage"
      },
      {
        "astId": 3301,
        "contract": "contracts/TamikoRenderer.sol:TamikoRenderer",
        "label": "level1",
        "offset": 0,
        "slot": "10",
        "type": "t_string_storage"
      },
      {
        "astId": 3304,
        "contract": "contracts/TamikoRenderer.sol:TamikoRenderer",
        "label": "level2",
        "offset": 0,
        "slot": "11",
        "type": "t_string_storage"
      }
    ],
    "types": {
      "t_array(t_string_storage)9_storage": {
        "base": "t_string_storage",
        "encoding": "inplace",
        "label": "string[9]",
        "numberOfBytes": "288"
      },
      "t_string_storage": {
        "encoding": "bytes",
        "label": "string",
        "numberOfBytes": "32"
      }
    }
  }
}