{
  "address": "0x4955bC558710d92B17C489fb79Ce341b288f7A87",
  "abi": [
    {
      "inputs": [],
      "stateMutability": "nonpayable",
      "type": "constructor"
    },
    {
      "inputs": [],
      "name": "IsNotAuthorised",
      "type": "error"
    },
    {
      "inputs": [],
      "name": "MinimumNotMet",
      "type": "error"
    },
    {
      "inputs": [],
      "name": "NonExistentItem",
      "type": "error"
    },
    {
      "inputs": [],
      "name": "NonExistentTamiko",
      "type": "error"
    },
    {
      "anonymous": false,
      "inputs": [
        {
          "indexed": true,
          "internalType": "address",
          "name": "account",
          "type": "address"
        },
        {
          "indexed": true,
          "internalType": "address",
          "name": "operator",
          "type": "address"
        },
        {
          "indexed": false,
          "internalType": "bool",
          "name": "approved",
          "type": "bool"
        }
      ],
      "name": "ApprovalForAll",
      "type": "event"
    },
    {
      "anonymous": false,
      "inputs": [
        {
          "indexed": true,
          "internalType": "address",
          "name": "previousOwner",
          "type": "address"
        },
        {
          "indexed": true,
          "internalType": "address",
          "name": "newOwner",
          "type": "address"
        }
      ],
      "name": "OwnershipTransferred",
      "type": "event"
    },
    {
      "anonymous": false,
      "inputs": [
        {
          "indexed": true,
          "internalType": "address",
          "name": "operator",
          "type": "address"
        },
        {
          "indexed": true,
          "internalType": "address",
          "name": "from",
          "type": "address"
        },
        {
          "indexed": true,
          "internalType": "address",
          "name": "to",
          "type": "address"
        },
        {
          "indexed": false,
          "internalType": "uint256[]",
          "name": "ids",
          "type": "uint256[]"
        },
        {
          "indexed": false,
          "internalType": "uint256[]",
          "name": "values",
          "type": "uint256[]"
        }
      ],
      "name": "TransferBatch",
      "type": "event"
    },
    {
      "anonymous": false,
      "inputs": [
        {
          "indexed": true,
          "internalType": "address",
          "name": "operator",
          "type": "address"
        },
        {
          "indexed": true,
          "internalType": "address",
          "name": "from",
          "type": "address"
        },
        {
          "indexed": true,
          "internalType": "address",
          "name": "to",
          "type": "address"
        },
        {
          "indexed": false,
          "internalType": "uint256",
          "name": "id",
          "type": "uint256"
        },
        {
          "indexed": false,
          "internalType": "uint256",
          "name": "value",
          "type": "uint256"
        }
      ],
      "name": "TransferSingle",
      "type": "event"
    },
    {
      "anonymous": false,
      "inputs": [
        {
          "indexed": false,
          "internalType": "string",
          "name": "value",
          "type": "string"
        },
        {
          "indexed": true,
          "internalType": "uint256",
          "name": "id",
          "type": "uint256"
        }
      ],
      "name": "URI",
      "type": "event"
    },
    {
      "inputs": [
        {
          "internalType": "string",
          "name": "_name",
          "type": "string"
        },
        {
          "internalType": "string",
          "name": "_description",
          "type": "string"
        },
        {
          "internalType": "string",
          "name": "_svg",
          "type": "string"
        },
        {
          "internalType": "uint256",
          "name": "_priceInWei",
          "type": "uint256"
        },
        {
          "internalType": "address payable",
          "name": "_creator",
          "type": "address"
        }
      ],
      "name": "addItem",
      "outputs": [],
      "stateMutability": "nonpayable",
      "type": "function"
    },
    {
      "inputs": [
        {
          "internalType": "uint256",
          "name": "_q",
          "type": "uint256"
        },
        {
          "internalType": "uint256",
          "name": "_itemId",
          "type": "uint256"
        },
        {
          "internalType": "address",
          "name": "_address",
          "type": "address"
        }
      ],
      "name": "airdrop",
      "outputs": [],
      "stateMutability": "nonpayable",
      "type": "function"
    },
    {
      "inputs": [
        {
          "internalType": "address",
          "name": "account",
          "type": "address"
        },
        {
          "internalType": "uint256",
          "name": "id",
          "type": "uint256"
        }
      ],
      "name": "balanceOf",
      "outputs": [
        {
          "internalType": "uint256",
          "name": "",
          "type": "uint256"
        }
      ],
      "stateMutability": "view",
      "type": "function"
    },
    {
      "inputs": [
        {
          "internalType": "address[]",
          "name": "accounts",
          "type": "address[]"
        },
        {
          "internalType": "uint256[]",
          "name": "ids",
          "type": "uint256[]"
        }
      ],
      "name": "balanceOfBatch",
      "outputs": [
        {
          "internalType": "uint256[]",
          "name": "",
          "type": "uint256[]"
        }
      ],
      "stateMutability": "view",
      "type": "function"
    },
    {
      "inputs": [
        {
          "internalType": "uint256",
          "name": "_q",
          "type": "uint256"
        },
        {
          "internalType": "uint256",
          "name": "_itemId",
          "type": "uint256"
        },
        {
          "internalType": "address",
          "name": "_address",
          "type": "address"
        }
      ],
      "name": "buyItem",
      "outputs": [],
      "stateMutability": "payable",
      "type": "function"
    },
    {
      "inputs": [],
      "name": "description",
      "outputs": [
        {
          "internalType": "string",
          "name": "",
          "type": "string"
        }
      ],
      "stateMutability": "view",
      "type": "function"
    },
    {
      "inputs": [
        {
          "internalType": "uint256",
          "name": "_itemId",
          "type": "uint256"
        },
        {
          "internalType": "string",
          "name": "_name",
          "type": "string"
        },
        {
          "internalType": "string",
          "name": "_description",
          "type": "string"
        },
        {
          "internalType": "string",
          "name": "_svg",
          "type": "string"
        },
        {
          "internalType": "uint256",
          "name": "_priceInWei",
          "type": "uint256"
        },
        {
          "internalType": "address payable",
          "name": "_creator",
          "type": "address"
        }
      ],
      "name": "editItem",
      "outputs": [],
      "stateMutability": "nonpayable",
      "type": "function"
    },
    {
      "inputs": [
        {
          "internalType": "address",
          "name": "account",
          "type": "address"
        },
        {
          "internalType": "address",
          "name": "operator",
          "type": "address"
        }
      ],
      "name": "isApprovedForAll",
      "outputs": [
        {
          "internalType": "bool",
          "name": "",
          "type": "bool"
        }
      ],
      "stateMutability": "view",
      "type": "function"
    },
    {
      "inputs": [
        {
          "internalType": "uint256",
          "name": "",
          "type": "uint256"
        }
      ],
      "name": "items",
      "outputs": [
        {
          "internalType": "uint256",
          "name": "id",
          "type": "uint256"
        },
        {
          "internalType": "string",
          "name": "name",
          "type": "string"
        },
        {
          "internalType": "string",
          "name": "description",
          "type": "string"
        },
        {
          "internalType": "string",
          "name": "svg",
          "type": "string"
        },
        {
          "internalType": "uint256",
          "name": "price",
          "type": "uint256"
        },
        {
          "internalType": "address payable",
          "name": "creator",
          "type": "address"
        }
      ],
      "stateMutability": "view",
      "type": "function"
    },
    {
      "inputs": [],
      "name": "name",
      "outputs": [
        {
          "internalType": "string",
          "name": "",
          "type": "string"
        }
      ],
      "stateMutability": "view",
      "type": "function"
    },
    {
      "inputs": [],
      "name": "owner",
      "outputs": [
        {
          "internalType": "address",
          "name": "",
          "type": "address"
        }
      ],
      "stateMutability": "view",
      "type": "function"
    },
    {
      "inputs": [],
      "name": "renounceOwnership",
      "outputs": [],
      "stateMutability": "nonpayable",
      "type": "function"
    },
    {
      "inputs": [
        {
          "internalType": "address",
          "name": "from",
          "type": "address"
        },
        {
          "internalType": "address",
          "name": "to",
          "type": "address"
        },
        {
          "internalType": "uint256[]",
          "name": "ids",
          "type": "uint256[]"
        },
        {
          "internalType": "uint256[]",
          "name": "amounts",
          "type": "uint256[]"
        },
        {
          "internalType": "bytes",
          "name": "data",
          "type": "bytes"
        }
      ],
      "name": "safeBatchTransferFrom",
      "outputs": [],
      "stateMutability": "nonpayable",
      "type": "function"
    },
    {
      "inputs": [
        {
          "internalType": "address",
          "name": "from",
          "type": "address"
        },
        {
          "internalType": "address",
          "name": "to",
          "type": "address"
        },
        {
          "internalType": "uint256",
          "name": "id",
          "type": "uint256"
        },
        {
          "internalType": "uint256",
          "name": "amount",
          "type": "uint256"
        },
        {
          "internalType": "bytes",
          "name": "data",
          "type": "bytes"
        }
      ],
      "name": "safeTransferFrom",
      "outputs": [],
      "stateMutability": "nonpayable",
      "type": "function"
    },
    {
      "inputs": [
        {
          "internalType": "uint256",
          "name": "_itemId",
          "type": "uint256"
        },
        {
          "internalType": "uint256",
          "name": "_tokenId",
          "type": "uint256"
        }
      ],
      "name": "sendItem",
      "outputs": [],
      "stateMutability": "nonpayable",
      "type": "function"
    },
    {
      "inputs": [
        {
          "internalType": "address",
          "name": "operator",
          "type": "address"
        },
        {
          "internalType": "bool",
          "name": "approved",
          "type": "bool"
        }
      ],
      "name": "setApprovalForAll",
      "outputs": [],
      "stateMutability": "nonpayable",
      "type": "function"
    },
    {
      "inputs": [
        {
          "internalType": "address",
          "name": "_tamikoContract",
          "type": "address"
        }
      ],
      "name": "setTamikoContract",
      "outputs": [],
      "stateMutability": "nonpayable",
      "type": "function"
    },
    {
      "inputs": [
        {
          "internalType": "bytes4",
          "name": "interfaceId",
          "type": "bytes4"
        }
      ],
      "name": "supportsInterface",
      "outputs": [
        {
          "internalType": "bool",
          "name": "",
          "type": "bool"
        }
      ],
      "stateMutability": "view",
      "type": "function"
    },
    {
      "inputs": [],
      "name": "tamiko",
      "outputs": [
        {
          "internalType": "contract Tamiko",
          "name": "",
          "type": "address"
        }
      ],
      "stateMutability": "view",
      "type": "function"
    },
    {
      "inputs": [],
      "name": "tamikoAddress",
      "outputs": [
        {
          "internalType": "address",
          "name": "",
          "type": "address"
        }
      ],
      "stateMutability": "view",
      "type": "function"
    },
    {
      "inputs": [],
      "name": "totalItems",
      "outputs": [
        {
          "internalType": "uint256",
          "name": "",
          "type": "uint256"
        }
      ],
      "stateMutability": "view",
      "type": "function"
    },
    {
      "inputs": [
        {
          "internalType": "address",
          "name": "newOwner",
          "type": "address"
        }
      ],
      "name": "transferOwnership",
      "outputs": [],
      "stateMutability": "nonpayable",
      "type": "function"
    },
    {
      "inputs": [
        {
          "internalType": "uint256",
          "name": "_tokenId",
          "type": "uint256"
        }
      ],
      "name": "uri",
      "outputs": [
        {
          "internalType": "string",
          "name": "",
          "type": "string"
        }
      ],
      "stateMutability": "view",
      "type": "function"
    }
  ],
  "transactionHash": "0xf01dc279aa2960311de8b30766c45569ba7c5eb4bb8c5364e0add270a4b85487",
  "args": [],
  "numDeployments": 3,
  "solcInputHash": "b6116b6c272e4b3da370add093d9b4e5",
  "bytecode": "0x60806040526040518060400160405280600b81526020017f54616d696b6f53746f72650000000000000000000000000000000000000000008152506004908051906020019062000051929190620001c4565b5060405180606001604052806032815260200162004bc2603291396005908051906020019062000083929190620001c4565b503480156200009157600080fd5b5060405180602001604052806000815250620000b381620000da60201b60201c565b50620000d4620000c8620000f660201b60201c565b620000fe60201b60201c565b620002d8565b8060029080519060200190620000f2929190620001c4565b5050565b600033905090565b6000600360009054906101000a900473ffffffffffffffffffffffffffffffffffffffff16905081600360006101000a81548173ffffffffffffffffffffffffffffffffffffffff021916908373ffffffffffffffffffffffffffffffffffffffff1602179055508173ffffffffffffffffffffffffffffffffffffffff168173ffffffffffffffffffffffffffffffffffffffff167f8be0079c531659141344cd1fd0a4f28419497f9722a3daafe3b4186f6b6457e060405160405180910390a35050565b828054620001d290620002a3565b90600052602060002090601f016020900481019282620001f6576000855562000242565b82601f106200021157805160ff191683800117855562000242565b8280016001018555821562000242579182015b828111156200024157825182559160200191906001019062000224565b5b50905062000251919062000255565b5090565b5b808211156200027057600081600090555060010162000256565b5090565b7f4e487b7100000000000000000000000000000000000000000000000000000000600052602260045260246000fd5b60006002820490506001821680620002bc57607f821691505b602082108103620002d257620002d162000274565b5b50919050565b6148da80620002e86000396000f3fe60806040526004361061013f5760003560e01c8063572b89dc116100b6578063a22cb4651161006f578063a22cb46514610438578063bfb231d214610461578063d8b7cf12146104a3578063e985e9c5146104ce578063f242432a1461050b578063f2fde38b146105345761013f565b8063572b89dc1461034e5780636d7e167314610377578063715018a6146103a05780637284e416146103b757806379b973e4146103e25780638da5cb5b1461040d5761013f565b80631e2e8c95116101085780631e2e8c95146102425780632799276d1461026b57806327af48e0146102965780632eb2c2d6146102bf5780632ffc2bb1146102e85780634e1273f4146103115761013f565b8062fdd58e1461014457806301ffc9a71461018157806306fdde03146101be5780630e89341c146101e957806313c066f814610226575b600080fd5b34801561015057600080fd5b5061016b60048036038101906101669190612aa6565b61055d565b6040516101789190612af5565b60405180910390f35b34801561018d57600080fd5b506101a860048036038101906101a39190612b68565b610625565b6040516101b59190612bb0565b60405180910390f35b3480156101ca57600080fd5b506101d3610707565b6040516101e09190612c64565b60405180910390f35b3480156101f557600080fd5b50610210600480360381019061020b9190612c86565b610795565b60405161021d9190612c64565b60405180910390f35b610240600480360381019061023b9190612cb3565b6107a7565b005b34801561024e57600080fd5b5061026960048036038101906102649190612cb3565b610930565b005b34801561027757600080fd5b50610280610a5a565b60405161028d9190612af5565b60405180910390f35b3480156102a257600080fd5b506102bd60048036038101906102b89190612d06565b610a60565b005b3480156102cb57600080fd5b506102e660048036038101906102e19190612f43565b610c0f565b005b3480156102f457600080fd5b5061030f600480360381019061030a9190613012565b610cb0565b005b34801561031d57600080fd5b5061033860048036038101906103339190613102565b610d3d565b6040516103459190613238565b60405180910390f35b34801561035a57600080fd5b5061037560048036038101906103709190613339565b610e56565b005b34801561038357600080fd5b5061039e60048036038101906103999190613408565b610fa4565b005b3480156103ac57600080fd5b506103b5611130565b005b3480156103c357600080fd5b506103cc611144565b6040516103d99190612c64565b60405180910390f35b3480156103ee57600080fd5b506103f76111d2565b60405161040491906134f8565b60405180910390f35b34801561041957600080fd5b506104226111f8565b60405161042f91906134f8565b60405180910390f35b34801561044457600080fd5b5061045f600480360381019061045a919061353f565b611222565b005b34801561046d57600080fd5b5061048860048036038101906104839190612c86565b611238565b60405161049a9695949392919061358e565b60405180910390f35b3480156104af57600080fd5b506104b861143c565b6040516104c59190613663565b60405180910390f35b3480156104da57600080fd5b506104f560048036038101906104f0919061367e565b611462565b6040516105029190612bb0565b60405180910390f35b34801561051757600080fd5b50610532600480360381019061052d91906136be565b6114f6565b005b34801561054057600080fd5b5061055b60048036038101906105569190613012565b611597565b005b60008073ffffffffffffffffffffffffffffffffffffffff168373ffffffffffffffffffffffffffffffffffffffff16036105cd576040517f08c379a00000000000000000000000000000000000000000000000000000000081526004016105c4906137c7565b60405180910390fd5b60008083815260200190815260200160002060008473ffffffffffffffffffffffffffffffffffffffff1673ffffffffffffffffffffffffffffffffffffffff16815260200190815260200160002054905092915050565b60007fd9b67a26000000000000000000000000000000000000000000000000000000007bffffffffffffffffffffffffffffffffffffffffffffffffffffffff1916827bffffffffffffffffffffffffffffffffffffffffffffffffffffffff191614806106f057507f0e89341c000000000000000000000000000000000000000000000000000000007bffffffffffffffffffffffffffffffffffffffffffffffffffffffff1916827bffffffffffffffffffffffffffffffffffffffffffffffffffffffff1916145b8061070057506106ff8261161a565b5b9050919050565b6004805461071490613816565b80601f016020809104026020016040519081016040528092919081815260200182805461074090613816565b801561078d5780601f106107625761010080835404028352916020019161078d565b820191906000526020600020905b81548152906001019060200180831161077057829003601f168201915b505050505081565b60606107a082611684565b9050919050565b8160068054905081106107e6576040517ff2d28f2400000000000000000000000000000000000000000000000000000000815260040160405180910390fd5b8360008103610821576040517fa0927dc300000000000000000000000000000000000000000000000000000000815260040160405180910390fd5b6000856006868154811061083857610837613847565b5b90600052602060002090600602016004015461085491906138a5565b90508034101561086357600080fd5b60006006868154811061087957610878613847565b5b906000526020600020906006020160050160009054906101000a900473ffffffffffffffffffffffffffffffffffffffff1690506108c88587896040518060200160405280600081525061171e565b8073ffffffffffffffffffffffffffffffffffffffff166108fc60046005856108f1919061392e565b6108fb91906138a5565b9081150290604051600060405180830381858888f19350505050158015610926573d6000803e3d6000fd5b5050505050505050565b81600680549050811061096f576040517ff2d28f2400000000000000000000000000000000000000000000000000000000815260040160405180910390fd5b600960009054906101000a900473ffffffffffffffffffffffffffffffffffffffff1673ffffffffffffffffffffffffffffffffffffffff163373ffffffffffffffffffffffffffffffffffffffff1614806109fd57506109ce6111f8565b73ffffffffffffffffffffffffffffffffffffffff163373ffffffffffffffffffffffffffffffffffffffff16145b15610a2257610a1d8284866040518060200160405280600081525061171e565b610a54565b6040517f31cb2bfc00000000000000000000000000000000000000000000000000000000815260040160405180910390fd5b50505050565b60075481565b816006805490508110610a9f576040517ff2d28f2400000000000000000000000000000000000000000000000000000000815260040160405180910390fd5b81600860009054906101000a900473ffffffffffffffffffffffffffffffffffffffff1673ffffffffffffffffffffffffffffffffffffffff166318160ddd6040518163ffffffff1660e01b8152600401602060405180830381865afa158015610b0d573d6000803e3d6000fd5b505050506040513d601f19601f82011682018060405250810190610b319190613974565b8110610b69576040517fe57e033a00000000000000000000000000000000000000000000000000000000815260040160405180910390fd5b600860009054906101000a900473ffffffffffffffffffffffffffffffffffffffff1673ffffffffffffffffffffffffffffffffffffffff1663d03c2b7184866001336040518563ffffffff1660e01b8152600401610bcb94939291906139dc565b600060405180830381600087803b158015610be557600080fd5b505af1158015610bf9573d6000803e3d6000fd5b50505050610c09338560016118ce565b50505050565b610c17611b14565b73ffffffffffffffffffffffffffffffffffffffff168573ffffffffffffffffffffffffffffffffffffffff161480610c5d5750610c5c85610c57611b14565b611462565b5b610c9c576040517f08c379a0000000000000000000000000000000000000000000000000000000008152600401610c9390613a93565b60405180910390fd5b610ca98585858585611b1c565b5050505050565b610cb8611e3d565b80600860006101000a81548173ffffffffffffffffffffffffffffffffffffffff021916908373ffffffffffffffffffffffffffffffffffffffff16021790555080600960006101000a81548173ffffffffffffffffffffffffffffffffffffffff021916908373ffffffffffffffffffffffffffffffffffffffff16021790555050565b60608151835114610d83576040517f08c379a0000000000000000000000000000000000000000000000000000000008152600401610d7a90613b25565b60405180910390fd5b6000835167ffffffffffffffff811115610da057610d9f612d4b565b5b604051908082528060200260200182016040528015610dce5781602001602082028036833780820191505090505b50905060005b8451811015610e4b57610e1b858281518110610df357610df2613847565b5b6020026020010151858381518110610e0e57610e0d613847565b5b602002602001015161055d565b828281518110610e2e57610e2d613847565b5b60200260200101818152505080610e4490613b45565b9050610dd4565b508091505092915050565b610e5e611e3d565b60066040518060c0016040528060068054905081526020018781526020018681526020018581526020018481526020018373ffffffffffffffffffffffffffffffffffffffff168152509080600181540180825580915050600190039060005260206000209060060201600090919091909150600082015181600001556020820151816001019080519060200190610ef792919061295b565b506040820151816002019080519060200190610f1492919061295b565b506060820151816003019080519060200190610f3192919061295b565b506080820151816004015560a08201518160050160006101000a81548173ffffffffffffffffffffffffffffffffffffffff021916908373ffffffffffffffffffffffffffffffffffffffff160217905550505060076000815480929190610f9890613b45565b91905055505050505050565b610fac611e3d565b856006805490508110610feb576040517ff2d28f2400000000000000000000000000000000000000000000000000000000815260040160405180910390fd5b856006888154811061100057610fff613847565b5b9060005260206000209060060201600101908051906020019061102492919061295b565b50846006888154811061103a57611039613847565b5b9060005260206000209060060201600201908051906020019061105e92919061295b565b50836006888154811061107457611073613847565b5b9060005260206000209060060201600301908051906020019061109892919061295b565b5082600688815481106110ae576110ad613847565b5b90600052602060002090600602016004018190555081600688815481106110d8576110d7613847565b5b906000526020600020906006020160050160006101000a81548173ffffffffffffffffffffffffffffffffffffffff021916908373ffffffffffffffffffffffffffffffffffffffff16021790555050505050505050565b611138611e3d565b6111426000611ebb565b565b6005805461115190613816565b80601f016020809104026020016040519081016040528092919081815260200182805461117d90613816565b80156111ca5780601f1061119f576101008083540402835291602001916111ca565b820191906000526020600020905b8154815290600101906020018083116111ad57829003601f168201915b505050505081565b600960009054906101000a900473ffffffffffffffffffffffffffffffffffffffff1681565b6000600360009054906101000a900473ffffffffffffffffffffffffffffffffffffffff16905090565b61123461122d611b14565b8383611f81565b5050565b6006818154811061124857600080fd5b906000526020600020906006020160009150905080600001549080600101805461127190613816565b80601f016020809104026020016040519081016040528092919081815260200182805461129d90613816565b80156112ea5780601f106112bf576101008083540402835291602001916112ea565b820191906000526020600020905b8154815290600101906020018083116112cd57829003601f168201915b5050505050908060020180546112ff90613816565b80601f016020809104026020016040519081016040528092919081815260200182805461132b90613816565b80156113785780601f1061134d57610100808354040283529160200191611378565b820191906000526020600020905b81548152906001019060200180831161135b57829003601f168201915b50505050509080600301805461138d90613816565b80601f01602080910402602001604051908101604052809291908181526020018280546113b990613816565b80156114065780601f106113db57610100808354040283529160200191611406565b820191906000526020600020905b8154815290600101906020018083116113e957829003601f168201915b5050505050908060040154908060050160009054906101000a900473ffffffffffffffffffffffffffffffffffffffff16905086565b600860009054906101000a900473ffffffffffffffffffffffffffffffffffffffff1681565b6000600160008473ffffffffffffffffffffffffffffffffffffffff1673ffffffffffffffffffffffffffffffffffffffff16815260200190815260200160002060008373ffffffffffffffffffffffffffffffffffffffff1673ffffffffffffffffffffffffffffffffffffffff16815260200190815260200160002060009054906101000a900460ff16905092915050565b6114fe611b14565b73ffffffffffffffffffffffffffffffffffffffff168573ffffffffffffffffffffffffffffffffffffffff16148061154457506115438561153e611b14565b611462565b5b611583576040517f08c379a000000000000000000000000000000000000000000000000000000000815260040161157a90613a93565b60405180910390fd5b61159085858585856120ed565b5050505050565b61159f611e3d565b600073ffffffffffffffffffffffffffffffffffffffff168173ffffffffffffffffffffffffffffffffffffffff160361160e576040517f08c379a000000000000000000000000000000000000000000000000000000000815260040161160590613bff565b60405180910390fd5b61161781611ebb565b50565b60007f01ffc9a7000000000000000000000000000000000000000000000000000000007bffffffffffffffffffffffffffffffffffffffffffffffffffffffff1916827bffffffffffffffffffffffffffffffffffffffffffffffffffffffff1916149050919050565b60606116f86006838154811061169d5761169c613847565b5b9060005260206000209060060201600101600684815481106116c2576116c1613847565b5b90600052602060002090600602016003016040516020016116e4929190613ef8565b604051602081830303815290604052612388565b6040516020016117089190613fe6565b6040516020818303038152906040529050919050565b600073ffffffffffffffffffffffffffffffffffffffff168473ffffffffffffffffffffffffffffffffffffffff160361178d576040517f08c379a00000000000000000000000000000000000000000000000000000000081526004016117849061407a565b60405180910390fd5b6000611797611b14565b905060006117a485612500565b905060006117b185612500565b90506117c28360008985858961257a565b8460008088815260200190815260200160002060008973ffffffffffffffffffffffffffffffffffffffff1673ffffffffffffffffffffffffffffffffffffffff1681526020019081526020016000206000828254611821919061409a565b925050819055508673ffffffffffffffffffffffffffffffffffffffff16600073ffffffffffffffffffffffffffffffffffffffff168473ffffffffffffffffffffffffffffffffffffffff167fc3d58168c5ae7397731d063d5bbf3d657854427343f4c083240f7aacaa2d0f62898960405161189f9291906140f0565b60405180910390a46118b683600089858589612582565b6118c58360008989898961258a565b50505050505050565b600073ffffffffffffffffffffffffffffffffffffffff168373ffffffffffffffffffffffffffffffffffffffff160361193d576040517f08c379a00000000000000000000000000000000000000000000000000000000081526004016119349061418b565b60405180910390fd5b6000611947611b14565b9050600061195484612500565b9050600061196184612500565b90506119818387600085856040518060200160405280600081525061257a565b600080600087815260200190815260200160002060008873ffffffffffffffffffffffffffffffffffffffff1673ffffffffffffffffffffffffffffffffffffffff16815260200190815260200160002054905084811015611a18576040517f08c379a0000000000000000000000000000000000000000000000000000000008152600401611a0f9061421d565b60405180910390fd5b84810360008088815260200190815260200160002060008973ffffffffffffffffffffffffffffffffffffffff1673ffffffffffffffffffffffffffffffffffffffff16815260200190815260200160002081905550600073ffffffffffffffffffffffffffffffffffffffff168773ffffffffffffffffffffffffffffffffffffffff168573ffffffffffffffffffffffffffffffffffffffff167fc3d58168c5ae7397731d063d5bbf3d657854427343f4c083240f7aacaa2d0f628989604051611ae59291906140f0565b60405180910390a4611b0b84886000868660405180602001604052806000815250612582565b50505050505050565b600033905090565b8151835114611b60576040517f08c379a0000000000000000000000000000000000000000000000000000000008152600401611b57906142af565b60405180910390fd5b600073ffffffffffffffffffffffffffffffffffffffff168473ffffffffffffffffffffffffffffffffffffffff1603611bcf576040517f08c379a0000000000000000000000000000000000000000000000000000000008152600401611bc690614341565b60405180910390fd5b6000611bd9611b14565b9050611be981878787878761257a565b60005b8451811015611d9a576000858281518110611c0a57611c09613847565b5b602002602001015190506000858381518110611c2957611c28613847565b5b60200260200101519050600080600084815260200190815260200160002060008b73ffffffffffffffffffffffffffffffffffffffff1673ffffffffffffffffffffffffffffffffffffffff16815260200190815260200160002054905081811015611cca576040517f08c379a0000000000000000000000000000000000000000000000000000000008152600401611cc1906143d3565b60405180910390fd5b81810360008085815260200190815260200160002060008c73ffffffffffffffffffffffffffffffffffffffff1673ffffffffffffffffffffffffffffffffffffffff168152602001908152602001600020819055508160008085815260200190815260200160002060008b73ffffffffffffffffffffffffffffffffffffffff1673ffffffffffffffffffffffffffffffffffffffff1681526020019081526020016000206000828254611d7f919061409a565b9250508190555050505080611d9390613b45565b9050611bec565b508473ffffffffffffffffffffffffffffffffffffffff168673ffffffffffffffffffffffffffffffffffffffff168273ffffffffffffffffffffffffffffffffffffffff167f4a39dc06d4c0dbc64b70af90fd698a233a518aa5d07e595d983b8c0526c8f7fb8787604051611e119291906143f3565b60405180910390a4611e27818787878787612582565b611e35818787878787612761565b505050505050565b611e45611b14565b73ffffffffffffffffffffffffffffffffffffffff16611e636111f8565b73ffffffffffffffffffffffffffffffffffffffff1614611eb9576040517f08c379a0000000000000000000000000000000000000000000000000000000008152600401611eb090614476565b60405180910390fd5b565b6000600360009054906101000a900473ffffffffffffffffffffffffffffffffffffffff16905081600360006101000a81548173ffffffffffffffffffffffffffffffffffffffff021916908373ffffffffffffffffffffffffffffffffffffffff1602179055508173ffffffffffffffffffffffffffffffffffffffff168173ffffffffffffffffffffffffffffffffffffffff167f8be0079c531659141344cd1fd0a4f28419497f9722a3daafe3b4186f6b6457e060405160405180910390a35050565b8173ffffffffffffffffffffffffffffffffffffffff168373ffffffffffffffffffffffffffffffffffffffff1603611fef576040517f08c379a0000000000000000000000000000000000000000000000000000000008152600401611fe690614508565b60405180910390fd5b80600160008573ffffffffffffffffffffffffffffffffffffffff1673ffffffffffffffffffffffffffffffffffffffff16815260200190815260200160002060008473ffffffffffffffffffffffffffffffffffffffff1673ffffffffffffffffffffffffffffffffffffffff16815260200190815260200160002060006101000a81548160ff0219169083151502179055508173ffffffffffffffffffffffffffffffffffffffff168373ffffffffffffffffffffffffffffffffffffffff167f17307eab39ab6107e8899845ad3d59bd9653f200f220920489ca2b5937696c31836040516120e09190612bb0565b60405180910390a3505050565b600073ffffffffffffffffffffffffffffffffffffffff168473ffffffffffffffffffffffffffffffffffffffff160361215c576040517f08c379a000000000000000000000000000000000000000000000000000000000815260040161215390614341565b60405180910390fd5b6000612166611b14565b9050600061217385612500565b9050600061218085612500565b905061219083898985858961257a565b600080600088815260200190815260200160002060008a73ffffffffffffffffffffffffffffffffffffffff1673ffffffffffffffffffffffffffffffffffffffff16815260200190815260200160002054905085811015612227576040517f08c379a000000000000000000000000000000000000000000000000000000000815260040161221e906143d3565b60405180910390fd5b85810360008089815260200190815260200160002060008b73ffffffffffffffffffffffffffffffffffffffff1673ffffffffffffffffffffffffffffffffffffffff168152602001908152602001600020819055508560008089815260200190815260200160002060008a73ffffffffffffffffffffffffffffffffffffffff1673ffffffffffffffffffffffffffffffffffffffff16815260200190815260200160002060008282546122dc919061409a565b925050819055508773ffffffffffffffffffffffffffffffffffffffff168973ffffffffffffffffffffffffffffffffffffffff168573ffffffffffffffffffffffffffffffffffffffff167fc3d58168c5ae7397731d063d5bbf3d657854427343f4c083240f7aacaa2d0f628a8a6040516123599291906140f0565b60405180910390a461236f848a8a86868a612582565b61237d848a8a8a8a8a61258a565b505050505050505050565b606060008251036123aa576040518060200160405280600081525090506124fb565b600060405180606001604052806040815260200161486560409139905060006003600285516123d9919061409a565b6123e3919061392e565b60046123ef91906138a5565b90506000602082612400919061409a565b67ffffffffffffffff81111561241957612418612d4b565b5b6040519080825280601f01601f19166020018201604052801561244b5781602001600182028036833780820191505090505b509050818152600183018586518101602084015b818310156124ba576003830192508251603f8160121c168501518253600182019150603f81600c1c168501518253600182019150603f8160061c168501518253600182019150603f811685015182536001820191505061245f565b6003895106600181146124d457600281146124e4576124ef565b613d3d60f01b60028303526124ef565b603d60f81b60018303525b50505050508093505050505b919050565b60606000600167ffffffffffffffff81111561251f5761251e612d4b565b5b60405190808252806020026020018201604052801561254d5781602001602082028036833780820191505090505b509050828160008151811061256557612564613847565b5b60200260200101818152505080915050919050565b505050505050565b505050505050565b6125a98473ffffffffffffffffffffffffffffffffffffffff16612938565b15612759578373ffffffffffffffffffffffffffffffffffffffff1663f23a6e6187878686866040518663ffffffff1660e01b81526004016125ef95949392919061457d565b6020604051808303816000875af192505050801561262b57506040513d601f19601f8201168201806040525081019061262891906145ec565b60015b6126d057612637614626565b806308c379a003612693575061264b614648565b806126565750612695565b806040517f08c379a000000000000000000000000000000000000000000000000000000000815260040161268a9190612c64565b60405180910390fd5b505b6040517f08c379a00000000000000000000000000000000000000000000000000000000081526004016126c79061474a565b60405180910390fd5b63f23a6e6160e01b7bffffffffffffffffffffffffffffffffffffffffffffffffffffffff1916817bffffffffffffffffffffffffffffffffffffffffffffffffffffffff191614612757576040517f08c379a000000000000000000000000000000000000000000000000000000000815260040161274e906147dc565b60405180910390fd5b505b505050505050565b6127808473ffffffffffffffffffffffffffffffffffffffff16612938565b15612930578373ffffffffffffffffffffffffffffffffffffffff1663bc197c8187878686866040518663ffffffff1660e01b81526004016127c69594939291906147fc565b6020604051808303816000875af192505050801561280257506040513d601f19601f820116820180604052508101906127ff91906145ec565b60015b6128a75761280e614626565b806308c379a00361286a5750612822614648565b8061282d575061286c565b806040517f08c379a00000000000000000000000000000000000000000000000000000000081526004016128619190612c64565b60405180910390fd5b505b6040517f08c379a000000000000000000000000000000000000000000000000000000000815260040161289e9061474a565b60405180910390fd5b63bc197c8160e01b7bffffffffffffffffffffffffffffffffffffffffffffffffffffffff1916817bffffffffffffffffffffffffffffffffffffffffffffffffffffffff19161461292e576040517f08c379a0000000000000000000000000000000000000000000000000000000008152600401612925906147dc565b60405180910390fd5b505b505050505050565b6000808273ffffffffffffffffffffffffffffffffffffffff163b119050919050565b82805461296790613816565b90600052602060002090601f01602090048101928261298957600085556129d0565b82601f106129a257805160ff19168380011785556129d0565b828001600101855582156129d0579182015b828111156129cf5782518255916020019190600101906129b4565b5b5090506129dd91906129e1565b5090565b5b808211156129fa5760008160009055506001016129e2565b5090565b6000604051905090565b600080fd5b600080fd5b600073ffffffffffffffffffffffffffffffffffffffff82169050919050565b6000612a3d82612a12565b9050919050565b612a4d81612a32565b8114612a5857600080fd5b50565b600081359050612a6a81612a44565b92915050565b6000819050919050565b612a8381612a70565b8114612a8e57600080fd5b50565b600081359050612aa081612a7a565b92915050565b60008060408385031215612abd57612abc612a08565b5b6000612acb85828601612a5b565b9250506020612adc85828601612a91565b9150509250929050565b612aef81612a70565b82525050565b6000602082019050612b0a6000830184612ae6565b92915050565b60007fffffffff0000000000000000000000000000000000000000000000000000000082169050919050565b612b4581612b10565b8114612b5057600080fd5b50565b600081359050612b6281612b3c565b92915050565b600060208284031215612b7e57612b7d612a08565b5b6000612b8c84828501612b53565b91505092915050565b60008115159050919050565b612baa81612b95565b82525050565b6000602082019050612bc56000830184612ba1565b92915050565b600081519050919050565b600082825260208201905092915050565b60005b83811015612c05578082015181840152602081019050612bea565b83811115612c14576000848401525b50505050565b6000601f19601f8301169050919050565b6000612c3682612bcb565b612c408185612bd6565b9350612c50818560208601612be7565b612c5981612c1a565b840191505092915050565b60006020820190508181036000830152612c7e8184612c2b565b905092915050565b600060208284031215612c9c57612c9b612a08565b5b6000612caa84828501612a91565b91505092915050565b600080600060608486031215612ccc57612ccb612a08565b5b6000612cda86828701612a91565b9350506020612ceb86828701612a91565b9250506040612cfc86828701612a5b565b9150509250925092565b60008060408385031215612d1d57612d1c612a08565b5b6000612d2b85828601612a91565b9250506020612d3c85828601612a91565b9150509250929050565b600080fd5b7f4e487b7100000000000000000000000000000000000000000000000000000000600052604160045260246000fd5b612d8382612c1a565b810181811067ffffffffffffffff82111715612da257612da1612d4b565b5b80604052505050565b6000612db56129fe565b9050612dc18282612d7a565b919050565b600067ffffffffffffffff821115612de157612de0612d4b565b5b602082029050602081019050919050565b600080fd5b6000612e0a612e0584612dc6565b612dab565b90508083825260208201905060208402830185811115612e2d57612e2c612df2565b5b835b81811015612e565780612e428882612a91565b845260208401935050602081019050612e2f565b5050509392505050565b600082601f830112612e7557612e74612d46565b5b8135612e85848260208601612df7565b91505092915050565b600080fd5b600067ffffffffffffffff821115612eae57612ead612d4b565b5b612eb782612c1a565b9050602081019050919050565b82818337600083830152505050565b6000612ee6612ee184612e93565b612dab565b905082815260208101848484011115612f0257612f01612e8e565b5b612f0d848285612ec4565b509392505050565b600082601f830112612f2a57612f29612d46565b5b8135612f3a848260208601612ed3565b91505092915050565b600080600080600060a08688031215612f5f57612f5e612a08565b5b6000612f6d88828901612a5b565b9550506020612f7e88828901612a5b565b945050604086013567ffffffffffffffff811115612f9f57612f9e612a0d565b5b612fab88828901612e60565b935050606086013567ffffffffffffffff811115612fcc57612fcb612a0d565b5b612fd888828901612e60565b925050608086013567ffffffffffffffff811115612ff957612ff8612a0d565b5b61300588828901612f15565b9150509295509295909350565b60006020828403121561302857613027612a08565b5b600061303684828501612a5b565b91505092915050565b600067ffffffffffffffff82111561305a57613059612d4b565b5b602082029050602081019050919050565b600061307e6130798461303f565b612dab565b905080838252602082019050602084028301858111156130a1576130a0612df2565b5b835b818110156130ca57806130b68882612a5b565b8452602084019350506020810190506130a3565b5050509392505050565b600082601f8301126130e9576130e8612d46565b5b81356130f984826020860161306b565b91505092915050565b6000806040838503121561311957613118612a08565b5b600083013567ffffffffffffffff81111561313757613136612a0d565b5b613143858286016130d4565b925050602083013567ffffffffffffffff81111561316457613163612a0d565b5b61317085828601612e60565b9150509250929050565b600081519050919050565b600082825260208201905092915050565b6000819050602082019050919050565b6131af81612a70565b82525050565b60006131c183836131a6565b60208301905092915050565b6000602082019050919050565b60006131e58261317a565b6131ef8185613185565b93506131fa83613196565b8060005b8381101561322b57815161321288826131b5565b975061321d836131cd565b9250506001810190506131fe565b5085935050505092915050565b6000602082019050818103600083015261325281846131da565b905092915050565b600067ffffffffffffffff82111561327557613274612d4b565b5b61327e82612c1a565b9050602081019050919050565b600061329e6132998461325a565b612dab565b9050828152602081018484840111156132ba576132b9612e8e565b5b6132c5848285612ec4565b509392505050565b600082601f8301126132e2576132e1612d46565b5b81356132f284826020860161328b565b91505092915050565b600061330682612a12565b9050919050565b613316816132fb565b811461332157600080fd5b50565b6000813590506133338161330d565b92915050565b600080600080600060a0868803121561335557613354612a08565b5b600086013567ffffffffffffffff81111561337357613372612a0d565b5b61337f888289016132cd565b955050602086013567ffffffffffffffff8111156133a05761339f612a0d565b5b6133ac888289016132cd565b945050604086013567ffffffffffffffff8111156133cd576133cc612a0d565b5b6133d9888289016132cd565b93505060606133ea88828901612a91565b92505060806133fb88828901613324565b9150509295509295909350565b60008060008060008060c0878903121561342557613424612a08565b5b600061343389828a01612a91565b965050602087013567ffffffffffffffff81111561345457613453612a0d565b5b61346089828a016132cd565b955050604087013567ffffffffffffffff81111561348157613480612a0d565b5b61348d89828a016132cd565b945050606087013567ffffffffffffffff8111156134ae576134ad612a0d565b5b6134ba89828a016132cd565b93505060806134cb89828a01612a91565b92505060a06134dc89828a01613324565b9150509295509295509295565b6134f281612a32565b82525050565b600060208201905061350d60008301846134e9565b92915050565b61351c81612b95565b811461352757600080fd5b50565b60008135905061353981613513565b92915050565b6000806040838503121561355657613555612a08565b5b600061356485828601612a5b565b92505060206135758582860161352a565b9150509250929050565b613588816132fb565b82525050565b600060c0820190506135a36000830189612ae6565b81810360208301526135b58188612c2b565b905081810360408301526135c98187612c2b565b905081810360608301526135dd8186612c2b565b90506135ec6080830185612ae6565b6135f960a083018461357f565b979650505050505050565b6000819050919050565b600061362961362461361f84612a12565b613604565b612a12565b9050919050565b600061363b8261360e565b9050919050565b600061364d82613630565b9050919050565b61365d81613642565b82525050565b60006020820190506136786000830184613654565b92915050565b6000806040838503121561369557613694612a08565b5b60006136a385828601612a5b565b92505060206136b485828601612a5b565b9150509250929050565b600080600080600060a086880312156136da576136d9612a08565b5b60006136e888828901612a5b565b95505060206136f988828901612a5b565b945050604061370a88828901612a91565b935050606061371b88828901612a91565b925050608086013567ffffffffffffffff81111561373c5761373b612a0d565b5b61374888828901612f15565b9150509295509295909350565b7f455243313135353a2061646472657373207a65726f206973206e6f742061207660008201527f616c6964206f776e657200000000000000000000000000000000000000000000602082015250565b60006137b1602a83612bd6565b91506137bc82613755565b604082019050919050565b600060208201905081810360008301526137e0816137a4565b9050919050565b7f4e487b7100000000000000000000000000000000000000000000000000000000600052602260045260246000fd5b6000600282049050600182168061382e57607f821691505b602082108103613841576138406137e7565b5b50919050565b7f4e487b7100000000000000000000000000000000000000000000000000000000600052603260045260246000fd5b7f4e487b7100000000000000000000000000000000000000000000000000000000600052601160045260246000fd5b60006138b082612a70565b91506138bb83612a70565b9250817fffffffffffffffffffffffffffffffffffffffffffffffffffffffffffffffff04831182151516156138f4576138f3613876565b5b828202905092915050565b7f4e487b7100000000000000000000000000000000000000000000000000000000600052601260045260246000fd5b600061393982612a70565b915061394483612a70565b925082613954576139536138ff565b5b828204905092915050565b60008151905061396e81612a7a565b92915050565b60006020828403121561398a57613989612a08565b5b60006139988482850161395f565b91505092915050565b6000819050919050565b60006139c66139c16139bc846139a1565b613604565b612a70565b9050919050565b6139d6816139ab565b82525050565b60006080820190506139f16000830187612ae6565b6139fe6020830186612ae6565b613a0b60408301856139cd565b613a1860608301846134e9565b95945050505050565b7f455243313135353a2063616c6c6572206973206e6f7420746f6b656e206f776e60008201527f6572206e6f7220617070726f7665640000000000000000000000000000000000602082015250565b6000613a7d602f83612bd6565b9150613a8882613a21565b604082019050919050565b60006020820190508181036000830152613aac81613a70565b9050919050565b7f455243313135353a206163636f756e747320616e6420696473206c656e67746860008201527f206d69736d617463680000000000000000000000000000000000000000000000602082015250565b6000613b0f602983612bd6565b9150613b1a82613ab3565b604082019050919050565b60006020820190508181036000830152613b3e81613b02565b9050919050565b6000613b5082612a70565b91507fffffffffffffffffffffffffffffffffffffffffffffffffffffffffffffffff8203613b8257613b81613876565b5b600182019050919050565b7f4f776e61626c653a206e6577206f776e657220697320746865207a65726f206160008201527f6464726573730000000000000000000000000000000000000000000000000000602082015250565b6000613be9602683612bd6565b9150613bf482613b8d565b604082019050919050565b60006020820190508181036000830152613c1881613bdc565b9050919050565b600081905092915050565b7f7b00000000000000000000000000000000000000000000000000000000000000600082015250565b6000613c60600183613c1f565b9150613c6b82613c2a565b600182019050919050565b7f226e616d65223a20220000000000000000000000000000000000000000000000600082015250565b6000613cac600983613c1f565b9150613cb782613c76565b600982019050919050565b60008190508160005260206000209050919050565b60008154613ce481613816565b613cee8186613c1f565b94506001821660008114613d095760018114613d1a57613d4d565b60ff19831686528186019350613d4d565b613d2385613cc2565b60005b83811015613d4557815481890152600182019150602081019050613d26565b838801955050505b50505092915050565b7f222c000000000000000000000000000000000000000000000000000000000000600082015250565b6000613d8c600283613c1f565b9150613d9782613d56565b600282019050919050565b7f226465736372697074696f6e223a202254616d696b6f53746f7265206974656d60008201527f222c000000000000000000000000000000000000000000000000000000000000602082015250565b6000613dfe602283613c1f565b9150613e0982613da2565b602282019050919050565b7f22696d616765223a202200000000000000000000000000000000000000000000600082015250565b6000613e4a600a83613c1f565b9150613e5582613e14565b600a82019050919050565b7f2200000000000000000000000000000000000000000000000000000000000000600082015250565b6000613e96600183613c1f565b9150613ea182613e60565b600182019050919050565b7f7d00000000000000000000000000000000000000000000000000000000000000600082015250565b6000613ee2600183613c1f565b9150613eed82613eac565b600182019050919050565b6000613f0382613c53565b9150613f0e82613c9f565b9150613f1a8285613cd7565b9150613f2582613d7f565b9150613f3082613df1565b9150613f3b82613e3d565b9150613f478284613cd7565b9150613f5282613e89565b9150613f5d82613ed5565b91508190509392505050565b7f646174613a6170706c69636174696f6e2f6a736f6e3b6261736536342c000000600082015250565b6000613f9f601d83613c1f565b9150613faa82613f69565b601d82019050919050565b6000613fc082612bcb565b613fca8185613c1f565b9350613fda818560208601612be7565b80840191505092915050565b6000613ff182613f92565b9150613ffd8284613fb5565b915081905092915050565b7f455243313135353a206d696e7420746f20746865207a65726f2061646472657360008201527f7300000000000000000000000000000000000000000000000000000000000000602082015250565b6000614064602183612bd6565b915061406f82614008565b604082019050919050565b6000602082019050818103600083015261409381614057565b9050919050565b60006140a582612a70565b91506140b083612a70565b9250827fffffffffffffffffffffffffffffffffffffffffffffffffffffffffffffffff038211156140e5576140e4613876565b5b828201905092915050565b60006040820190506141056000830185612ae6565b6141126020830184612ae6565b9392505050565b7f455243313135353a206275726e2066726f6d20746865207a65726f206164647260008201527f6573730000000000000000000000000000000000000000000000000000000000602082015250565b6000614175602383612bd6565b915061418082614119565b604082019050919050565b600060208201905081810360008301526141a481614168565b9050919050565b7f455243313135353a206275726e20616d6f756e7420657863656564732062616c60008201527f616e636500000000000000000000000000000000000000000000000000000000602082015250565b6000614207602483612bd6565b9150614212826141ab565b604082019050919050565b60006020820190508181036000830152614236816141fa565b9050919050565b7f455243313135353a2069647320616e6420616d6f756e7473206c656e6774682060008201527f6d69736d61746368000000000000000000000000000000000000000000000000602082015250565b6000614299602883612bd6565b91506142a48261423d565b604082019050919050565b600060208201905081810360008301526142c88161428c565b9050919050565b7f455243313135353a207472616e7366657220746f20746865207a65726f20616460008201527f6472657373000000000000000000000000000000000000000000000000000000602082015250565b600061432b602583612bd6565b9150614336826142cf565b604082019050919050565b6000602082019050818103600083015261435a8161431e565b9050919050565b7f455243313135353a20696e73756666696369656e742062616c616e636520666f60008201527f72207472616e7366657200000000000000000000000000000000000000000000602082015250565b60006143bd602a83612bd6565b91506143c882614361565b604082019050919050565b600060208201905081810360008301526143ec816143b0565b9050919050565b6000604082019050818103600083015261440d81856131da565b9050818103602083015261442181846131da565b90509392505050565b7f4f776e61626c653a2063616c6c6572206973206e6f7420746865206f776e6572600082015250565b6000614460602083612bd6565b915061446b8261442a565b602082019050919050565b6000602082019050818103600083015261448f81614453565b9050919050565b7f455243313135353a2073657474696e6720617070726f76616c2073746174757360008201527f20666f722073656c660000000000000000000000000000000000000000000000602082015250565b60006144f2602983612bd6565b91506144fd82614496565b604082019050919050565b60006020820190508181036000830152614521816144e5565b9050919050565b600081519050919050565b600082825260208201905092915050565b600061454f82614528565b6145598185614533565b9350614569818560208601612be7565b61457281612c1a565b840191505092915050565b600060a08201905061459260008301886134e9565b61459f60208301876134e9565b6145ac6040830186612ae6565b6145b96060830185612ae6565b81810360808301526145cb8184614544565b90509695505050505050565b6000815190506145e681612b3c565b92915050565b60006020828403121561460257614601612a08565b5b6000614610848285016145d7565b91505092915050565b60008160e01c9050919050565b600060033d11156146455760046000803e614642600051614619565b90505b90565b600060443d106146d55761465a6129fe565b60043d036004823e80513d602482011167ffffffffffffffff821117156146825750506146d5565b808201805167ffffffffffffffff8111156146a057505050506146d5565b80602083010160043d0385018111156146bd5750505050506146d5565b6146cc82602001850186612d7a565b82955050505050505b90565b7f455243313135353a207472616e7366657220746f206e6f6e204552433131353560008201527f526563656976657220696d706c656d656e746572000000000000000000000000602082015250565b6000614734603483612bd6565b915061473f826146d8565b604082019050919050565b6000602082019050818103600083015261476381614727565b9050919050565b7f455243313135353a204552433131353552656365697665722072656a6563746560008201527f6420746f6b656e73000000000000000000000000000000000000000000000000602082015250565b60006147c6602883612bd6565b91506147d18261476a565b604082019050919050565b600060208201905081810360008301526147f5816147b9565b9050919050565b600060a08201905061481160008301886134e9565b61481e60208301876134e9565b818103604083015261483081866131da565b9050818103606083015261484481856131da565b905081810360808301526148588184614544565b9050969550505050505056fe4142434445464748494a4b4c4d4e4f505152535455565758595a6162636465666768696a6b6c6d6e6f707172737475767778797a303132333435363738392b2fa2646970667358221220a4e5324319a8d1bf1803d75f65beaf43fb82a6059eb9a38dba201b98b98c14dd64736f6c634300080e003354616d696b6f53746f726520697320776865726520796f7520627579206974656d7320666f7220796f75722054616d696b6f",
  "devdoc": {
    "kind": "dev",
    "methods": {
      "addItem(string,string,string,uint256,address)": {
        "details": "Add a new Item to the store",
        "params": {
          "_creator": "Creator's address",
          "_description": "Item description",
          "_name": "Item name",
          "_priceInWei": "Price in WEI",
          "_svg": "SVG string"
        }
      },
      "airdrop(uint256,uint256,address)": {
        "details": "Airdrops an item to an address",
        "params": {
          "_address": "Receiver's address",
          "_itemId": "Item to mint",
          "_q": "Quantity to mint"
        }
      },
      "balanceOf(address,uint256)": {
        "details": "See {IERC1155-balanceOf}. Requirements: - `account` cannot be the zero address."
      },
      "balanceOfBatch(address[],uint256[])": {
        "details": "See {IERC1155-balanceOfBatch}. Requirements: - `accounts` and `ids` must have the same length."
      },
      "buyItem(uint256,uint256,address)": {
        "details": "Mints an item - 80% of item price goes to Item creator",
        "params": {
          "_address": "Minter's address",
          "_itemId": "Item to mint",
          "_q": "Quantity to mint"
        }
      },
      "editItem(uint256,string,string,string,uint256,address)": {
        "details": "Edits an existing Item",
        "params": {
          "_creator": "Creator's address",
          "_description": "Item description",
          "_name": "Item name",
          "_priceInWei": "Price in WEI",
          "_svg": "SVG string"
        }
      },
      "isApprovedForAll(address,address)": {
        "details": "See {IERC1155-isApprovedForAll}."
      },
      "owner()": {
        "details": "Returns the address of the current owner."
      },
      "renounceOwnership()": {
        "details": "Leaves the contract without owner. It will not be possible to call `onlyOwner` functions anymore. Can only be called by the current owner. NOTE: Renouncing ownership will leave the contract without an owner, thereby removing any functionality that is only available to the owner."
      },
      "safeBatchTransferFrom(address,address,uint256[],uint256[],bytes)": {
        "details": "See {IERC1155-safeBatchTransferFrom}."
      },
      "safeTransferFrom(address,address,uint256,uint256,bytes)": {
        "details": "See {IERC1155-safeTransferFrom}."
      },
      "sendItem(uint256,uint256)": {
        "details": "Gives an item to a specific Tamiko",
        "params": {
          "_itemId": "Item to give",
          "_tokenId": "Receiver Tamiko"
        }
      },
      "setApprovalForAll(address,bool)": {
        "details": "See {IERC1155-setApprovalForAll}."
      },
      "setTamikoContract(address)": {
        "details": "Updates Tamiko contract address",
        "params": {
          "_tamikoContract": "Contract address"
        }
      },
      "supportsInterface(bytes4)": {
        "details": "See {IERC165-supportsInterface}."
      },
      "transferOwnership(address)": {
        "details": "Transfers ownership of the contract to a new account (`newOwner`). Can only be called by the current owner."
      }
    },
    "version": 1
  },
  "userdoc": {
    "kind": "user",
    "methods": {},
    "version": 1
  },
  "storageLayout": {
    "storage": [
      {
        "astId": 138,
        "contract": "contracts/TamikoStore.sol:TamikoStore",
        "label": "_balances",
        "offset": 0,
        "slot": "0",
        "type": "t_mapping(t_uint256,t_mapping(t_address,t_uint256))"
      },
      {
        "astId": 144,
        "contract": "contracts/TamikoStore.sol:TamikoStore",
        "label": "_operatorApprovals",
        "offset": 0,
        "slot": "1",
        "type": "t_mapping(t_address,t_mapping(t_address,t_bool))"
      },
      {
        "astId": 146,
        "contract": "contracts/TamikoStore.sol:TamikoStore",
        "label": "_uri",
        "offset": 0,
        "slot": "2",
        "type": "t_string_storage"
      },
      {
        "astId": 7,
        "contract": "contracts/TamikoStore.sol:TamikoStore",
        "label": "_owner",
        "offset": 0,
        "slot": "3",
        "type": "t_address"
      },
      {
        "astId": 3537,
        "contract": "contracts/TamikoStore.sol:TamikoStore",
        "label": "name",
        "offset": 0,
        "slot": "4",
        "type": "t_string_storage"
      },
      {
        "astId": 3540,
        "contract": "contracts/TamikoStore.sol:TamikoStore",
        "label": "description",
        "offset": 0,
        "slot": "5",
        "type": "t_string_storage"
      },
      {
        "astId": 3544,
        "contract": "contracts/TamikoStore.sol:TamikoStore",
        "label": "items",
        "offset": 0,
        "slot": "6",
        "type": "t_array(t_struct(Item)4001_storage)dyn_storage"
      },
      {
        "astId": 3546,
        "contract": "contracts/TamikoStore.sol:TamikoStore",
        "label": "totalItems",
        "offset": 0,
        "slot": "7",
        "type": "t_uint256"
      },
      {
        "astId": 3549,
        "contract": "contracts/TamikoStore.sol:TamikoStore",
        "label": "tamiko",
        "offset": 0,
        "slot": "8",
        "type": "t_contract(Tamiko)2772"
      },
      {
        "astId": 3551,
        "contract": "contracts/TamikoStore.sol:TamikoStore",
        "label": "tamikoAddress",
        "offset": 0,
        "slot": "9",
        "type": "t_address"
      }
    ],
    "types": {
      "t_address": {
        "encoding": "inplace",
        "label": "address",
        "numberOfBytes": "20"
      },
      "t_address_payable": {
        "encoding": "inplace",
        "label": "address payable",
        "numberOfBytes": "20"
      },
      "t_array(t_struct(Item)4001_storage)dyn_storage": {
        "base": "t_struct(Item)4001_storage",
        "encoding": "dynamic_array",
        "label": "struct TamikoLibrary.Item[]",
        "numberOfBytes": "32"
      },
      "t_bool": {
        "encoding": "inplace",
        "label": "bool",
        "numberOfBytes": "1"
      },
      "t_contract(Tamiko)2772": {
        "encoding": "inplace",
        "label": "contract Tamiko",
        "numberOfBytes": "20"
      },
      "t_mapping(t_address,t_bool)": {
        "encoding": "mapping",
        "key": "t_address",
        "label": "mapping(address => bool)",
        "numberOfBytes": "32",
        "value": "t_bool"
      },
      "t_mapping(t_address,t_mapping(t_address,t_bool))": {
        "encoding": "mapping",
        "key": "t_address",
        "label": "mapping(address => mapping(address => bool))",
        "numberOfBytes": "32",
        "value": "t_mapping(t_address,t_bool)"
      },
      "t_mapping(t_address,t_uint256)": {
        "encoding": "mapping",
        "key": "t_address",
        "label": "mapping(address => uint256)",
        "numberOfBytes": "32",
        "value": "t_uint256"
      },
      "t_mapping(t_uint256,t_mapping(t_address,t_uint256))": {
        "encoding": "mapping",
        "key": "t_uint256",
        "label": "mapping(uint256 => mapping(address => uint256))",
        "numberOfBytes": "32",
        "value": "t_mapping(t_address,t_uint256)"
      },
      "t_string_storage": {
        "encoding": "bytes",
        "label": "string",
        "numberOfBytes": "32"
      },
      "t_struct(Item)4001_storage": {
        "encoding": "inplace",
        "label": "struct TamikoLibrary.Item",
        "members": [
          {
            "astId": 3990,
            "contract": "contracts/TamikoStore.sol:TamikoStore",
            "label": "id",
            "offset": 0,
            "slot": "0",
            "type": "t_uint256"
          },
          {
            "astId": 3992,
            "contract": "contracts/TamikoStore.sol:TamikoStore",
            "label": "name",
            "offset": 0,
            "slot": "1",
            "type": "t_string_storage"
          },
          {
            "astId": 3994,
            "contract": "contracts/TamikoStore.sol:TamikoStore",
            "label": "description",
            "offset": 0,
            "slot": "2",
            "type": "t_string_storage"
          },
          {
            "astId": 3996,
            "contract": "contracts/TamikoStore.sol:TamikoStore",
            "label": "svg",
            "offset": 0,
            "slot": "3",
            "type": "t_string_storage"
          },
          {
            "astId": 3998,
            "contract": "contracts/TamikoStore.sol:TamikoStore",
            "label": "price",
            "offset": 0,
            "slot": "4",
            "type": "t_uint256"
          },
          {
            "astId": 4000,
            "contract": "contracts/TamikoStore.sol:TamikoStore",
            "label": "creator",
            "offset": 0,
            "slot": "5",
            "type": "t_address_payable"
          }
        ],
        "numberOfBytes": "192"
      },
      "t_uint256": {
        "encoding": "inplace",
        "label": "uint256",
        "numberOfBytes": "32"
      }
    }
  }
}